S00C0000546573742E7372656378
S31508000000402E0020A54B00089F4A0008A14A000878
S31508000010A34A0008A54A0008A74A000800000000ED
S31508000020000000000000000000000000A94A0008C7
S31508000030AB4A000800000000972D0008AD4A0008EA
S31508000040594C00085D4C0008614C0008654C0008D6
S31508000050694C00086D4C0008714C0008754C000886
S31508000060794C00087D4C0008814C0008854C000836
S31508000070894C00088D4C0008914C0008954C0008E6
S31508000080994C00089D4C0008A14C0008A54C000896
S31508000090A94C0008AD4C0008B14C0008B54C000846
S315080000A0B94C0008BD4C0008C14C0008C54C0008F6
S315080000B0C94C0008CD4C0008D14C0008D54C0008A6
S315080000C0D94C0008DD4C0008E14C0008E54C000856
S315080000D0E94C0008B54A0008BD4A0008C54A0008A8
S315080000E0CD4A0008ED4C0008F14C000810B5040094
S315080000F000F0AFFC0020DFF8781808700020DFF861
S31508000100741808700020DFF8701808700020DFF8EF
S315080001106C1808600020DFF8681808600020DFF80F
S31508000120641808700020DFF8601808700020DFF8EF
S315080001305C1808700020DFF858180870DFF85408B3
S3150800014000680A21B0FBF1F0DFF84C180860DFF808
S315080001504C08006800280ED0DFF84408006800281C
S3150800016009D0DFF83818096803E0491E0022026042
S31508000170001D0029F9D10020DFF8281808600020A2
S31508000180DFF8241808600020DFF82018086000202F
S31508000190DFF81C1808600020DFF81818086000202F
S315080001A0DFF8141808600020DFF81018086000202F
S315080001B0DFF80C18087000F02FFD00F0E6FA2000B2
S315080001C000F0E9FF2088002837D1200001F087F9E0
S315080001D02088002831D1200001F08EF920880028D7
S315080001E02BD1200001F086FA2088002825D120008E
S315080001F001F0E7FB208800281FD1200001F061FDEF
S315080002002088002819D1200002F000F8208800284C
S3150800021013D1200000F066F9208800280DD12000AF
S3150800022002F022F92088002807D1200002F0C1FB3D
S315080002302088002801D102F02FFD10BD10B500243A
S31508000240DFF83007007801285BD102F07FFD040053
S31508000250DFF81C070078002803D1200002F07AFD99
S315080002604FE0DFF80C070078401EDFF80417087027
S31508000270DFF8FC060078002803D0200002F06AFDAB
S315080002803FE0DFF8F4060078002803D0200002F0EB
S3150800029061FD36E000F0CAFCDFF8EC160870DFF8FE
S315080002A0E80600780C21DFF81C2701FB002000680F
S315080002B0DFF8CC160860DFF8C8060068DFF8BC1659
S315080002C00968884203D1200002F044FD19E0DFF8EE
S315080002D0B0060068D0F89000401CDFF8A41609683C
S315080002E0C1F89000DFF8E0060068401CDFF8D81671
S315080002F008605FF08050DFF8D4160860200002F02E
S3150800030029FD10BD10B50024DFF864060078002822
S315080003103ED1DFF864060078002839D102F016FDD0
S31508000320040000F083FCDFF860160870DFF8580652
S3150800033000780C21DFF88C2601FB00200068DFF826
S3150800034040160860DFF838060068DFF830160968D6
S31508000350884203D1200002F0FDFC19E0DFF82006F0
S315080003600068D0F89000401CDFF814160968C1F838
S315080003709000DFF854060068401CDFF84C16086049
S315080003805FF08050DFF844160860200002F0E2FCB7
S3150800039010BD10B504000020DFF8D415097800292F
S315080003A003D046F6625020801EE0DFF8C8050078C4
S315080003B0012803D045F68960208015E0DFF8B805E6
S315080003C00078FA2803DB45F2092020800CE002F0C9
S315080003D0BDFCDFF8A4150978491CDFF89C251170C7
S315080003E002F0B8FC0020208010BD10B504000020E3
S315080003F0DFF87C150978002903D046F66550208079
S315080004002BE0DFF870050078012803D045F68960EF
S31508000410208022E0DFF860050078002803D146F640
S315080004206450208019E002F091FCDFF84C15097839
S31508000430491EDFF844251170DFF83C1509780029B4
S3150800044005D002F087FC46F66350208005E002F0EE
S3150800045081FCFFF757FF0020208010BD10B504006F
S31508000460DFF810050078002826D100F0DFFBDFF85A
S3150800047018150870DFF810050078DFF808150870F9
S31508000480DFF8040500780C21DFF8382501FB002089
S315080004900068DFF8EC140860DFF8E4040068DFF8A9
S315080004A0DC1408600120DFF8CC14087002F064FC44
S315080004B043F69920208002E045F68A60208010BD28
S315080004C080B5002102F042FC0100DFF8040500684F
S315080004D0401CDFF8FC241060080002F03BFC00F02A
S315080004E0AFFAEFE700B589B00021DFF8E424116020
S315080004F008900B2007900020069000200590002009
S315080005000490DFF8D00400680390DFF8CC04006894
S315080005100290DFF8C804006801901F2000900023AD
S31508000520DFF8BC24DFF8BC14DFF8BC0401F03EFC9D
S3150800053009B000BD70B504000D001900DFF83C04D1
S31508000540006880F834200020DFF83024126882F82A
S315080005503500DFF82804006800F048FA002D0ED0B0
S3150800056015F10806E56001222100DFF8100400688D
S3150800057000F010F82100300000F02DF809E0002006
S31508000580DFF8F8130968C8870020DFF8F013096850
S31508000590086370BD10B4C287016300230EE000240F
S315080005A04C6000240C6000240C6100244C6100247B
S315080005B00C830024CC61886020315B1C9BB292B20C
S315080005C09342ECD310BC70470021016000214160C2
S315080005D000210181704710B48A6892F83720038990
S315080005E0002B08D10122028100224A6000220A60FB
S315080005F00160416024E003895B1C0381046800E014
S315080006006468002C05D0A36893F83730D2B29A42B2
S31508000610F6D2002C06D100224A6042680A60516070
S3150800062041600DE02268002A05D1216000220A6097
S315080006304C60016004E022680A604C6051602160E9
S3150800064010BC704770B50400266BE58F06E0F068AD
S315080006500830310000F00AF820366D1EADB2002DC4
S31508000660F5D10020E0870020206370BD0289012AA9
S3150800067004D1002202600022426013E00A68002AC0
S3150800068004D14B6800221A6003600BE04A68002A0E
S3150800069004D10A6800235360426003E00A684B6885
S315080006A053601A600289521E0281002048600020A9
S315080006B00860704738B505000C00049894F83610A1
S315080006C000290BD002290AD008D3042906D006D35C
S315080006D0062925D002D3072922D042E041E094F822
S315080006E03410032906D100909BB22100280000F09F
S315080006F039F803E0E265A4F860302064002D02D0E2
S315080007002000FFF79FFF200000F08DF9002084F8F5
S315080007103600002084F83500002084F8340020E0F4
S3150800072094F83410032906D100909BB221002800C2
S3150800073000F018F803E0E265A4F8603020642000B1
S3150800074001F084FF002D02D02000FFF77BFF042074
S3150800075084F83600002084F83500002084F8340038
S31508000760FFE731BD30B40C6BC98F01E02034491E58
S3150800077089B2002907D0E568A842F7D120616261ED
S3150800078023830298E06130BC704700200BE0C0B2BA
S315080007900C218C4A01FB002100220A8100220A60F2
S315080007A000224A60401CC0B22028F0D3704710B51A
S315080007B0040094F8370000F049FA94F837007149B4
S315080007C00978884203D1200000F022F802E02000D0
S315080007D000F001F810BD90F837100C22794B02FB97
S315080007E001310A89002A08D101220A810022C26041
S315080007F0002202610860486009E00A89521C0A81E1
S315080008000A68C260002202610A68106108607047BF
S3150800081090F837100C226B4B02FB01310A89002A2B
S3150800082008D101220A810022C26000220261086002
S31508000830486008E00A89521C0A810022C2604A6898
S315080008400261D0604860704710B40189002902D05F
S31508000850022901D00BD215E0016842680A6100231B
S31508000860CB6000231361D160026041600AE0016831
S315080008704268CB6800241C610024CC600A61D16000
S315080008800360416010BC704710B5040094F8370047
S315080008900C214C4A01FB00202169E268002913D18A
S315080008A0002A0AD10021018100210160002141604E
S315080008B094F8370000F0DDF90FE00189491E01813F
S315080008C000211161026008E003895B1E0381CA608A
S315080008D0002A01D1416000E011610020206100205A
S315080008E0E06010BD38B504000025294800780128C5
S315080008F03CD102F02BFA05002068002803D1280015
S3150800090002F028FA32E03849884203D1280002F07A
S3150800091021FA2BE0816D002902D0816D491E81657F
S31508000920806D002803D0280002F014FA1EE0208902
S31508000930022803DA280002F00DFA17E00E480078BC
S31508000940002803D0280002F005FA0FE02000FFF780
S315080009507BFF2068416D002903D10F49096881652D
S3150800096001E0416D8165280002F0F4F931BD00000F
S31508000970322C0020332C0020372C00201C2C002081
S31508000980202C0020342C0020352C0020362C00206A
S31508000990382C0020244C0008FC2B0020104C0008A2
S315080009A00C4C0008DC2B0020E02B0020E42B002058
S315080009B0E82B0020EC2B0020F02B0020F42B002045
S315080009C0392C002064200020002C002004ED00E0D3
S315080009D0F82B0020044C0008004C0008FC4B0008CB
S315080009E0C10400087C4B0008D026002010B582B050
S315080009F00400002910D000AB0222200001F098FD67
S31508000A00BDF80000002803D1032084F8360006E06C
S31508000A10022084F8360002E0022084F8360020001E
S31508000A20FFF732FF13BD10B50400200001F00EFEDB
S31508000A3094F83600400702D42000FFF7B8FE10BD30
S31508000A4080B565480068002802D06348006880477A
S31508000A5001BD624800686249096811EB8000001F01
S31508000A6060490860704780B55F490968002902D067
S31508000A705D490968884701BD80B55C490968002950
S31508000A8002D05A490968884701BD80B5584909689E
S31508000A90002902D056490968884701BD10B40400E8
S31508000AA0019812EB8000001F5FF080720260001F41
S31508000AB00460001F4F4A0260001F5FF01232026096
S31508000AC0001F5FF003320260001F5FF0023202600F
S31508000AD0001F0360001F0160001F5FF011310160F5
S31508000AE0001F5FF010310160001F5FF009310160DF
S31508000AF0001F5FF008310160001F5FF007310160D9
S31508000B00001F5FF006310160001F5FF005310160CC
S31508000B10001F5FF00431016010BC704780B536488D
S31508000B200068002802D034480068804702F07BF944
S31508000B3032490968324A1268914215D02F49096824
S31508000B40D1F89810411A2D4A1268C2F894102B4908
S31508000B500968D1F89C10294A1268D2F894205118CD
S31508000B60264A1268C2F89C1025490968C1F89800F7
S31508000B7001BD80B523480068002802D021480068D6
S31508000B80804701BD10B5002402F0E0F804001E48B5
S31508000B900078401C1C490870200002F0DBF802F0BF
S31508000BA09BF9FFF74BFB10BD401E18490860184813
S31508000BB000680002000A164908601648006850F0E6
S31508000BC00500144908601348006850F002001149EE
S31508000BD00860704700000000E82B0020104C000851
S31508000BE00C4C0008D42B0020DC2B0020E02B002026
S31508000BF0E42B002035230008F02B00201C2C0020B5
S31508000C00202C0020F42B0020322C002014E000E0D9
S31508000C1020ED00E010E000E0002004E000211F4A7B
S31508000C2042F82010401C0028F8D0704710B5002460
S31508000C301A4801E02034001D01680029FAD000682E
S31508000C4002F08FF804192000C0B210BDC0B24209E4
S31508000C50C0B210F01F010120D1F11F018840D2B2A5
S31508000C600E4951F822100843D2B20C4941F8220025
S31508000C707047C0B24209C0B210F01F010120D1F17D
S31508000C801F018840D2B2054951F8221031EA000006
S31508000C90D2B2024941F8220070470000D82B002042
S31508000CA02DE9F04105000F0090461C000026DFF8EC
S31508000CB0F4040078002803D042F6E160208020E0A2
S31508000CC0002D03D145F6C35020801AE002F03EF805
S31508000CD00600DFF8D40428606F60C5F81480002089
S31508000CE0A86115F10800FFF76FFCDFF8C00400885B
S31508000CF0401CDFF8B8140880300002F02BF80020FA
S31508000D002080BDE8F0812DE9F44F8AB004000D007B
S31508000D101E005FF0000A159FDFF888040078002897
S31508000D2004D046F2AE1038800020E2E1002C04D14F
S31508000D3045F6C35038800020DBE1B6B23000401ECD
S31508000D4001281AD9C01E18D0001F16D0F938012854
S31508000D5013D9C01E11D0001F0FD047F6F961401AEB
S31508000D6001280AD9C01E08D0001F06D0F938012864
S31508000D7003D9C01E01D0001F09D12068DFF8281446
S31508000D80884209D1F0050CD55FF001080BE045F65D
S31508000D90256038800020ACE145F6C4503880002034
S31508000DA0A7E15FF00008DDF85090B9F1000F02D016
S31508000DB00020C9F8000016F00F00ADF8040001F095
S31508000DC0C5FF8246BDF80400012800F0B18002285C
S31508000DD000F0F180042802D0082864D02EE160696A
S31508000DE015EA000BAB451AD15FFA88F8B8F1010F7E
S31508000DF003D1606930EA0B006061DFF8B40300686C
S31508000E00C0F884B0B9F1000F02D0A069C9F8000093
S31508000E10504601F09FFF00203880584669E13004AB
S31508000E2007D5504601F096FF46F2B01038800020EC
S31508000E305FE1DFF880030078002807D0504601F00C
S31508000E4089FF46F663503880002052E10A980090E0
S31508000E5033009BB22A00210002A800F089F9504607
S31508000E6001F078FFFFF74EFA01F070FF8246DFF8CF
S31508000E704003006890F83500002808D0022800F0E2
S31508000E800181C0F0E380032800F0EF8009E1B9F1A1
S31508000E90000F05D0DFF818030068006CC9F80000D9
S31508000EA00020388003E1606915EA000BBBF1000FEA
S31508000EB01AD05FFA88F8B8F1010F03D1606930EAF1
S31508000EC00B006061DFF8E8020068C0F884B0B9F189
S31508000ED0000F02D0A069C9F80000504601F03AFF99
S31508000EE000203880584604E1300407D5504601F002
S31508000EF031FF46F2B01038800020FAE0DFF8B4027D
S31508000F000078002807D0504601F024FF46F66350C3
S31508000F1038800020EDE00A98009033009BB22A0042
S31508000F20210002A800F024F9504601F013FF99E7C2
S31508000F30606935EA000BAB451AD15FFA88F8B8F153
S31508000F40010F03D160695BEA00006061DFF86002A7
S31508000F500068C0F884B0B9F1000F02D0A069C9F8DA
S31508000F600000504601F0F6FE002038805846C0E0E2
S31508000F70300407D5504601F0EDFE46F2B010388031
S31508000F800020B6E08B480078002807D0504601F0CC
S31508000F90E1FE46F6635038800020AAE00A980090E1
S31508000FA033009BB22A00210002A800F0E1F850465F
S31508000FB001F0D0FE56E7606935EA000BBBF1000F79
S31508000FC019D05FFA88F8B8F1010F03D160695BEAB6
S31508000FD00000606176480068C0F884B0B9F1000F77
S31508000FE002D0A069C9F80000504601F0B3FE0020FF
S31508000FF0388058467DE0300407D5504601F0AAFEF1
S3150800100046F2B0103880002073E06A48007800285D
S3150800101007D0504601F09EFE46F663503880002001
S3150800102067E00A98009033009BB22A00210002A8C4
S3150800103000F09EF8504601F08DFE13E7504601F089
S3150800104089FE45F625603880002052E0B9F1000F88
S3150800105004D057480068006CC9F80000504601F0F3
S3150800106079FE46F2A910388021E0B9F1000F02D0C6
S315080010700020C9F80000504601F06CFE47F2D9205E
S31508001080388014E0B9F1000F04D049480068006CB4
S31508001090C9F80000504601F05DFE45F6C25038809A
S315080010A005E0504601F056FE46F62E603880388830
S315080010B0002801D000201CE03D480068D0F884B024
S315080010C05FFA88F8B8F1010F0DD1BDF804000128C0
S315080010D012D0022810D0042801D0082811D160693E
S315080010E030EA0B006061504601F034FE002038807B
S315080010F058460BB0BDE8F08F60695BEA0000606196
S31508001100F1E7504601F026FE45F6256038800020B6
S31508001110EFE7F8B505000E0017001C00002D04D1F6
S3150800112045F6C3502080002017E0BFB238000028DB
S31508001130012804D94FF40041401A01280ED828681E
S31508001140194988420FD101F06EFE030000943A0057
S3150800115092B23100280000F02FF8F2BD45F625605E
S3150800116020800020F9E745F6C45020800020F4E7E7
S3150800117010B50F4C2468C4F880200D4A1268A2F8EE
S31508001180883000220A4B1B68C3F88420029B012280
S31508001190FFF7D0F910BD0021044A11800021018013
S315080011A070470000322C0020464C4147242C002072
S315080011B01C2C0020372C00202DE9F8430600894610
S315080011C017009846002501F0C1FD0500089CBFB22E
S315080011D03800002809D0012819D0B0F5004F04D0EE
S315080011E048F20101884212D016E0706959EA0000F7
S315080011F07061C6F8188016F108000189002913D114
S31508001200280001F0A7FD00202080706970E0706951
S3150800121030EA09007061ECE7280001F09BFD45F60D
S3150800122025602080002063E0D0F80090D9F80800F7
S3150800123001E0D9F80800002849D0D9F8049090F8B8
S31508001240881011F00F0189B2012920D002292BD06C
S31508001250042902D0082910D031E07169D0F880201D
S315080012601140D0F88020914202D1424600F042F85F
S31508001270B9F1000FDDD10020DDE77169D0F88020D3
S315080012801140002902D0424600F034F8F0E77169AF
S31508001290D0F8802032EA0101D0F88020914202D1AC
S315080012A0424600F027F8E3E77169D0F8802032EA71
S315080012B00101002902D0424600F01CF8D8E72800B0
S315080012C001F048FD43F6FF202080002010E02800AA
S315080012D001F040FD380401D4FFF714F801F036FD9B
S315080012E005007669280001F035FD002020803000D1
S315080012F0BDE8F28310B50400C4F88410002084F811
S315080013003500002084F83400226494F8360000285A
S315080013100BD002280AD008D3042806D006D30628FC
S315080013200BD002D3072808D00BE00AE02000FFF70D
S315080013307AFB002084F8360003E0042084F836009F
S31508001340FFE72000FFF77EF910BD10B450F8041B24
S3150800135081B102681218001D50F8043BDC0744BF2F
S31508001360A9F10104E31852F8044B43F8044B091F8A
S31508001370F9D1EBE710BC70472DE9F84305000E00DC
S31508001380170098460020DDF8249058490978002966
S3150800139004D045F2B960A9F8000053E0002F04D143
S315080013A045F2BB60A9F800004CE01FFA88F8B8F1CE
S315080013B0020F04DA45F2BC60A9F8000042E0089C76
S315080013C0A4B2042C04D245F2C160A9F8000039E0A1
S315080013D0032000280FD0074204D045F2BB60A9F8C5
S315080013E000002FE0210089B2014204D045F2C16015
S315080013F0A9F8000026E03B003A00B8F101010020F8
S3150800140004E0A4B2A2181A601300401C80B289B284
S315080014108842F6D30020186001F098FC3449296008
S31508001420AE606F60EF60A5F81480A5F812802C8274
S3150800143030490988491C2F4A118001F08BFC00208D
S31508001440A9F80000BDE8F18370B505000C0000207E
S31508001450002D04D145F2BF602080002016E001F07F
S3150800146075FCA98A002906D101F074FC45F2C26010
S31508001470208000200AE0EE683168E960A98A491EE2
S31508001480A98201F067FC00202080300070BD70B58D
S3150800149005000E0014000020002D03D145F2BF60A0
S315080014A020801BE0002E03D145F2BE60208015E0A7
S315080014B001F04CFCA98A6A8A914205D301F04AFCDC
S315080014C045F2BA60208009E0E9683160EE60A98AD1
S315080014D0491CA98201F03EFC0020208070BD002135
S315080014E0044A11800021018070470000322C002038
S315080014F04D454D20262C002030B47B49096800292B
S3150800150003D145F21E71018037E078490988002920
S3150800151003D145F21D7101802FE073490968724AAB
S3150800152012681032714B1B885C1E002309E00A60A2
S3150800153000254D6000250D810025CD601031103243
S315080015405B1C9BB2A4B2A342F1D300220A6000221C
S315080015504A6000220A810022CA6063490968644A0F
S31508001560116062490988624A91800021604AD180E7
S3150800157000215F4A11810021018030BC70474189F2
S315080015804289002A1AD00268594B1B6813604268C0
S31508001590574B1A60564AD2884389D21A544BDA8076
S315080015A0534A928843899A18514B9A80002242815D
S315080015B0002282810022026000224260080080B276
S315080015C0704701810021418100218181002101604C
S315080015D000214160704770B44489002C0AD100206C
S315080015E00880002A01D00020106046F29250188028
S315080015F0002026E045686C682E890E80002A01D0F6
S31508001600E9681160296841604168002904D1002110
S3150800161001600021418102E04189491E4181344827
S31508001620006828603248056031488088401C304987
S3150800163088802F48C088401E2D49C8800020188001
S31508001640200070BC7047F0B4059C45890689B542F0
S3150800165003D346F29350208044E0254DAD88002DF3
S3150800166003D145F21D7020803CE0214D2D682E687F
S315080016701F4F3E601E4EB688761E1D4FBE801C4EFE
S31508001680F688761C1A4FFE80194E3689184FFF8841
S31508001690BE4203D2164EF688154F3E814689002E65
S315080016A006D1056045600123438100232B600DE0C8
S315080016B0DB0605D403681D60056000232B6002E085
S315080016C043682B60456043895B1C4381838946894F
S315080016D0B34201D24389838169602A810498E8600C
S315080016E000202080F0BC70471C4C00081E33000800
S315080016F0C42B00200021024A118000210180704776
S31508001700282C00202DE9F04106000F0090461C0009
S315080017100025DFF8BC020078002803D042F6E16015
S3150800172020802BE0002E03D145F6C350208025E00B
S315080017301FFA88F8B8F1000F03D146F294502080BA
S315080017401CE001F003FB0500DFF8880230607760D3
S31508001750414689B216F11400FFF733FF16F1080067
S31508001760FEF732FFDFF870020088401CDFF86812C7
S315080017700880280001F0EEFA00202080BDE8F081FC
S315080017802DE9F04F89B004000D0016001F005FF028
S315080017900008DDF84C908E480078002805D046F2FF
S315080017A0AE10A9F800000020C6E0002C05D145F6C9
S315080017B0C350A9F800000020BEE0002F05D146F26C
S315080017C0D520A9F800000020B6E0B6B230000028FF
S315080017D002D0B0F5004F1FD120687E49884221D13A
S315080017E0DDF848A0BAF1000F02D00020CAF80000C0
S315080017F001F0ACFA80464B465246390014F1140003
S31508001800FFF7E9FE8346B9F80000002810D14046E4
S3150800181001F0A0FA58468FE045F62560A9F80000C1
S31508001820002089E045F6C450A9F80000002083E0AE
S31508001830300408D5404601F08DFA46F2B010A9F8F2
S315080018400000002078E065480078002808D0404667
S3150800185001F080FA46F66350A9F8000000206BE014
S315080018602B000522210000A8FEF764FE404601F081
S3150800187071FAFEF747FD01F069FA80465848006894
S3150800188090F83500002805D0022838D017D3032849
S3150800189026D045E052480068D0F85CB05048006849
S315080018A0B0F860003880BAF1000F04D04C480068E0
S315080018B0006CCAF800000020A9F8000038E05FF0C4
S315080018C0000B00203880BAF1000F04D044480068A5
S315080018D0006CCAF8000046F2A910A9F8000027E033
S315080018E05FF0000B00203880BAF1000F02D000200C
S315080018F0CAF8000047F2D920A9F8000018E05FF0FE
S31508001900000B00203880BAF1000F04D03448006874
S31508001910006CCAF8000045F6C250A9F8000007E0B6
S315080019205FF0000B0020388046F62E60A9F800000C
S31508001930404601F00FFA584609B0BDE8F08F2DE988
S31508001940FC4105000E0017009846089C002D03D19F
S3150800195045F6C35020802AE01FFA88F8404600283A
S3150800196015D0102813D0B0F5007F10D0B0F5047F3D
S315080019700DD0B0F5004F0AD048F21001884206D0C3
S31508001980B0F5024F03D048F21021884211D12868D9
S315080019901049884211D101F046FA01940090434655
S315080019A09BB23A0092B23100280000F01BF8BDE85D
S315080019B0F38145F625602080F9E745F6C450208076
S315080019C0F5E70021044A11800021018070470000D4
S315080019D0322C0020515545552A2C0020372C002042
S315080019E01C2C00202DE9F04F83B004000D001600D2
S315080019F01F005FF0000A01F0A9F9824614F10800F9
S31508001A00DDF83080DDF834900189002914D1F80614
S31508001A1001D4002300E01023CDF80490CDF800800F
S31508001A209BB2320092B2290014F11400FFF70BFEA4
S31508001A30504601F08FF925E0B90502D5B0F808B08F
S31508001A4001E05FF0010B00680DE0816840680190D5
S31508001A50CDF8008033009BB22A002000FEF72AFE4C
S31508001A600198BBF1010B1FFA8BFBBBF1000FECD100
S31508001A70504601F06FF9380401D4FEF743FC002004
S31508001A80A9F80000BDE8F78F2DE9F04105000E0022
S31508001A9090461C000027DFF838020078002803D09B
S31508001AA042F6E160208020E0002D03D145F6C350C0
S31508001AB020801AE001F04AF90700DFF818022860CA
S31508001AC0C5F814800020A8616E6015F10800FEF7BD
S31508001AD07BFDDFF804020088401CDFF8FC11088053
S31508001AE0380001F037F900202080BDE8F0812DE9A3
S31508001AF0F04389B006000F00914698460024109DD1
S31508001B0073480078002804D046F2AE1028800020DA
S31508001B107AE0002E04D145F6C3502880002073E0F1
S31508001B201FFA89F94846002802D0B0F5004F20D19F
S31508001B3030686849884221D1B8F1000F02D00020E8
S31508001B40C8F8000001F002F90400706900281AD0EC
S31508001B507069401E7061B8F1000F02D0B069C8F80C
S31508001B6000007669200001F0F5F800202880300092
S31508001B704AE045F625602880002045E045F6C45031
S31508001B802880002040E05FEA094008D576692000F1
S31508001B9001F0E0F846F2B0102880300034E04F48F3
S31508001BA00078002807D0200001F0D4F846F66350E4
S31508001BB02880002028E03B000622310000A8FEF716
S31508001BC0B9FC200001F0C6F8FEF79CFB01F0BEF850
S31508001BD004004348006890F83500002805D002281C
S31508001BE02BD014D303281ED033E0B8F1000F04D04D
S31508001BF03B480068006CC8F8000000202880766919
S31508001C00200001F0A7F8300009B0BDE8F083B8F16C
S31508001C10000F04D032480068006CC8F8000046F28D
S31508001C20A9102880EBE7B8F1000F02D00020C8F809
S31508001C30000047F2D9202880E1E7B8F1000F04D068
S31508001C4027480068006CC8F8000045F6C25028808E
S31508001C50D5E746F62E602880200001F07BF80020A4
S31508001C60D2E770B505000E001400002D04D145F624
S31508001C70C3502080002019E0B6B23000002808D0F2
S31508001C80B0F5007F05D0B0F5004F02D0B0F5024F91
S31508001C900DD128680F4988420ED101F0C4F8020018
S31508001CA02300310089B2280000F01CF870BD45F603
S31508001CB0256020800020F9E745F6C45020800020E2
S31508001CC0F4E70021044A11800021018070470000D2
S31508001CD0322C002053454D412C2C0020372C002057
S31508001CE01C2C00202DE9F04782B004000D001600D8
S31508001CF01F005FF0000801F029F8804614F108007B
S31508001D000189002918D1606910F1010F07D14046F1
S31508001D1001F020F846F6C5503880002033E06069A7
S31508001D20401C6061D4F81490A661404601F012F890
S31508001D3000203880484626E0A90502D5B0F8089064
S31508001D4001E05FF00109D0F800A00BE0DAF808100E
S31508001D50DAF804A00096002300222000FEF7AAFC69
S31508001D60B9F101091FFA89F9B9F1000FEED1D4F8D2
S31508001D701490404600F0EEFF280401D4FEF7C2FA9C
S31508001D80002038804846BDE8F68750F8041B61B144
S31508001D9050F8042BD30744BFA9F101039A1800236E
S31508001DA042F8043B091FFAD1EFE770472DE9F24FD5
S31508001DB082B00600170098460024149DDFF86C05CB
S31508001DC00078002803D047F24A102880A7E0002EA2
S31508001DD003D147F2AD102880A1E03800002803D1CE
S31508001DE047F24F1028809AE0DDF83490B9F1000FD9
S31508001DF003D146F62F60288091E0DDF83CA0DFF895
S31508001E0048050068824503D246F63060288086E099
S31508001E10DDF838B0D34503D346F6316028807EE036
S31508001E200C9CE4B2202C03D346F27320288076E07B
S31508001E30E4B21F2C07D1DFF81405864203D046F218
S31508001E40732028806BE0300000F0EBF90020288032
S31508001E50139DE8070AD5A80708D54846002103E0D8
S31508001E6000220260001D491C5145F9D319EB8B0B62
S31508001E70ADB20195CDF800A05B464A46414638000A
S31508001E80FEF70CFEB762C6F82C800299316286F816
S31508001E9037403060C6F808B011987065002804D13C
S31508001EA0DFF8AC040068B06500E0B06512987060B1
S31508001EB0C6F82490C6F838A0B587002005E00021AA
S31508001EC0C0B216EB8002D167401CC0B20028F6D01B
S31508001ED0109916F16400FFF774FB3000FEF7C3FD96
S31508001EE000F034FF040096F83700FEF7AFFE300026
S31508001EF0FEF78EFCDFF830050088401CDFF8281551
S31508001F000880DFF828050078012803D0200000F0B3
S31508001F1021FF04E0200000F01DFFFEF7F3F9BDE8FD
S31508001F20F78FF8B505000C000026DFF800040078E6
S31508001F30002803D047F24E10208044E0DFF80C0456
S31508001F40854203D147F24C1020803CE0002D08D191
S31508001F5000F0FCFE0600DFF8D8030568300000F044
S31508001F60F9FE00F0F3FE060095F8360000280BD0BF
S31508001F7002282ED029D3042826D02AD3062828D0EA
S31508001F8023D3072825D03AE02800FEF77DFC15F173
S31508001F906400FFF7F4FA07002800FEF76DFDDFF886
S31508001FA088040088401EDFF880140880280000F0A6
S31508001FB038F9FF2085F83600300000F0CBFE002007
S31508001FC02080FEF79FF9F1BDE1E7280000F03EFB0F
S31508001FD0DDE7280000F03AFB95F83400002808D021
S31508001FE0401E07D0401E04D0401E032802D9001FF9
S31508001FF004D103E02800FEF725FBFFE7C7E730001A
S3150800200000F0A8FE46F62D602080DCE72DE9F041B9
S315080020100700884616001C000025DFF81003007824
S31508002020002804D046F2AE1020800020D2E01FFA25
S3150800203088F84046002802D0B0F5004F49D1002E56
S3150800204001D00020306000F081FE0500DFF8E003D3
S315080020500068406C002841D0DFF8D4030068406C63
S31508002060401EDFF8CC1309684864DFF8C40300682B
S31508002070476C002E04D0DFF8B8030068006C3060A7
S3150800208000F0D1FEDFF8A8130968096C401ADFF8DA
S31508002090A0130968C1F8A400DFF894030068D0F813
S315080020A0A800DFF88C130968D1F8A410884209D271
S315080020B0DFF87C030068D0F8A400DFF87413096819
S315080020C0C1F8A800280000F045FE0020208038004E
S315080020D080E045F62560208000207BE05FEA084026
S315080020E007D5280000F036FE46F2B0102080002002
S315080020F070E0DFF840030078002807D0280000F0D9
S3150800210029FE46F663502080002063E03B00072244
S3150800211000210020FEF70EFA280000F01BFEFEF74D
S31508002120F1F800F013FE0500DFF80403006890F8E4
S315080021303500002804D001282ED0032837D03EE0E9
S31508002140002E26D0DFF8E8020068006C306000F048
S315080021506AFEDFF8DC120968096C401ADFF8D0124B
S315080021600968C1F8A400DFF8C8020068D0F8A8001A
S31508002170DFF8BC120968D1F8A410884209D2DFF842
S31508002180B0020068D0F8A400DFF8A4120968C1F804
S31508002190A8000020208015E0002E04D0DFF8900269
S315080021A00068006C306046F2A91020800AE0002E14
S315080021B001D00020306047F2D920208002E046F6A0
S315080021C02E602080DFF868020068476C280000F05F
S315080021D0C1FD3800BDE8F08170B504000D00160099
S315080021E0ADB22800002802D0B0F5004F09D100F0A2
S315080021F01AFE02003300290089B2200000F0AAF86E
S3150800220003E045F625603080002070BD0021DFF828
S31508002210182211800021DFF8202211600021018098
S31508002220704710B50400002020600020A060002040
S3150800223060600020E06000202061002060610020CE
S31508002240A0610020E061DFF8F401206200206062EE
S315080022500020A0620020E062002020630020E087C2
S31508002260002020640020E0650020A4F8600000211A
S3150800227014F16400FFF7A5F9002060670020A06745
S315080022800020C4F880000020A4F888000020C4F8C4
S315080022908400002005E00021C0B214EB8002D1675B
S315080022A0401CC0B20028F6D0002060640020C4F8A4
S315080022B0A4000020C4F8A8000020A063002084F829
S315080022C08A000020C4F8B0000020C4F8AC00002042
S315080022D0A0875FF00040A0640020E064002020652D
S315080022E0002060650020A0650020A4F88C0000206E
S315080022F0A4F88E000020C4F890000020C4F89400CA
S3150800230000F091FDC4F898000020C4F89C00002055
S3150800231084F83400002084F83500002084F836005C
S31508002320202084F8370010BD00000000322C002061
S315080023301C2C002080B53E480068FEF7A6FB00A9C5
S315080023400020FFF7EEFD01BD204C0008D026002036
S31508002350FC2B00202DE9F04182B007000C009046C6
S315080023601E00002500F0F2FC0500002F01D13048C0
S315080023700768C7F840800020308097F836000028A4
S315080023800BD002281DD008D3042806D019D3062856
S3150800239017D002D3072814D03CE0786C10F1010F4F
S315080023A007D1280000F0D6FC46F6C550308000203C
S315080023B038E0786C401C78647E6C280000F0CAFC13
S315080023C02FE097F83400072810D1CDF800800023B5
S315080023D0002239000020FEF76DF97E6C280000F017
S315080023E0B9FC200415D4FDF78DFF12E0786C10F1C6
S315080023F0010F07D1280000F0ADFC46F6C550308025
S3150800240000200FE0786C401C78647E6C280000F091
S31508002410A1FC06E0280000F09DFC46F62D60308001
S3150800242000263000BDE8F6812E2C0020332C002033
S315080024301C2C0020372C0020002C0020F44B000810
S3150800244000B583B000AB01AA00210020FFF7DEFD2E
S31508002450BDF800100029F5D1DFF8C403007801287B
S31508002460F0D100F014F9EDE710B58AB004000020A9
S31508002470DFF8B01308600020DFF8AC13086000F03E
S3150800248042F8DFF8A8030068002803D147F21220B3
S31508002490208036E0DFF898030068DFF898130968AB
S315080024A0884203D247F2132020802AE0DFF8880307
S315080024B000781F2803D347F21120208021E00894D2
S315080024C00B2007900020069000200590002004901D
S315080024D0DFF85C0300680390DFF860030068029089
S315080024E0DFF8480300680190DFF84C030078009095
S315080024F00023DFF84C23DFF84C13DFF84C03FFF713
S3150800250055FC0AB010BD00200BE080B2DFF83C1382
S3150800251011EBC00100220A6000228A800022CA80CC
S31508002520401CDFF82C13098880B28842EDD3704727
S3150800253030B492B2042A29D1BA4A12688A1A521EAB
S31508002540C44CA24209D30021C164002101650021BF
S31508002550C16147F27E20188076E0C164511C01658E
S31508002560C16CBB4A1288B1FBF2F402FB141189B2A2
S31508002570B64A12EBC1018A88002A32D1002242618A
S3150800258000228261086001228A8054E000291ED058
S3150800259092B2082A15D1826C8C18A24A1268A21A1D
S315080025A0521E8A4201D2C46403E09E4A1268891800
S315080025B0C164C16C9B4A1268891A0165C16C816441
S315080025C0CEE7984A12688A18C2640165C8E70021EE
S315080025D0C164002101650021C16147F27E2018808F
S315080025E032E00A6805E0946984614261606190613D
S315080025F00022002A1CD0D46C8A4D2D68641B1465F1
S31508002600146D056DAC420AD25469002C01D052698A
S31508002610EFE700244461826150610022E9E794698A
S31508002620002CE0D100248461426190610860DFE7F4
S315080026308A88521C8A80CA888C88A24201D28A88D3
S31508002640CA80C1610020188030BC7047C169002962
S315080026501CD0002202650A68824206D142690A60D5
S31508002660002A08D00023936105E082694369536113
S31508002670002B00D09A61002242610022826100226A
S31508002680C2610022C2648888401E888070472DE98E
S31508002690F041002400F05AFB040000F0C4FB0500DA
S315080026A060480068401C5F4908605E4800686849E1
S315080026B00988B0FBF1F201FB120080B2634911EB05
S315080026C0C000D0F80080002600E0B846F6B2002E1A
S315080026D040F09780B8F1000F00F09180D8F8147098
S315080026E098F8360000280BD0022809D009D3042808
S315080026F006D01CD3062803D042D3072856D0E4E7D1
S31508002700E3E7D8F84C0047490968401AC8F850006A
S3150800271044480068D8F84C10884206D1002088F84A
S3150800272036004046FEF77FF900E00126CDE7D8F8E7
S315080027304C003C490968401AC8F8500039480068F6
S31508002740D8F84C10884219D10020C8F85C0000203F
S31508002750A8F8600000F067FBC8F840004046FDF79F
S3150800276071FF4046FEF75FF9002088F8360003201F
S3150800277088F83500002088F8340000E00126A4E730
S31508002780D8F84C0027490968401AC8F85000254867
S315080027900068D8F84C10884206D1042088F836001C
S315080027A04046FFF753FF00E001268EE7D8F84C00B5
S315080027B01C490968401AC8F850001A480068D8F831
S315080027C04C10884219D10020C8F85C000020A8F8EF
S315080027D0600000F028FBC8F840004046FDF732FFCD
S315080027E04046FFF733FF042088F83600032088F8B0
S315080027F03500002088F8340000E0012665E7012648
S3150800280064E700F010FB401B07490968814201D2C2
S3150800281005490860200000F09DFABDE8F081000037
S31508002820332C0020042C0020082C0020284C0008FB
S31508002830304C0008204C00084E4B00082C4C000871
S3150800284041240008904B000884270020EC2800202B
S315080028504E3B00080100FFFF2DE9F84306000F0074
S315080028609046994600200B9DDFF8E4130978002965
S3150800287003D047F24330288038E0002E03D145F6CE
S31508002880C350288032E0089CA4B2200001282FD02B
S31508002890022835D1B9F1000F03D147F2403028801C
S315080028A024E000F053FA012186F82A10DFF8A41371
S315080028B031607760C6F820800021B1610021F1619E
S315080028C0C6F8249034850999B1600A99F160002107
S315080028D0316100217161DFF880130988491CDFF82E
S315080028E07823118000F036FA00202880BDE8F183AD
S315080028F0B8F1000F03D147F23F302880F6E7D0E75A
S3150800290045F625602880F1E738B505000C00DFF8A4
S3150800291040030078002804D047F243302080002086
S3150800292046E0002D04D147F24230208000203FE0E7
S315080029302868DFF82013884204D045F6C450208062
S31508002940002035E000A8FDF724FD95F82A000028A8
S315080029501ED0022803D010D303280ED020E028006A
S3150800296000F0F9F80021280000F08DF800A8FDF71E
S315080029703CFD00202080012019E00021280000F0FD
S3150800298082F800A8FDF731FD0020208001200EE026
S3150800299000A8FDF72AFD47F23D302080002006E01A
S315080029A000A8FDF722FD47F2413020800020C0B282
S315080029B032BD00B589B0AA490968002908D0A949D5
S315080029C00968A74A1268B1FBF2F1A74A116006E046
S315080029D0A44909680A22B1FBF2F1A34A1160A24987
S315080029E00968A24A116000219C4A11600021A04A88
S315080029F0116000210AE089B29E4A12EBC102002347
S31508002A0093800023D38000231360491C9A4A1288B6
S31508002A1089B29142EFD399490968002903D147F24F
S31508002A20473101802DE096490968964A1268914215
S31508002A3003D247F24831018023E0934909781F29D8
S31508002A4003D347F2463101801BE008900B2007901C
S31508002A500020069000200590002004908848006811
S31508002A6003908A4800680290844800680190864866
S31508002A700078009000230FF22D1285498548FFF74C
S31508002A8095F909B000BD10B4022280F82A2089B24F
S31508002A90012905D1416A714A1268511881610DE010
S31508002AA0016A002905D1416A6C4A12685118816188
S31508002AB004E0016A694A12685118816181696E4A9F
S31508002AC01288B1FBF2F302FB131189B2694A12EBC1
S31508002AD0C1010A68002A07D1002202610022426168
S31508002AE00860012088802EE082695C4B1B68D21A38
S31508002AF0C2610B6805E05A69426103611061586159
S31508002B000023002B1CD09A69544C2468121BDA61E6
S31508002B10DA69C469A2420AD21A69002A01D01B6975
S31508002B20EFE700220261436118610023E9E75A6969
S31508002B30002AE0D100224261036158610860DFE79C
S31508002B408888401C8880C8888A88904201D28888EC
S31508002B50C88010BC70478169474A1288B1FBF2F3F6
S31508002B6002FB131189B2434A12EBC1010A68824279
S31508002B7006D102690A60002A08D00023536105E0DD
S31508002B80426903691361002B00D05A61012280F85B
S31508002B902A2000220261002242618888401E88801D
S31508002BA070470000F0B583B00BE000F03CF9041B59
S31508002BB000A8FDF71AFC2E480068A04201D22C484E
S31508002BC0046000AB01AA00210020FFF71FFA0500E8
S31508002BD000A8FDF7DEFB00F026F904001F48006890
S31508002BE0401C1E4908601D48006823490988B0FB37
S31508002BF0F1F201FB120080B21E4911EBC000066813
S31508002C00002700E00127FFB2002FCED1002EF9D011
S31508002C10356912480068B169884216D13000FFF755
S31508002C209AFF308D022804D101213000FFF72BFFCF
S31508002C3002E0032086F82A00B2681000002802D0B5
S31508002C40F168300090472E00DDE70127DBE700003A
S31508002C50322C0020544D5220302C0020102C0020FD
S31508002C603C4C0008244C0008142C0020182C00208A
S31508002C700C2C002074290020424B0008404C000808
S31508002C80484C0008204C00084F4B0008444C0008EC
S31508002C90644B0008382800200E480F480F48104893
S31508002CA01048114811481248124813481348144846
S31508002CB01448154815481648164817481748184816
S31508002CC01848194819481A481A481B481B481C48E6
S31508002CD0704700BF544C0008FC4B0008004C000825
S31508002CE0044C0008084C00080C4C0008104C00085E
S31508002CF0144C00081E330008184C00081C4C000829
S31508002D00204C0008244C00084E4B0008284C0008AC
S31508002D102C4C0008304C0008344C00084E3B000888
S31508002D20384C00084F4B00083C4C0008404C000843
S31508002D30444C0008484C00084C4C0008424B00081C
S31508002D40504C000872B6704762B67047EFF31080B1
S31508002D5072B6704780F31088704730BF704720BF3F
S31508002D607047B0FA80F0704790FAA0F0B0FA80F099
S31508002D70704790FAA0F070471748FF2101700020AD
S31508002D8080F309881548016881F3088814481549AD
S31508002D90016062B6FEE772B6EFF3098028B1203803
S31508002DA080E8F00F10490968086000B50F488047A9
S31508002DB05DF804EB0E480F490A7802700A480E4976
S31508002DC00A680260106890E8F00F203080F30988DE
S31508002DD04EF0040E62B6704722ED00E0D42B0020B8
S31508002DE004ED00E0000000101C2C00201D0B00085C
S31508002DF0342C0020352C0020202C002080B50B48D0
S31508002E00006850F080700949086000200849086089
S31508002E100848006850F001000649086000F077FA93
S31508002E2000F091FA01BD024800687047FCED00E029
S31508002E30041000E0001000E0F8B505000E001400CC
S31508002E400027DFF8E0000078002803D047F2752055
S31508002E50208040E0DFF8D0000078002803D046F64E
S31508002E606350208037E0B6B23000002805D002282B
S31508002E7003D004281FD008281ED1002D03D147F2FD
S31508002E807E20208027E0FFF761FF07000120DFF89A
S31508002E909C10096881F836002300320092B2290096
S31508002EA022480068FFF744FB2088002808D038002D
S31508002EB0FFF750FF0FE0E6E745F6256020800AE0B9
S31508002EC01A480068FDF7E0FC3800FFF743FFFDF7F6
S31508002ED019FA00202080F1BD10B582B0FDF749FE31
S31508002EE000AA00211248FFF777F904001148007874
S31508002EF00C21114A01FB0020FDF7F4FC0F4800687D
S31508002F00401E0E4908600D480068002808D10C4884
S31508002F1000680A49086000AA00210A48FFF75CF918
S31508002F2013BD0000322C0020372C00201C2C00205A
S31508002F3084270020342C002064200020182C002030
S31508002F40142C00203828002080B5022000F00EFA44
S31508002F50102000F017FA00F0C9FA5FF4601100209B
S31508002F6000F0F4FA012000F0FCFA022000F0FDFA65
S31508002F70002000F004FB4FF4806000F00AFB0020FC
S31508002F8000F011FB392000F09DFB0028FAD0012043
S31508002F9000F014FB612000F095FB0028FAD001210F
S31508002FA0042000F06FFB0121082000F06BFB0121D3
S31508002FB0102000F067FB0121012000F063FB0121CE
S31508002FC04FF4804000F05EFB01215FF4003000F012
S31508002FD069FB01215FF4802000F064FB00F005F82E
S31508002FE000F052F900F0B6F801BDE0B54FF6FF70F3
S31508002FF0ADF8000010208DF8030003208DF80200BC
S3150800300000A99B4800F09EFB00A99A4800F09AFB8D
S315080030104FF6FF71964800F007FC4FF6FF7195488A
S3150800302000F002FC4FF48060ADF8000004208DF833
S31508003030030000A98E4800F085FB4FF40070ADF838
S31508003040000003208DF8020018208DF8030000A95F
S31508003050874800F077FB0820ADF8000004208DF8BB
S31508003060030000A9824800F06DFB0420ADF80000BB
S3150800307003208DF8020018208DF8030000A97C486B
S3150800308000F060FB4FF40060ADF8000004208DF8F6
S31508003090030000A9774800F055FB4FF48060ADF8AF
S315080030A0000003208DF8020018208DF8030000A9FF
S315080030B0704800F047FB48F2F300ADF80000102016
S315080030C08DF8030003208DF8020000A9684800F077
S315080030D039FB0121684800F0AAFB48F2130164484D
S315080030E000F0A2FBE021624800F09BFB3F20ADF810
S315080030F0000010208DF8030003208DF8020000A9B7
S315080031005C4800F01FFB3E215A4800F08DFB012168
S31508003110584800F086FB4FF48050ADF80000482070
S315080031208DF8030000A9524800F00CFB0C21002082
S3150800313000F0BCFB4FF48050019000208DF8080089
S315080031400C208DF8090001208DF80A0001A800F06E
S31508003150DBFB07BD00B585B04FF4166000904FF451
S315080031608050ADF804004FF48060ADF808000020E8
S31508003170ADF806000C20ADF80A000020ADF80C00EA
S3150800318000A93E4800F024FC01213C4800F082FCDE
S31508003190002240F22661394800F08AFC002240F2FB
S315080031A02771364800F084FC012240F22551334845
S315080031B000F07EFC4FF4166000904FF48050ADF896
S315080031C004004FF48060ADF808000020ADF8060052
S315080031D00C20ADF80A000020ADF80C0000A928481C
S315080031E000F0F6FB0121264800F054FC002240F2CC
S315080031F02661234800F05CFC002240F22771204833
S3150800320000F056FC012240F225511D4800F050FC02
S315080032104FF4166000904FF48050ADF804004FF458
S315080032208060ADF808000020ADF806000C20ADF867
S315080032300A000020ADF80C0000A9124800F0C8FBEF
S315080032400121104800F026FC002240F226610D48B4
S3150800325000F02EFC002240F227710A4800F028FCF4
S31508003260012240F22551074800F022FC05B000BDB6
S3150800327000080140000C01400002300000380140FF
S31508003280004400400048004080B54FF4E06000F07C
S315080032905FFC25208DF8000000208DF80200012033
S315080032A08DF8030000A800F058FC27208DF80000D0
S315080032B001208DF8020001208DF8030000A800F017
S315080032C04CFC26208DF8000002208DF80200012013
S315080032D08DF8030000A800F040FC28208DF80000B7
S315080032E003208DF8020001208DF8030000A800F0E5
S315080032F034FC01BD80B545F2555000F069FC032049
S3150800330000F06AFC00F06CFC00F06FFC01BD00B533
S3150800331085B000A800F056F9019805B000BD640014
S3150800332080B500F017F800F011F801BD10B50024BB
S31508003330FFF70CFD040010210A4800F05FFC20008E
S31508003340FFF708FD10BD08490860704780B5FFF70C
S31508003350EDFF01BD80B5002003490860FFF74EFD6B
S3150800336001BD0000B42B0020D02B00200021DFF87F
S3150800337034211268110011F038010143DFF82401E5
S3150800338001607047DFF81C11096831F01001DFF899
S3150800339014211160DFF80C1109680843DFF80411DD
S315080033A008607047DFF80001DFF800110860DFF8F1
S315080033B00001DFF8F81008607047DFF8F8000068C9
S315080033C050F08000DFF8EC100860704738B504004C
S315080033D004255FF4302000F073F80500EDB2042DE3
S315080033E020D1DFF8D000006850F00200DFF8C410E2
S315080033F00860DFF8C4000460DFF8B800006850F021
S315080034004000DFF8B01008605FF4302000F058F88C
S315080034100500DFF8A000006841F6FD710840DFF8F6
S31508003420941008602800C0B232BD70B504000D00C3
S3150800343004264FF4005000F043F80600F6B2042EB6
S3150800344016D1DFF87000006850F00100DFF864104C
S31508003450086025804FF4005000F032F80600DFF8C7
S315080034605400006841F6FE710840DFF8481008600D
S315080034703000C0B270BD042010490968C90701D5DB
S3150800348001200CE00D480068400701D5022006E03F
S315080034900A480068C00601D5032000E00420C0B22F
S315080034A070470000002002402301674504200240BF
S315080034B0AB89EFCD10200240142002400C200240B8
S315080034C038B504000425FFF7D6FF050003E0FFF72B
S315080034D0D2FF0500641EEDB2012D01D1002CF6D1F4
S315080034E0002C00D105252800C0B232BDDFF818022D
S315080034F0006850F00100DFF810120860DFF80C02CF
S315080035000068DFF80C120840DFF800120860DFF8E0
S31508003510F8010068DFF8FC110840DFF8EC110860D4
S31508003520DFF8E401006830F48020DFF8DC11086079
S31508003530DFF8D801006830F4FE00DFF8D011086023
S315080035405FF41F00DFF8D0110860704700226F4B48
S315080035501B681A0032F47C12084302436B48026067
S315080035607047C0B26D49086070470021674A126803
S3150800357011008908890001436448016070470021E9
S31508003580624A1268110031F0F00101435F48016098
S31508003590704700215D4A1268110031F4E061014369
S315080035A05A48016070470021584A1268110031F4E0
S315080035B0605151EAC001554801607047C0B2594987
S315080035C00860704730B400220021002300244F4DC4
S315080035D02D6815F00C052A00002A04D0042A05D007
S315080035E0082A06D021E05049016020E04E490160D2
S315080035F01DE04649096811F47011444A126812F42C
S315080036008033890C891C002B03D1484A5143016039
S315080036100AE03E4A1268920303D5444A51430160C0
S3150800362002E0414A5143016001E03F4901603749E0
S31508003630096811F0F00212093D49545C0168E1403D
S3150800364041603249096811F4E062120A3849545C4B
S315080036504168E14081602D49096811F46052D20A37
S315080036603349545C4168E140C1602849096811F44E
S315080036704042920B2F49545CC168B1FBF4F10161D9
S3150800368030BC7047C9B2002905D02B4909680843E0
S315080036902949086005E02849096831EA00002649F1
S315080036A008607047C9B2002905D02449096808434B
S315080036B02249086005E02149096831EA00001F49E6
S315080036C00860704710B4002200230021C0B24409E4
S315080036D0E4B22200012A02D10B490B6806E0022A4D
S315080036E002D10F490B6801E015490B68C0B210F00A
S315080036F01F0233FA02F0C00701D5012100E00021BC
S315080037000800C0B210BC7047001002400410024006
S315080037100000FFF8FFFFF6FE081002406000424274
S31508003720201002408004424200127A0000093D003F
S315080037300000002020000020181002401C10024043
S3150800374024100240F0B4002200260024002500239D
S31508003750002791F803C01CF00F0C624691F803C0CD
S315080037605FEACC6C01D58B781A430B781B0621D0FF
S315080037700368002406E0CD78482D02D10125A5402E
S315080037800561641C082C14D20125A5400E882E401C
S31508003790AE42F6D1A5000F2616FA05F7BB4312FA74
S315080037A005F52B43CD78282DE5D10125A5404561A2
S315080037B0E7E703600B88FF2B26DD4368002420E03B
S315080037C0012514F10806B5400E882E40AE4217D1E1
S315080037D0A5000F2616FA05F7BB4312FA05F52B4383
S315080037E0CD78282D04D1012514F10806B540456188
S315080037F0CD78482D04D1012514F10806B540056198
S31508003800641C082CDCD34360F0BC70470022806837
S3150800381089B2084201D0012200E000221000C0B29D
S31508003820704789B20161704789B24161704770B4C7
S315080038300022002400230025002802D52F4A1368F9
S3150800384001E02F4A1368C0F3034582B210F440140E
S31508003850B4F5401F08D133F07063294C246834F05E
S315080038607064274D2C600FE0C40205D50324AC40D4
S31508003870A34353F0706307E0440DE4B2240112FA3F
S3150800388004F4A34353F07063C9B2002905D0410D6F
S31508003890C9B2090112FA01F10B43002802D51748EB
S315080038A0036001E01648036070BC704710B400223C
S315080038B00F2311F00304E4B2A400A3401A00C9B20E
S315080038C08B10104C54F8233033EA0202C9B28B101D
S315080038D00C4C44F82320C9B28A100A4B53F822200C
S315080038E0C0B211F00303DBB29B0098401043C9B283
S315080038F08910044A42F8210010BC70471C00014098
S31508003900040001400800014000212C4A1100827978
S31508003910002A35D0294A126803689A43274B1A6049
S31508003920274A126803689A43254B1A600279511888
S315080039300A6803681A430A602249096802689143BB
S31508003940204A116020490968026891431E4A11609D
S31508003950417910290CD11B49096802681143194A93
S3150800396011601949096800680843174908600EE09C
S315080039701249427951180A6800681043086006E03F
S31508003980027951180A68006832EA00000860704730
S3150800399000210022094B1B6803401A000B4B1B68C9
S315080039A0034203D0002A01D0012100E000210800CB
S315080039B0C0B270470549086070470000000401401E
S315080039C004040140080401400C04014014040140A9
S315080039D0F0B585B004000D00002000210022002368
S315080039E00026AF89002F2600208A4CF6FF71084072
S315080039F0E98808432082A0894EF6F3110840A98871
S31508003A002A8911436A8911430843A081A08A4FF67F
S31508003A10FF410840A9890843A08200A8FFF7D2FD04
S31508003A201B48864201D1039900E00299A089000447
S31508003A3007D5192000FB01F029684900B0FBF1F20F
S31508003A4006E0192000FB01F029688900B0FBF1F2B5
S31508003A506420B2FBF0F000010109642303FB112383
S31508003A60A189090408D5D90032316422B1FBF2F1E3
S31508003A7011F00701084307E0190132316422B1FB4E
S31508003A80F2F111F00F010843208105B0F0BD0000E6
S31508003A9000380140C9B2002904D0818951F4005187
S31508003AA0818104E081894DF6FF721140818170475A
S31508003AB0F0B4002300240025002689B240F66A17D0
S31508003AC0B94206000800C0B24309DBB289B211F058
S31508003AD01F04012010FA04F5012B01D10C3604E06D
S31508003AE0022B01D1103600E01436D2B2002A03D0D8
S31508003AF030682843306002E03068A8433060F0BC84
S31508003B007047C905C90D818070478088C005C00DFA
S31508003B107047002289B2B1F5007F0088084201D0BB
S31508003B20012200E000221000C0B2704710B4002243
S31508003B30002389B240F66A14A14289B20A0A012111
S31508003B4011FA02F39BB2D943018010BC70471100E9
S31508003B501A4908431A490860704710B40021002220
S31508003B600F23C478002C1DD01549096811F4E061AB
S31508003B70D1F5E061090AD1F10402CB4041789140C0
S31508003B8082781A401143090102780E4BD15401215B
S31508003B90027812F01F029140007840110A4A42F852
S31508003BA0201009E00121027812F01F0291400078E6
S31508003BB04011064A42F8201010BC70470000FA056A
S31508003BC00CED00E000E400E000E100E080E100E048
S31508003BD080B2084908607047C0B207490860704754
S31508003BE04AF6AA200349086070474CF6CC400149BA
S31508003BF008607047003000400430004080B50A0075
S31508003C00002100F001F801BD30B4002A27D00028B1
S31508003C1025D00023002403E01B02C9B20B43641C11
S31508003C20042CF9D30425B0FBF5F404FB1504E4B21F
S31508003C30002C08D003E00170401C521E641C002AA8
S31508003C4001D0042CF7D302E00360001D121F042ADA
S31508003C50FAD202E00170401C521E002AFAD130BC8A
S31508003C60704770B41300002B01D1012052E00028E0
S31508003C7001D100204EE0002901D100204AE00122AE
S31508003C80181859180425B0FBF5F404FB1504E4B21A
S31508003C900426B1FBF6F505FB1615EDB2AC4201D1CB
S31508003CA0012500E00025EDB2012D2CD1002C10D005
S31508003CB008E0401E491E05780E78B54200D000225D
S31508003CC05B1E641ED2B2012A03D1002B01D0002C40
S31508003CD0EFD1D2B2012A16D107E0001F091F0468E6
S31508003CE00D68AC4200D000221B1FD2B2012A01D1B6
S31508003CF0042BF2D207E0401E491E04780D78AC4228
S31508003D0000D000225B1ED2B2012A01D1002BF2D1CB
S31508003D101000C0B270BC70472DE9F04385B000278B
S31508003D205FF000080026002506E0FFB2012F03D148
S31508003D30260000275FF0000802A8019003A800905B
S31508003D400DF10A030022C821DFF8C006FDF718FDA9
S31508003D500100BDF8080047F2D9229042E5D091F853
S31508003D60009002AADFF8A806FDF791FB002E11D1F4
S31508003D7002A9DFF8A006FDF767FB0600BDF80800F4
S31508003D80002800D000BF34004FF4807200212000C4
S31508003D90FFF73AFFFFB2002F0BD15FFA89F9B9F1A5
S31508003DA0680F35D186F80090761C5FF00008012769
S31508003DB02EE086F80090761C301B0B2802D1A07ADC
S31508003DC010F10D085FFA88F8B8F1000F20D0301B03
S31508003DD05FFA88F840451BDB16F8010C162813D144
S31508003DE05FFA88F8B8F1020189B2200000F021F8DC
S31508003DF016F8021CC0B281420AD101250024002609
S31508003E0000275FF0000803E0260000275FF000089F
S31508003E10EDB2012D90D102A8009000235FFA88F830
S31508003E20424692B22100DFF8F005FDF788FD00252D
S31508003E3082E710B40022002303E09BB21C5CA218A0
S31508003E405B1C9BB289B28B42F7D31000C0B210BC80
S31508003E50704700002DE9F04385B000275FF00008A1
S31508003E600026002506E0FFB2012F03D12600002711
S31508003E705FF0000802A8019003A800900DF10A035C
S31508003E800022C821DFF89405FDF77AFC0100BDF889
S31508003E90080047F2D9229042E5D091F8009002AA8C
S31508003EA0DFF86C05FDF7F3FA002E11D102A9DFF849
S31508003EB06405FDF7C9FA0600BDF80800002800D019
S31508003EC000BF34004FF4807200212000FFF79CFEEB
S31508003ED0FFB2002F0BD15FFA89F9B9F1680F35D116
S31508003EE086F80090761C5FF0000801272EE086F819
S31508003EF00090761C301B0B2802D1A07A10F10D0811
S31508003F005FFA88F8B8F1000F20D0301B5FFA88F8FE
S31508003F1040451BDB16F8010C162813D15FFA88F802
S31508003F20B8F1020189B22000FFF783FF16F8021CD8
S31508003F30C0B281420AD101250024002600275FF07D
S31508003F40000803E0260000275FF00008EDB2012D07
S31508003F5090D16078102816D1DFF8C40400780128BB
S31508003F600CD102A8009000235FFA88F8424692B264
S31508003F702100DFF8B004FDF7E2FC39E0260000274F
S31508003F805FF0000834E06078A0282DD10622A11C35
S31508003F90DFF89404FFF765FE002807D10622A11C66
S31508003FA0DFF88804FFF75DFE002818D0607A03283A
S31508003FB004D004280AD0152804D00BE0200000F00D
S31508003FC06AF815E0200000F015F811E0200000F06E
S31508003FD091F80DE0260000275FF0000808E02600AB
S31508003FE000275FF0000803E0260000275FF00008BE
S31508003FF000253FE71CB504000020E17A182943D1C3
S31508004000207BA02840D1FFF7CDF9DFF82404FFF77D
S31508004010DDF9E189DFF81804FFF707FA218ADFF8E6
S315080040201404FFF702FA618ADFF80C04FFF7FDF9BA
S31508004030FFF7C3F900200FE0C0B2DFF8F413095800
S31508004040C0B2DFF8E8238154C0B2DFF8E413095898
S31508004050C0B202199170401CC0B20628ECDB95204C
S3150800406060720320A0720E212000FFF7E2FEA07303
S315080040701620E07301A80090002310222100DFF823
S315080040809803FDF75CFC05E001AA2100DFF884032C
S31508004090FDF7FDF913BD1CB504000020E17A0A29D5
S315080040A022D1207B81281FD183206072002007E05F
S315080040B0C0B2DFF87C130958C0B202199170401CCF
S315080040C0C0B20628F4DB0E212000FFF7B2FEA0736B
S315080040D01620E07301A80090002310222100DFF8C3
S315080040E03803FDF72CFC04E001AA2100C948FDF7B6
S315080040F0CEF913BD1CB504000020E17A172925D195
S31508004100207BA02822D1A07B552805D1A07800F0D5
S31508004110A3F80020A07303E000F0C5F80220A073FE
S31508004120842060720520A0720020E0731021200010
S31508004130FFF77FFE20741620607401A80090002304
S3150800414012222100B448FDF7FAFB04E001AA210077
S31508004150B048FDF79CF913BD80B5C0B200280AD057
S315080041600121B648FFF75DFB00AA00214FF47A70DB
S31508004170FEF762FE03E00121B048FFF755FB012078
S3150800418002BD80B5C0B200280AD00221AC48FFF7AC
S3150800419048FB00AA00214FF41670FEF74DFE03E017
S315080041A00221A748FFF740FB012002BD80B5C0B237
S315080041B000280BD04FF40041A048FFF732FB00AAB5
S315080041C0002140F6B830FEF737FE04E04FF4004110
S315080041D09A48FFF729FB012002BD80B5C0B2002826
S315080041E00AD008219648FFF71CFB00AA002140F6D2
S315080041F0B830FEF721FE03E008219148FFF714FBCB
S31508004200012002BD80B5C0B200280AD010218C4812
S31508004210FFF707FB00AA002140F6B830FEF70CFEB0
S3150800422003E010218648FFF7FFFA012002BD80B59A
S31508004230C0B200280AD020218148FFF7F2FA00AA66
S31508004240002140F6B830FEF7F7FD03E020217C4850
S31508004250FFF7EAFA012002BD10B582B0040000F0AB
S3150800426022F8E4B2012C06D014D3032C0BD006D3C3
S31508004270042C0CD00EE00120FFF798FF0AE001207D
S31508004280FFF7ABFF06E00120FFF7BCFF02E00120C5
S31508004290FFF7CDFF01206249087000A96948FEF7BB
S315080042A033FB012016BD80B50020FFF77FFF0020F5
S315080042B0FFF793FF0020FFF7A5FF0020FFF7B7FFE2
S315080042C0002057490870012002BD80B50020FFF77D
S315080042D043FF0020FFF755FFFFF7E5FF01BD1FB5B8
S315080042E00DF10A00019003A8009002AB00220021FC
S315080042F04948FDF745FA0400BDF80810200000F00B
S315080043005EF90DF10A0221004248FDF7C0F8E7E719
S315080043101FB50DF10A00019003A8009002AB002218
S3150800432000214048FDF72CFA0400BDF808102000CB
S3150800433000F0F5F80DF10A0221003648FDF7A7F856
S31508004340E7E780B513E080213C48FFF76AFA00AA40
S3150800435000214FF47A70FEF76FFD80213748FFF78A
S3150800436063FA00AA00214FF47A70FEF765FD2C481F
S3150800437000780028E7D080213048FFF752FA00AAD3
S3150800438000214FF49670FEF757FD80212B48FFF762
S315080043904BFA00AA00214FF49670FEF74DFDE6E7AA
S315080043A000B585B002A8019003A800904FF4847365
S315080043B0002201212448FCF7A6FC02AA00214FF49A
S315080043C0FA70FEF739FD4FF480511C48FFF71EFAC4
S315080043D00028E7D102211948FFF723FA01211748D7
S315080043E0FFF722FA40211548FFF71BFA02AA002117
S315080043F06420FEF721FD40211048FFF715FA02AAAE
S3150800440000216420FEF718FDECE70000A02A002032
S315080044109C2B0020842B00200C2B0020C42A002073
S315080044203A2C0020E82A002018000020100000205E
S3150800443000FC000802FC000804FC00080008014013
S31508004440000C0140742A0020682B002070470000E9
S315080044501CB520218B48FFF75CFB002815D089483E
S31508004460FFF753FB040001A98748FCF7EDFF01009D
S315080044700C7001A80090002301228448FDF75FFA1A
S31508004480BDF80400002800D000BF40217D48FFF792
S3150800449040FB00280ED040F226617A48FFF746FB1B
S315080044A001AA00217A48FDF7DCFBBDF804000028C4
S315080044B000D000BF13BD00001CB520217548FFF7CA
S315080044C028FB002815D07348FFF71FFB040001A935
S315080044D06D48FCF7B9FF01000C7001A80090002395
S315080044E001226D48FDF72BFABDF80400002800D01C
S315080044F000BF40216748FFF70CFB00280ED040F2AA
S3150800450026616448FFF712FB01AA00216348FDF7FC
S31508004510A8FBBDF80400002800D000BF13BD70B585
S3150800452084B004000D0010215D48FFF77AF90122D6
S3150800453040F226615748FFF7BBFA002610E0002034
S31508004540ADF8040001A8009002AB00224FF4FA71FE
S315080045505248FDF7CCFAFE214E48FFF7D2FA761CF0
S31508004560B6B2042EEBDB002612E00020ADF80400FC
S3150800457001A8009002AB00224FF4FA714748FDF7F4
S31508004580B6FAB6B2315D89B24248FFF7BAFA761C76
S31508004590B6B2ADB2AE42E8D3002240F226613D483B
S315080045A0FFF786FA40213B48FFF7B3FA0028F9D00F
S315080045B010213B48FFF738F9012004B070BD70B5EB
S315080045C084B004000D0004213648FFF72AF90122B9
S315080045D040F226612B48FFF76BFA002610E0002010
S315080045E0ADF8040001A8009002AB00224FF4FA715E
S315080045F02A48FDF77CFAFE212248FFF782FA761C44
S31508004600B6B2042EEBDB002612E00020ADF804005B
S3150800461001A8009002AB00224FF4FA711C48FDF77E
S3150800462066FAB6B2315D89B21648FFF76AFA761CA1
S31508004630B6B2ADB2AE42E8D3002240F226611148C6
S31508004640FFF736FA40210F48FFF763FA0028F9D03A
S3150800465004211448FFF7E8F8012004B070BD80B5BE
S315080046604FF48050FFF794F9002809D000AB0022D8
S3150800467001210D48FCF74DFD4FF48050FFF79AF9DC
S3150800468001BD0000004800409C2B0020C42A0020E1
S31508004690302B002000440040A02A00204C2B00208C
S315080046A000080140000C0140682B002000B58BB0C3
S315080046B0FEF748FB09A8FBF719FD09A8089003208F
S315080046C00790002006900020059000200490802086
S315080046D003900C200290AB48019003200090002321
S315080046E00FF21502A849A948FDF760FB09A8FBF7D0
S315080046F0B5FE00200BB000BD10B582B00024FEF751
S3150800470023FCFEF70DFEFEF702FE4FF47A71B0FBAE
S31508004710F1F0FCF749FA00F02BF800F0BDF89C48D8
S315080047200068FF280BD0002406E0E4B29848005938
S31508004730E4B298496054641CE4B2062CF5DBFEF733
S31508004740D9FDFFF74DFA01219348FFF76AF800AA49
S3150800475000214FF47A70FEF76FFB01218E48FFF7B0
S3150800476063F800AA00214FF47A70FEF765FBE8E7C4
S3150800477000B58BB009A80890032007900020069082
S315080047800020059000200490802003900C200290C1
S3150800479082480190042000900023814A77A181482D
S315080047A0FDF704FB09A8089003200790002006904F
S315080047B00020059000200490802003900C20029091
S315080047C079480190052000900023784A784979486D
S315080047D0FDF7ECFA09A80890032007900020069038
S315080047E00020059000200490802003900C20029061
S315080047F071480190072000900023704A60A1704814
S31508004800FDF7D4FA09A8089003200790002006901F
S315080048100020059000200490802003900C20029030
S3150800482068480190082000900023674A54A1674809
S31508004830FDF7BCFA09A80890032007900020069007
S315080048400020059000200490802003900C20029000
S315080048505F4801900B20009000235E4A5E495F483E
S31508004860FDF7A4FA09A808900320079000200690EF
S315080048700020059000200490802003900C200290D0
S31508004880574801900C2000900023564A564957482D
S31508004890FDF78CFA0BB000BD00B585B004A80190F1
S315080048A04FF4807000900423514A35A15148FCF713
S315080048B063FDBDF8100000285DD104A8019004200E
S315080048C000901E234C4A2EA14C48FCF755FDBDF816
S315080048D0100000284FD104AB002229A14848FDF753
S315080048E0D3F8BDF81000002845D104AB002224A156
S315080048F04448FDF7C9F8BDF8100000283BD104ABC1
S31508004900052241494148FCF7FDFEBDF81000002884
S3150800491031D104AB05223E493E48FCF7F3FEBDF80B
S315080049201000002827D104AB052215A13A48FCF748
S31508004930E9FEBDF8100000281DD104AB052210A120
S315080049403648FCF7DFFEBDF81000002813D104AB8B
S3150800495000220BA13248FCF7A3F904A80390002013
S315080049600290304801900120009000232E4A04A1AD
S315080049702E48FDF771FF05B000BD00005532000056
S3150800498000000000640A0020CC4B0008E421002047
S3150800499000FC000810000020000C014064100020F4
S315080049A0193D000800240020640E0020553E00082A
S315080049B0D44B00084C23002064120020DF42000874
S315080049C0B424002064140020114300086825002040
S315080049D0640C002043430008DC4B000898220020A2
S315080049E064160020A1430008B44B00081C260020CA
S315080049F064060020842B0020FC2900209C2B002024
S31508004A004C2B0020302B0020E44B0008A02A002065
S31508004A10EC4B0008C42A0020E82A00200C2B0020B2
S31508004A20682B0020CB420008C0270900742A002002
S31508004A3080B51448006850F0010012490860124811
S31508004A40006812490840104908600E480068104975
S31508004A5008400C4908600B48006830F48020094972
S31508004A6008600948006830F4FE00074908605FF4EA
S31508004A701F000849086000F011F85FF00060064959
S31508004A80086001BD00100240041002400000FFF853
S31508004A90FFFFF6FE0810024008ED00E07047704779
S31508004AA0FEE7FEE7FEE7FEE77047704780B5FCF7CE
S31508004AB069F801BD80B5FFF7C9FC01BD80B5FFF7F0
S31508004AC0FBFC01BD80B5FFF7C3FC01BD80B5FFF750
S31508004AD0C6FD01BD10B5074979441831064C7C441A
S31508004AE0163404E00A68081D511888470146A14291
S31508004AF0F8D110BD08000000280000008FD2FFFF83
S31508004B00182C000024000020000000003FC8FFFF0A
S31508004B1024000000E0010000000000200000000062
S31508004B2000F00BF8002801D0FFF7D4FF0020C0469C
S31508004B30C046FFF7BBFD00F002F80120704700F001
S31508004B4001B811000746384600F002F8FBE70610E0
S31508004B5080B5C046C046024A11001820ABBEFBE726
S31508004B602600020075432F4F532D494949205469A1
S31508004B706D6572205461736B0000000075432F4FFA
S31508004B80532D4949492049646C65205461736B006B
S31508004B9075432F4F532D494949205469636B205457
S31508004BA061736B000148804701480047314A000895
S31508004BB0C14B00084F7665724C6F616400000000B7
S31508004BC0C046C046C046C046FFF7AAFF53544152E6
S31508004BD05400000055315F33000000004C45443155
S31508004BE000000000736C6176650000007265616400
S31508004BF0000000003F5461736B0000006418002039
S31508004C000C0000008000000000020000641A00206A
S31508004C10800000000002000040060000240000207A
S31508004C2040000000E8030000641C00200C0000009F
S31508004C308000000000020000880000000A00000052
S31508004C40641E00200C000000800000000002000026
S31508004C5088000000500F0000FFF7FEBFFFF7FEBFF9
S31508004C60FFF7FEBFFFF7FEBFFFF7FEBFFFF7FEBF6A
S31508004C70FFF7FEBFFFF7FEBFFFF7FEBFFFF7FEBF5A
S31508004C80FFF7FEBFFFF7FEBFFFF7FEBFFFF7FEBF4A
S31508004C90FFF7FEBFFFF7FEBFFFF7FEBFFFF7FEBF3A
S31508004CA0FFF7FEBFFFF7FEBFFFF7FEBFFFF7FEBF2A
S31508004CB0FFF7FEBFFFF7FEBFFFF7FEBFFFF7FEBF1A
S31508004CC0FFF7FEBFFFF7FEBFFFF7FEBFFFF7FEBF0A
S31508004CD0FFF7FEBFFFF7FEBFFFF7FEBFFFF7FEBFFA
S31508004CE0FFF7FEBFFFF7FEBFFFF7FEBFFFF7FEBFEA
S31508004CF0FFF7FEBF000000000102030401020304DF
S31508004D00060708090100000000000000AAAAAAAACE
S30D08004D10AAAA00000204060825
S70508004BC1E6
