S00C0000546573742E7372656378
S31508000000002E0020F1450008EB440008ED440008E6
S31508000010EF440008F1440008F3440008000000001B
S31508000020000000000000000000000000F544000881
S31508000030F744000800000000332C0008F9440008C3
S31508000040A5460008A9460008AD460008B1460008BE
S31508000050B5460008B946000819450008BD46000817
S31508000060C1460008C5460008C9460008CD4600082E
S31508000070D1460008D5460008D9460008DD460008DE
S31508000080E1460008E5460008E9460008ED4600088E
S31508000090F1460008F5460008F9460008FD4600083E
S315080000A00147000805470008094700080D470008EA
S315080000B01147000815470008194700081D4700089A
S315080000C02147000825470008294700082D4700084A
S315080000D03147000801450008094500081145000890
S315080000E035470008394700083D47000810B50400A1
S315080000F000F0AFFC0020DFF8781808700020DFF861
S31508000100741808700020DFF8701808700020DFF8EF
S315080001106C1808600020DFF8681808600020DFF80F
S31508000120641808700020DFF8601808700020DFF8EF
S315080001305C1808700020DFF858180870DFF85408B3
S3150800014000680A21B0FBF1F0DFF84C180860DFF808
S315080001504C08006800280ED0DFF84408006800281C
S3150800016009D0DFF83818096803E0491E0022026042
S31508000170001D0029F9D10020DFF8281808600020A2
S31508000180DFF8241808600020DFF82018086000202F
S31508000190DFF81C1808600020DFF81818086000202F
S315080001A0DFF8141808600020DFF81018086000202F
S315080001B0DFF80C18087000F02FFD00F0E6FA2000B2
S315080001C000F0E9FF2088002837D1200001F087F9E0
S315080001D02088002831D1200001F08EF920880028D7
S315080001E02BD1200001F086FA2088002825D120008E
S315080001F001F0E7FB208800281FD1200001F061FDEF
S315080002002088002819D1200002F000F8208800284C
S3150800021013D1200000F066F9208800280DD12000AF
S3150800022002F022F92088002807D1200002F014FBEA
S315080002302088002801D102F07DFC10BD10B50024ED
S31508000240DFF83007007801285BD102F0CDFC040006
S31508000250DFF81C070078002803D1200002F0C8FC4C
S315080002604FE0DFF80C070078401EDFF80417087027
S31508000270DFF8FC060078002803D0200002F0B8FC5E
S315080002803FE0DFF8F4060078002803D0200002F0EB
S31508000290AFFC36E000F0CAFCDFF8EC160870DFF8B1
S315080002A0E80600780C21DFF81C2701FB002000680F
S315080002B0DFF8CC160860DFF8C8060068DFF8BC1659
S315080002C00968884203D1200002F092FC19E0DFF8A1
S315080002D0B0060068D0F89000401CDFF8A41609683C
S315080002E0C1F89000DFF8E0060068401CDFF8D81671
S315080002F008605FF08050DFF8D4160860200002F02E
S3150800030077FC10BD10B50024DFF8640600780028D5
S315080003103ED1DFF864060078002839D102F064FC83
S31508000320040000F083FCDFF860160870DFF8580652
S3150800033000780C21DFF88C2601FB00200068DFF826
S3150800034040160860DFF838060068DFF830160968D6
S31508000350884203D1200002F04BFC19E0DFF82006A2
S315080003600068D0F89000401CDFF814160968C1F838
S315080003709000DFF854060068401CDFF84C16086049
S315080003805FF08050DFF844160860200002F030FC69
S3150800039010BD10B504000020DFF8D415097800292F
S315080003A003D046F6625020801EE0DFF8C8050078C4
S315080003B0012803D045F68960208015E0DFF8B805E6
S315080003C00078FA2803DB45F2092020800CE002F0C9
S315080003D00BFCDFF8A4150978491CDFF89C25117079
S315080003E002F006FC0020208010BD10B50400002095
S315080003F0DFF87C150978002903D046F66550208079
S315080004002BE0DFF870050078012803D045F68960EF
S31508000410208022E0DFF860050078002803D146F640
S315080004206450208019E002F0DFFBDFF84C150978EC
S31508000430491EDFF844251170DFF83C1509780029B4
S3150800044005D002F0D5FB46F66350208005E002F0A1
S31508000450CFFBFFF757FF0020208010BD10B5040022
S31508000460DFF810050078002826D100F0DFFBDFF85A
S3150800047018150870DFF810050078DFF808150870F9
S31508000480DFF8040500780C21DFF8382501FB002089
S315080004900068DFF8EC140860DFF8E4040068DFF8A9
S315080004A0DC1408600120DFF8CC14087002F0B2FBF7
S315080004B043F69920208002E045F68A60208010BD28
S315080004C080B5002102F090FB0100DFF80405006802
S315080004D0401CDFF8FC241060080002F089FB00F0DD
S315080004E0AFFAEFE700B589B00021DFF8E424116020
S315080004F008900B2007900020069000200590002009
S315080005000490DFF8D00400680390DFF8CC04006894
S315080005100290DFF8C804006801901F2000900023AD
S31508000520DFF8BC24DFF8BC14DFF8BC0401F03EFC9D
S3150800053009B000BD70B504000D001900DFF83C04D1
S31508000540006880F834200020DFF83024126882F82A
S315080005503500DFF82804006800F048FA002D0ED0B0
S3150800056015F10806E56001222100DFF8100400688D
S3150800057000F010F82100300000F02DF809E0002006
S31508000580DFF8F8130968C8870020DFF8F013096850
S31508000590086370BD10B4C287016300230EE000240F
S315080005A04C6000240C6000240C6100244C6100247B
S315080005B00C830024CC61886020315B1C9BB292B20C
S315080005C09342ECD310BC70470021016000214160C2
S315080005D000210181704710B48A6892F83720038990
S315080005E0002B08D10122028100224A6000220A60FB
S315080005F00160416024E003895B1C0381046800E014
S315080006006468002C05D0A36893F83730D2B29A42B2
S31508000610F6D2002C06D100224A6042680A60516070
S3150800062041600DE02268002A05D1216000220A6097
S315080006304C60016004E022680A604C6051602160E9
S3150800064010BC704770B50400266BE58F06E0F068AD
S315080006500830310000F00AF820366D1EADB2002DC4
S31508000660F5D10020E0870020206370BD0289012AA9
S3150800067004D1002202600022426013E00A68002AC0
S3150800068004D14B6800221A6003600BE04A68002A0E
S3150800069004D10A6800235360426003E00A684B6885
S315080006A053601A600289521E0281002048600020A9
S315080006B00860704738B505000C00049894F83610A1
S315080006C000290BD002290AD008D3042906D006D35C
S315080006D0062925D002D3072922D042E041E094F822
S315080006E03410032906D100909BB22100280000F09F
S315080006F039F803E0E265A4F860302064002D02D0E2
S315080007002000FFF79FFF200000F08DF9002084F8F5
S315080007103600002084F83500002084F8340020E0F4
S3150800072094F83410032906D100909BB221002800C2
S3150800073000F018F803E0E265A4F8603020642000B1
S3150800074001F084FF002D02D02000FFF77BFF042074
S3150800075084F83600002084F83500002084F8340038
S31508000760FFE731BD30B40C6BC98F01E02034491E58
S3150800077089B2002907D0E568A842F7D120616261ED
S3150800078023830298E06130BC704700200BE0C0B2BA
S315080007900C218C4A01FB002100220A8100220A60F2
S315080007A000224A60401CC0B22028F0D3704710B51A
S315080007B0040094F8370000F049FA94F837007149B4
S315080007C00978884203D1200000F022F802E02000D0
S315080007D000F001F810BD90F837100C22794B02FB97
S315080007E001310A89002A08D101220A810022C26041
S315080007F0002202610860486009E00A89521C0A81E1
S315080008000A68C260002202610A68106108607047BF
S3150800081090F837100C226B4B02FB01310A89002A2B
S3150800082008D101220A810022C26000220261086002
S31508000830486008E00A89521C0A810022C2604A6898
S315080008400261D0604860704710B40189002902D05F
S31508000850022901D00BD215E0016842680A6100231B
S31508000860CB6000231361D160026041600AE0016831
S315080008704268CB6800241C610024CC600A61D16000
S315080008800360416010BC704710B5040094F8370047
S315080008900C214C4A01FB00202169E268002913D18A
S315080008A0002A0AD10021018100210160002141604E
S315080008B094F8370000F0DDF90FE00189491E01813F
S315080008C000211161026008E003895B1E0381CA608A
S315080008D0002A01D1416000E011610020206100205A
S315080008E0E06010BD38B504000025294800780128C5
S315080008F03CD102F079F905002068002803D12800C8
S3150800090002F076F932E03849884203D1280002F02D
S315080009106FF92BE0816D002902D0816D491E816532
S31508000920806D002803D0280002F062F91EE02089B5
S31508000930022803DA280002F05BF917E00E4800786F
S31508000940002803D0280002F053F90FE02000FFF733
S315080009507BFF2068416D002903D10F49096881652D
S3150800096001E0416D8165280002F042F931BD0000C1
S31508000970F42B0020F52B0020F92B0020E02B00207B
S31508000980E42B0020F62B0020F72B0020F82B002064
S31508000990FA2B002070460008C02B00205C46000891
S315080009A058460008A02B0020A42B0020A82B0020C6
S315080009B0AC2B0020B02B0020B42B0020B82B002035
S315080009C0FB2B002054200020C42B002004ED00E05F
S315080009D0BC2B0020504600084C4600084846000834
S315080009E0C1040008C8450008C026002010B582B01A
S315080009F00400002910D000AB0222200001F098FD67
S31508000A00BDF80000002803D1032084F8360006E06C
S31508000A10022084F8360002E0022084F8360020001E
S31508000A20FFF732FF13BD10B50400200001F00EFEDB
S31508000A3094F83600400702D42000FFF7B8FE10BD30
S31508000A4080B565480068002802D06348006880477A
S31508000A5001BD624800686249096811EB8000001F01
S31508000A6060490860704780B55F490968002902D067
S31508000A705D490968884701BD80B55C490968002950
S31508000A8002D05A490968884701BD80B5584909689E
S31508000A90002902D056490968884701BD10B40400E8
S31508000AA0019812EB8000001F5FF080720260001F41
S31508000AB00460001F4F4A0260001F5FF01232026096
S31508000AC0001F5FF003320260001F5FF0023202600F
S31508000AD0001F0360001F0160001F5FF011310160F5
S31508000AE0001F5FF010310160001F5FF009310160DF
S31508000AF0001F5FF008310160001F5FF007310160D9
S31508000B00001F5FF006310160001F5FF005310160CC
S31508000B10001F5FF00431016010BC704780B536488D
S31508000B200068002802D034480068804702F0C9F8F7
S31508000B3032490968324A1268914215D02F49096824
S31508000B40D1F89810411A2D4A1268C2F894102B4908
S31508000B500968D1F89C10294A1268D2F894205118CD
S31508000B60264A1268C2F89C1025490968C1F89800F7
S31508000B7001BD80B523480068002802D021480068D6
S31508000B80804701BD10B5002402F02EF804001E4867
S31508000B900078401C1C490870200002F029F802F071
S31508000BA0E9F8FFF74BFB10BD401E184908601848C6
S31508000BB000680002000A164908601648006850F0E6
S31508000BC00500144908601348006850F002001149EE
S31508000BD00860704700000000AC2B00205C46000847
S31508000BE058460008982B0020A02B0020A42B002094
S31508000BF0A82B002035230008B42B0020E02B00206A
S31508000C00E42B0020B82B0020F42B002014E000E091
S31508000C1020ED00E010E000E0002004E000211F4A7B
S31508000C2042F82010401C0028F8D0704710B5002460
S31508000C301A4801E02034001D01680029FAD000682E
S31508000C4001F0DDFF04192000C0B210BDC0B2420990
S31508000C50C0B210F01F010120D1F11F018840D2B2A5
S31508000C600E4951F822100843D2B20C4941F8220025
S31508000C707047C0B24209C0B210F01F010120D1F17D
S31508000C801F018840D2B2054951F8221031EA000006
S31508000C90D2B2024941F82200704700009C2B00207E
S31508000CA02DE9F04105000F0090461C000026DFF8EC
S31508000CB0F4040078002803D042F6E160208020E0A2
S31508000CC0002D03D145F6C35020801AE001F08CFFB1
S31508000CD00600DFF8D40428606F60C5F81480002089
S31508000CE0A86115F10800FFF76FFCDFF8C00400885B
S31508000CF0401CDFF8B8140880300001F079FF0020A6
S31508000D002080BDE8F0812DE9F44F8AB004000D007B
S31508000D101E005FF0000A159FDFF888040078002897
S31508000D2004D046F2AE1038800020E2E1002C04D14F
S31508000D3045F6C35038800020DBE1B6B23000401ECD
S31508000D4001281AD9C01E18D0001F16D0F938012854
S31508000D5013D9C01E11D0001F0FD047F6F961401AEB
S31508000D6001280AD9C01E08D0001F06D0F938012864
S31508000D7003D9C01E01D0001F09D12068DFF8281446
S31508000D80884209D1F0050CD55FF001080BE045F65D
S31508000D90256038800020ACE145F6C4503880002034
S31508000DA0A7E15FF00008DDF85090B9F1000F02D016
S31508000DB00020C9F8000016F00F00ADF8040001F095
S31508000DC013FF8246BDF80400012800F0B18002280E
S31508000DD000F0F180042802D0082864D02EE160696A
S31508000DE015EA000BAB451AD15FFA88F8B8F1010F7E
S31508000DF003D1606930EA0B006061DFF8B40300686C
S31508000E00C0F884B0B9F1000F02D0A069C9F8000093
S31508000E10504601F0EDFE00203880584669E130045E
S31508000E2007D5504601F0E4FE46F2B010388000209F
S31508000E305FE1DFF880030078002807D0504601F00C
S31508000E40D7FE46F663503880002052E10A98009093
S31508000E5033009BB22A00210002A800F089F9504607
S31508000E6001F0C6FEFFF74EFA01F0BEFE8246DFF835
S31508000E704003006890F83500002808D0022800F0E2
S31508000E800181C0F0E380032800F0EF8009E1B9F1A1
S31508000E90000F05D0DFF818030068006CC9F80000D9
S31508000EA00020388003E1606915EA000BBBF1000FEA
S31508000EB01AD05FFA88F8B8F1010F03D1606930EAF1
S31508000EC00B006061DFF8E8020068C0F884B0B9F189
S31508000ED0000F02D0A069C9F80000504601F088FE4C
S31508000EE000203880584604E1300407D5504601F002
S31508000EF07FFE46F2B01038800020FAE0DFF8B40230
S31508000F000078002807D0504601F072FE46F6635076
S31508000F1038800020EDE00A98009033009BB22A0042
S31508000F20210002A800F024F9504601F061FE99E775
S31508000F30606935EA000BAB451AD15FFA88F8B8F153
S31508000F40010F03D160695BEA00006061DFF86002A7
S31508000F500068C0F884B0B9F1000F02D0A069C9F8DA
S31508000F600000504601F044FE002038805846C0E094
S31508000F70300407D5504601F03BFE46F2B0103880E3
S31508000F800020B6E08B480078002807D0504601F0CC
S31508000F902FFE46F6635038800020AAE00A98009093
S31508000FA033009BB22A00210002A800F0E1F850465F
S31508000FB001F01EFE56E7606935EA000BBBF1000F2B
S31508000FC019D05FFA88F8B8F1010F03D160695BEAB6
S31508000FD00000606176480068C0F884B0B9F1000F77
S31508000FE002D0A069C9F80000504601F001FE0020B1
S31508000FF0388058467DE0300407D5504601F0F8FDA4
S3150800100046F2B0103880002073E06A48007800285D
S3150800101007D0504601F0ECFD46F6635038800020B4
S3150800102067E00A98009033009BB22A00210002A8C4
S3150800103000F09EF8504601F0DBFD13E7504601F03C
S31508001040D7FD45F625603880002052E0B9F1000F3B
S3150800105004D057480068006CC9F80000504601F0F3
S31508001060C7FD46F2A910388021E0B9F1000F02D079
S315080010700020C9F80000504601F0BAFD47F2D92011
S31508001080388014E0B9F1000F04D049480068006CB4
S31508001090C9F80000504601F0ABFD45F6C25038804D
S315080010A005E0504601F0A4FD46F62E6038803888E3
S315080010B0002801D000201CE03D480068D0F884B024
S315080010C05FFA88F8B8F1010F0DD1BDF804000128C0
S315080010D012D0022810D0042801D0082811D160693E
S315080010E030EA0B006061504601F082FD002038802E
S315080010F058460BB0BDE8F08F60695BEA0000606196
S31508001100F1E7504601F074FD45F625603880002069
S31508001110EFE7F8B505000E0017001C00002D04D1F6
S3150800112045F6C3502080002017E0BFB238000028DB
S31508001130012804D94FF40041401A01280ED828681E
S31508001140194988420FD101F0BCFD030000943A000A
S3150800115092B23100280000F02FF8F2BD45F625605E
S3150800116020800020F9E745F6C45020800020F4E7E7
S3150800117010B50F4C2468C4F880200D4A1268A2F8EE
S31508001180883000220A4B1B68C3F88420029B012280
S31508001190FFF7D0F910BD0021044A11800021018013
S315080011A070470000F42B0020464C4147E82B0020EE
S315080011B0E02B0020F92B00202DE9F843060089468C
S315080011C017009846002501F00FFD0500089CBFB2E0
S315080011D03800002809D0012819D0B0F5004F04D0EE
S315080011E048F20101884212D016E0706959EA0000F7
S315080011F07061C6F8188016F108000189002913D114
S31508001200280001F0F5FC00202080706970E0706904
S3150800121030EA09007061ECE7280001F0E9FC45F6C0
S3150800122025602080002063E0D0F80090D9F80800F7
S3150800123001E0D9F80800002849D0D9F8049090F8B8
S31508001240881011F00F0189B2012920D002292BD06C
S31508001250042902D0082910D031E07169D0F880201D
S315080012601140D0F88020914202D1424600F042F85F
S31508001270B9F1000FDDD10020DDE77169D0F88020D3
S315080012801140002902D0424600F034F8F0E77169AF
S31508001290D0F8802032EA0101D0F88020914202D1AC
S315080012A0424600F027F8E3E77169D0F8802032EA71
S315080012B00101002902D0424600F01CF8D8E72800B0
S315080012C001F096FC43F6FF202080002010E028005D
S315080012D001F08EFC380401D4FFF714F801F084FC01
S315080012E005007669280001F083FC00202080300084
S315080012F0BDE8F28310B50400C4F88410002084F811
S315080013003500002084F83400226494F8360000285A
S315080013100BD002280AD008D3042806D006D30628FC
S315080013200BD002D3072808D00BE00AE02000FFF70D
S315080013307AFB002084F8360003E0042084F836009F
S31508001340FFE72000FFF77EF910BD10B450F8041B24
S3150800135081B102681218001D50F8043BDC0744BF2F
S31508001360A9F10104E31852F8044B43F8044B091F8A
S31508001370F9D1EBE710BC70472DE9F84305000E00DC
S31508001380170098460020DDF8249058490978002966
S3150800139004D045F2B960A9F8000053E0002F04D143
S315080013A045F2BB60A9F800004CE01FFA88F8B8F1CE
S315080013B0020F04DA45F2BC60A9F8000042E0089C76
S315080013C0A4B2042C04D245F2C160A9F8000039E0A1
S315080013D0032000280FD0074204D045F2BB60A9F8C5
S315080013E000002FE0210089B2014204D045F2C16015
S315080013F0A9F8000026E03B003A00B8F101010020F8
S3150800140004E0A4B2A2181A601300401C80B289B284
S315080014108842F6D30020186001F0E6FB34492960BB
S31508001420AE606F60EF60A5F81480A5F812802C8274
S3150800143030490988491C2F4A118001F0D9FB002040
S31508001440A9F80000BDE8F18370B505000C0000207E
S31508001450002D04D145F2BF602080002016E001F07F
S31508001460C3FBA98A002906D101F0C2FB45F2C26076
S31508001470208000200AE0EE683168E960A98A491EE2
S31508001480A98201F0B5FB00202080300070BD70B540
S3150800149005000E0014000020002D03D145F2BF60A0
S315080014A020801BE0002E03D145F2BE60208015E0A7
S315080014B001F09AFBA98A6A8A914205D301F098FB42
S315080014C045F2BA60208009E0E9683160EE60A98AD1
S315080014D0491CA98201F08CFB0020208070BD0021E8
S315080014E0044A11800021018070470000F42B002077
S315080014F04D454D20EA2B002030B47B490968002968
S3150800150003D145F21E71018037E078490988002920
S3150800151003D145F21D7101802FE073490968724AAB
S3150800152012681032714B1B885C1E002309E00A60A2
S3150800153000254D6000250D810025CD601031103243
S315080015405B1C9BB2A4B2A342F1D300220A6000221C
S315080015504A6000220A810022CA6063490968644A0F
S31508001560116062490988624A91800021604AD180E7
S3150800157000215F4A11810021018030BC70474189F2
S315080015804289002A1AD00268594B1B6813604268C0
S31508001590574B1A60564AD2884389D21A544BDA8076
S315080015A0534A928843899A18514B9A80002242815D
S315080015B0002282810022026000224260080080B276
S315080015C0704701810021418100218181002101604C
S315080015D000214160704770B44489002C0AD100206C
S315080015E00880002A01D00020106046F29250188028
S315080015F0002026E045686C682E890E80002A01D0F6
S31508001600E9681160296841604168002904D1002110
S3150800161001600021418102E04189491E4181344827
S31508001620006828603248056031488088401C304987
S3150800163088802F48C088401E2D49C8800020188001
S31508001640200070BC7047F0B4059C45890689B542F0
S3150800165003D346F29350208044E0254DAD88002DF3
S3150800166003D145F21D7020803CE0214D2D682E687F
S315080016701F4F3E601E4EB688761E1D4FBE801C4EFE
S31508001680F688761C1A4FFE80194E3689184FFF8841
S31508001690BE4203D2164EF688154F3E814689002E65
S315080016A006D1056045600123438100232B600DE0C8
S315080016B0DB0605D403681D60056000232B6002E085
S315080016C043682B60456043895B1C4381838946894F
S315080016D0B34201D24389838169602A810498E8600C
S315080016E000202080F0BC704768460008CA3200080F
S315080016F0882B00200021024A1180002101807047B2
S31508001700EC2B00202DE9F04106000F0090461C0046
S315080017100025DFF8BC020078002803D042F6E16015
S3150800172020802BE0002E03D145F6C350208025E00B
S315080017301FFA88F8B8F1000F03D146F294502080BA
S315080017401CE001F051FA0500DFF888023060776086
S31508001750414689B216F11400FFF733FF16F1080067
S31508001760FEF732FFDFF870020088401CDFF86812C7
S315080017700880280001F03CFA00202080BDE8F081AE
S315080017802DE9F04F89B004000D0016001F005FF028
S315080017900008DDF84C908E480078002805D046F2FF
S315080017A0AE10A9F800000020C6E0002C05D145F6C9
S315080017B0C350A9F800000020BEE0002F05D146F26C
S315080017C0D520A9F800000020B6E0B6B230000028FF
S315080017D002D0B0F5004F1FD120687E49884221D13A
S315080017E0DDF848A0BAF1000F02D00020CAF80000C0
S315080017F001F0FAF980464B465246390014F11400B6
S31508001800FFF7E9FE8346B9F80000002810D14046E4
S3150800181001F0EEF958468FE045F62560A9F8000074
S31508001820002089E045F6C450A9F80000002083E0AE
S31508001830300408D5404601F0DBF946F2B010A9F8A5
S315080018400000002078E065480078002808D0404667
S3150800185001F0CEF946F66350A9F8000000206BE0C7
S315080018602B000522210000A8FEF764FE404601F081
S31508001870BFF9FEF747FD01F0B7F9804658480068FA
S3150800188090F83500002805D0022838D017D3032849
S3150800189026D045E052480068D0F85CB05048006849
S315080018A0B0F860003880BAF1000F04D04C480068E0
S315080018B0006CCAF800000020A9F8000038E05FF0C4
S315080018C0000B00203880BAF1000F04D044480068A5
S315080018D0006CCAF8000046F2A910A9F8000027E033
S315080018E05FF0000B00203880BAF1000F02D000200C
S315080018F0CAF8000047F2D920A9F8000018E05FF0FE
S31508001900000B00203880BAF1000F04D03448006874
S31508001910006CCAF8000045F6C250A9F8000007E0B6
S315080019205FF0000B0020388046F62E60A9F800000C
S31508001930404601F05DF9584609B0BDE8F08F2DE93B
S31508001940FC4105000E0017009846089C002D03D19F
S3150800195045F6C35020802AE01FFA88F8404600283A
S3150800196015D0102813D0B0F5007F10D0B0F5047F3D
S315080019700DD0B0F5004F0AD048F21001884206D0C3
S31508001980B0F5024F03D048F21021884211D12868D9
S315080019901049884211D101F094F901940090434608
S315080019A09BB23A0092B23100280000F01BF8BDE85D
S315080019B0F38145F625602080F9E745F6C450208076
S315080019C0F5E70021044A11800021018070470000D4
S315080019D0F42B002051554555EE2B0020F92B0020FD
S315080019E0E02B00202DE9F04F83B004000D0016000F
S315080019F01F005FF0000A01F0F7F8824614F10800AC
S31508001A00DDF83080DDF834900189002914D1F80614
S31508001A1001D4002300E01023CDF80490CDF800800F
S31508001A209BB2320092B2290014F11400FFF70BFEA4
S31508001A30504601F0DDF825E0B90502D5B0F808B042
S31508001A4001E05FF0010B00680DE0816840680190D5
S31508001A50CDF8008033009BB22A002000FEF72AFE4C
S31508001A600198BBF1010B1FFA8BFBBBF1000FECD100
S31508001A70504601F0BDF8380401D4FEF743FC0020B7
S31508001A80A9F80000BDE8F78F2DE9F04105000E0022
S31508001A9090461C000027DFF838020078002803D09B
S31508001AA042F6E160208020E0002D03D145F6C350C0
S31508001AB020801AE001F098F80700DFF8180228607D
S31508001AC0C5F814800020A8616E6015F10800FEF7BD
S31508001AD07BFDDFF804020088401CDFF8FC11088053
S31508001AE0380001F085F800202080BDE8F0812DE956
S31508001AF0F04389B006000F00914698460024109DD1
S31508001B0073480078002804D046F2AE1028800020DA
S31508001B107AE0002E04D145F6C3502880002073E0F1
S31508001B201FFA89F94846002802D0B0F5004F20D19F
S31508001B3030686849884221D1B8F1000F02D00020E8
S31508001B40C8F8000001F050F80400706900281AD09F
S31508001B507069401E7061B8F1000F02D0B069C8F80C
S31508001B6000007669200001F043F800202880300044
S31508001B704AE045F625602880002045E045F6C45031
S31508001B802880002040E05FEA094008D576692000F1
S31508001B9001F02EF846F2B0102880300034E04F48A5
S31508001BA00078002807D0200001F022F846F6635096
S31508001BB02880002028E03B000622310000A8FEF716
S31508001BC0B9FC200001F014F8FEF79CFB01F00CF8B4
S31508001BD004004348006890F83500002805D002281C
S31508001BE02BD014D303281ED033E0B8F1000F04D04D
S31508001BF03B480068006CC8F8000000202880766919
S31508001C00200000F0F5FF300009B0BDE8F083B8F118
S31508001C10000F04D032480068006CC8F8000046F28D
S31508001C20A9102880EBE7B8F1000F02D00020C8F809
S31508001C30000047F2D9202880E1E7B8F1000F04D068
S31508001C4027480068006CC8F8000045F6C25028808E
S31508001C50D5E746F62E602880200000F0C9FF002050
S31508001C60D2E770B505000E001400002D04D145F624
S31508001C70C3502080002019E0B6B23000002808D0F2
S31508001C80B0F5007F05D0B0F5004F02D0B0F5024F91
S31508001C900DD128680F4988420ED101F012F80200CA
S31508001CA02300310089B2280000F01CF870BD45F603
S31508001CB0256020800020F9E745F6C45020800020E2
S31508001CC0F4E70021044A11800021018070470000D2
S31508001CD0F42B002053454D41F02B0020F92B002012
S31508001CE0E02B00202DE9F04782B004000D00160015
S31508001CF01F005FF0000800F077FF804614F1080027
S31508001D000189002918D1606910F1010F07D14046F1
S31508001D1000F06EFF46F6C5503880002033E0606953
S31508001D20401C6061D4F81490A661404600F060FF3C
S31508001D3000203880484626E0A90502D5B0F8089064
S31508001D4001E05FF00109D0F800A00BE0DAF808100E
S31508001D50DAF804A00096002300222000FEF7AAFC69
S31508001D60B9F101091FFA89F9B9F1000FEED1D4F8D2
S31508001D701490404600F03CFF280401D4FEF7C2FA4E
S31508001D80002038804846BDE8F68750F8041B61B144
S31508001D9050F8042BD30744BFA9F101039A1800236E
S31508001DA042F8043B091FFAD1EFE770472DE9F24FD5
S31508001DB082B00600170098460024149DDFF86C05CB
S31508001DC00078002803D047F24A102880A7E0002EA2
S31508001DD003D147F2AD102880A1E03800002803D1CE
S31508001DE047F24F1028809AE0DDF83490B9F1000FD9
S31508001DF003D146F62F60288091E0DDF83CA0DFF895
S31508001E0048050068824503D246F63060288086E099
S31508001E10DDF838B0D34503D346F6316028807EE036
S31508001E200C9CE4B2202C03D346F27320288076E07B
S31508001E30E4B21F2C07D1DFF81405864203D046F218
S31508001E40732028806BE0300000F0EBF90020288032
S31508001E50139DE8070AD5A80708D54846002103E0D8
S31508001E6000220260001D491C5145F9D319EB8B0B62
S31508001E70ADB20195CDF800A05B464A46414638000A
S31508001E80FEF70CFEB762C6F82C800299316286F816
S31508001E9037403060C6F808B011987065002804D13C
S31508001EA0DFF8AC040068B06500E0B06512987060B1
S31508001EB0C6F82490C6F838A0B587002005E00021AA
S31508001EC0C0B216EB8002D167401CC0B20028F6D01B
S31508001ED0109916F16400FFF774FB3000FEF7C3FD96
S31508001EE000F082FE040096F83700FEF7AFFE3000D9
S31508001EF0FEF78EFCDFF830050088401CDFF8281551
S31508001F000880DFF828050078012803D0200000F0B3
S31508001F106FFE04E0200000F06BFEFEF7F3F9BDE863
S31508001F20F78FF8B505000C000026DFF800040078E6
S31508001F30002803D047F24E10208044E0DFF80C0456
S31508001F40854203D147F24C1020803CE0002D08D191
S31508001F5000F04AFE0600DFF8D8030568300000F0F6
S31508001F6047FE00F041FE060095F8360000280BD023
S31508001F7002282ED029D3042826D02AD3062828D0EA
S31508001F8023D3072825D03AE02800FEF77DFC15F173
S31508001F906400FFF7F4FA07002800FEF76DFDDFF886
S31508001FA088040088401EDFF880140880280000F0A6
S31508001FB038F9FF2085F83600300000F019FE0020B9
S31508001FC02080FEF79FF9F1BDE1E7280000F03EFB0F
S31508001FD0DDE7280000F03AFB95F83400002808D021
S31508001FE0401E07D0401E04D0401E032802D9001FF9
S31508001FF004D103E02800FEF725FBFFE7C7E730001A
S3150800200000F0F6FD46F62D602080DCE72DE9F0416C
S315080020100700884616001C000025DFF81003007824
S31508002020002804D046F2AE1020800020D2E01FFA25
S3150800203088F84046002802D0B0F5004F49D1002E56
S3150800204001D00020306000F0CFFD0500DFF8E00386
S315080020500068406C002841D0DFF8D4030068406C63
S31508002060401EDFF8CC1309684864DFF8C40300682B
S31508002070476C002E04D0DFF8B8030068006C3060A7
S3150800208000F01FFEDFF8A8130968096C401ADFF88C
S31508002090A0130968C1F8A400DFF894030068D0F813
S315080020A0A800DFF88C130968D1F8A410884209D271
S315080020B0DFF87C030068D0F8A400DFF87413096819
S315080020C0C1F8A800280000F093FD00202080380001
S315080020D080E045F62560208000207BE05FEA084026
S315080020E007D5280000F084FD46F2B01020800020B5
S315080020F070E0DFF840030078002807D0280000F0D9
S3150800210077FD46F663502080002063E03B000722F7
S3150800211000210020FEF70EFA280000F069FDFEF700
S31508002120F1F800F061FD0500DFF80403006890F897
S315080021303500002804D001282ED0032837D03EE0E9
S31508002140002E26D0DFF8E8020068006C306000F048
S31508002150B8FDDFF8DC120968096C401ADFF8D012FE
S315080021600968C1F8A400DFF8C8020068D0F8A8001A
S31508002170DFF8BC120968D1F8A410884209D2DFF842
S31508002180B0020068D0F8A400DFF8A4120968C1F804
S31508002190A8000020208015E0002E04D0DFF8900269
S315080021A00068006C306046F2A91020800AE0002E14
S315080021B001D00020306047F2D920208002E046F6A0
S315080021C02E602080DFF868020068476C280000F05F
S315080021D00FFD3800BDE8F08170B504000D0016004B
S315080021E0ADB22800002802D0B0F5004F09D100F0A2
S315080021F068FD02003300290089B2200000F0AAF821
S3150800220003E045F625603080002070BD0021DFF828
S31508002210182211800021DFF8202211600021018098
S31508002220704710B50400002020600020A060002040
S3150800223060600020E06000202061002060610020CE
S31508002240A0610020E061DFF8F401206200206062EE
S315080022500020A0620020E062002020630020E087C2
S31508002260002020640020E0650020A4F8600000211A
S3150800227014F16400FFF7A5F9002060670020A06745
S315080022800020C4F880000020A4F888000020C4F8C4
S315080022908400002005E00021C0B214EB8002D1675B
S315080022A0401CC0B20028F6D0002060640020C4F8A4
S315080022B0A4000020C4F8A8000020A063002084F829
S315080022C08A000020C4F8B0000020C4F8AC00002042
S315080022D0A0875FF00040A0640020E064002020652D
S315080022E0002060650020A0650020A4F88C0000206E
S315080022F0A4F88E000020C4F890000020C4F89400CA
S3150800230000F0DFFCC4F898000020C4F89C00002008
S3150800231084F83400002084F83500002084F836005C
S31508002320202084F8370010BD00000000F42B0020A0
S31508002330E02B002080B53E480068FEF7A6FB00A902
S315080023400020FFF7EEFD01BD6C460008C026002000
S31508002350C02B00202DE9F04182B007000C00904602
S315080023601E00002500F040FC0500002F01D1304872
S315080023700768C7F840800020308097F836000028A4
S315080023800BD002281DD008D3042806D019D3062856
S3150800239017D002D3072814D03CE0786C10F1010F4F
S315080023A007D1280000F024FC46F6C55030800020EE
S315080023B038E0786C401C78647E6C280000F018FCC5
S315080023C02FE097F83400072810D1CDF800800023B5
S315080023D0002239000020FEF76DF97E6C280000F017
S315080023E007FC200415D4FDF78DFF12E0786C10F178
S315080023F0010F07D1280000F0FBFB46F6C5503080D8
S3150800240000200FE0786C401C78647E6C280000F091
S31508002410EFFB06E0280000F0EBFB46F62D60308067
S3150800242000263000BDE8F681F22B0020F52B0020AF
S31508002430E02B0020F92B0020C42B00204046000882
S3150800244000B583B000AB01AA00210020FFF7DEFD2E
S31508002450BDF800100029F5D1DFF8C403007801287B
S31508002460F0D100F014F9EDE710B58AB004000020A9
S31508002470DFF8B01308600020DFF8AC13086000F03E
S3150800248042F8DFF8A8030068002803D147F21220B3
S31508002490208036E0DFF898030068DFF898130968AB
S315080024A0884203D247F2132020802AE0DFF8880307
S315080024B000781F2803D347F21120208021E00894D2
S315080024C00B2007900020069000200590002004901D
S315080024D0DFF85C0300680390DFF860030068029089
S315080024E0DFF8480300680190DFF84C030078009095
S315080024F00023DFF84C23DFF84C13DFF84C03FFF713
S3150800250055FC0AB010BD00200BE080B2DFF83C1382
S3150800251011EBC00100220A6000228A800022CA80CC
S31508002520401CDFF82C13098880B28842EDD3704727
S3150800253030B492B2042A29D1BA4A12688A1A521EAB
S31508002540C44CA24209D30021C164002101650021BF
S31508002550C16147F27E20188076E0C164511C01658E
S31508002560C16CBB4A1288B1FBF2F402FB141189B2A2
S31508002570B64A12EBC1018A88002A32D1002242618A
S3150800258000228261086001228A8054E000291ED058
S3150800259092B2082A15D1826C8C18A24A1268A21A1D
S315080025A0521E8A4201D2C46403E09E4A1268891800
S315080025B0C164C16C9B4A1268891A0165C16C816441
S315080025C0CEE7984A12688A18C2640165C8E70021EE
S315080025D0C164002101650021C16147F27E2018808F
S315080025E032E00A6805E0946984614261606190613D
S315080025F00022002A1CD0D46C8A4D2D68641B1465F1
S31508002600146D056DAC420AD25469002C01D052698A
S31508002610EFE700244461826150610022E9E794698A
S31508002620002CE0D100248461426190610860DFE7F4
S315080026308A88521C8A80CA888C88A24201D28A88D3
S31508002640CA80C1610020188030BC7047C169002962
S315080026501CD0002202650A68824206D142690A60D5
S31508002660002A08D00023936105E082694369536113
S31508002670002B00D09A61002242610022826100226A
S31508002680C2610022C2648888401E888070472DE98E
S31508002690F041002400F0A8FA040000F012FB05003F
S315080026A060480068401C5F4908605E4800686849E1
S315080026B00988B0FBF1F201FB120080B2634911EB05
S315080026C0C000D0F80080002600E0B846F6B2002E1A
S315080026D040F09780B8F1000F00F09180D8F8147098
S315080026E098F8360000280BD0022809D009D3042808
S315080026F006D01CD3062803D042D3072856D0E4E7D1
S31508002700E3E7D8F84C0047490968401AC8F850006A
S3150800271044480068D8F84C10884206D1002088F84A
S3150800272036004046FEF77FF900E00126CDE7D8F8E7
S315080027304C003C490968401AC8F8500039480068F6
S31508002740D8F84C10884219D10020C8F85C0000203F
S31508002750A8F8600000F0B5FAC8F840004046FDF752
S3150800276071FF4046FEF75FF9002088F8360003201F
S3150800277088F83500002088F8340000E00126A4E730
S31508002780D8F84C0027490968401AC8F85000254867
S315080027900068D8F84C10884206D1042088F836001C
S315080027A04046FFF753FF00E001268EE7D8F84C00B5
S315080027B01C490968401AC8F850001A480068D8F831
S315080027C04C10884219D10020C8F85C000020A8F8EF
S315080027D0600000F076FAC8F840004046FDF732FF80
S315080027E04046FFF733FF042088F83600032088F8B0
S315080027F03500002088F8340000E0012665E7012648
S3150800280064E700F05EFA401B07490968814201D275
S3150800281005490860200000F0EBF9BDE8F0810000EA
S31508002820F52B0020C82B0020CC2B0020744600086E
S315080028307C4600086C4600088E4500087846000865
S3150800284041240008DC45000874270020DC28002005
S31508002850B63900080100FFFF00B589B0A749096825
S31508002860002908D0A6490968A44A1268B1FBF2F102
S31508002870A44A116006E0A24909680A22B1FBF2F1EE
S31508002880A04A11609F4909689F4A116000219A4A27
S31508002890116000219D4A116000210AE089B29C4A14
S315080028A012EBC102002393800023D3800023136018
S315080028B0491C984A128889B29142EFD39649096809
S315080028C0002903D147F2473101802DE09349096871
S315080028D0934A1268914203D247F24831018023E0B5
S315080028E0904909781F2903D347F2463101801BE036
S315080028F008900B20079000200690002005900020E5
S3150800290004908648006803908748006802908248C9
S315080029100068019083480078009000230FF22D127A
S3150800292082498348FFF742FA09B000BD10B4022273
S3150800293080F82A2089B2012905D1416A6E4A1268AF
S31508002940511881610DE0016A002905D1416A6A4A78
S3150800295012685118816104E0016A674A12685118C1
S31508002960816181696B4A1288B1FBF2F302FB13118C
S3150800297089B2674A12EBC1010A68002A07D1002208
S315080029800261002242610860012088802EE0826987
S31508002990594B1B68D21AC2610B6805E05A69426135
S315080029A00361106158610023002B1CD09A69524CB0
S315080029B02468121BDA61DA69C469A2420AD21A6962
S315080029C0002A01D01B69EFE7002202614361186102
S315080029D00023E9E75A69002AE0D10022426103612F
S315080029E058610860DFE78888401C8880C8888A881C
S315080029F0904201D28888C88010BC70478169454AD0
S31508002A001288B1FBF2F302FB131189B2404A12EBAA
S31508002A10C1010A68824206D102690A60002A08D002
S31508002A200023536105E0426903691361002B00D056
S31508002A305A61012280F82A2000220261002242619E
S31508002A408888401E8880704700000000F0B583B073
S31508002A500BE000F036F9041B00A8FDF7C6FC2B486E
S31508002A600068A04201D22948046000AB01AA0021EF
S31508002A700020FFF7CBFA050000A8FDF78AFC00F056
S31508002A8020F904001C480068401C1B4908601A48C5
S31508002A90006820490988B0FBF1F201FB120080B2F8
S31508002AA01B4911EBC0000668002700E00127FFB2AA
S31508002AB0002FCED1002EF9D035690F480068B169CC
S31508002AC0884216D13000FFF799FF308D022804D1CD
S31508002AD001213000FFF72AFF02E0032086F82A00CA
S31508002AE0B2681000002802D0F168300090472E0026
S31508002AF0DDE70127DBE70000D42B00208846000825
S31508002B0070460008D82B0020DC2B0020D02B002094
S31508002B1064290020523B00088C46000894460008A9
S31508002B206C4600088F45000890460008B045000826
S31508002B30282800200E480F480F481048104811480A
S31508002B40114812481248134813481448144815489F
S31508002B50154816481648174817481848184819486F
S31508002B6019481A481A481B481B481C48704700BF92
S31508002B70A0460008484600084C460008504600088B
S31508002B8054460008584600085C4600086046000897
S31508002B90CA32000864460008684600086C46000801
S31508002BA0704600088E4500087446000878460008F6
S31508002BB07C46000880460008B639000884460008A6
S31508002BC08F450008884600088C460008904600088D
S31508002BD09446000898460008523B00089C460008A0
S31508002BE072B6704762B67047EFF3108072B67047D8
S31508002BF080F31088704730BF704720BF7047B0FA1F
S31508002C0080F0704790FAA0F0B0FA80F0704790FA1A
S31508002C10A0F070471748FF210170002080F309884B
S31508002C201548016881F3088814481549016062B699
S31508002C30FEE772B6EFF3098028B1203880E8F00F76
S31508002C4010490968086000B50F4880475DF804EB2D
S31508002C500E480F490A7802700A480E490A68026047
S31508002C60106890E8F00F203080F309884EF0040EC3
S31508002C7062B6704722ED00E0982B002004ED00E0D4
S31508002C8000000010E02B00201D0B0008F62B00208A
S31508002C90F72B0020E42B002080B50B48006850F085
S31508002CA080700949086000200849086008480068DB
S31508002CB050F001000649086000F0FFFA00F019FB21
S31508002CC001BD024800687047FCED00E0041000E012
S31508002CD0001000E0F8B505000E0014000027DFF824
S31508002CE0E0000078002803D047F27520208040E0F5
S31508002CF0DFF8D0000078002803D046F6635020801D
S31508002D0037E0B6B23000002805D0022803D00428E0
S31508002D101FD008281ED1002D03D147F27E2020801F
S31508002D2027E0FFF761FF07000120DFF89C1009681C
S31508002D3081F836002300320092B229002248006842
S31508002D40FFF7F6FB2088002808D03800FFF750FF69
S31508002D500FE0E6E745F6256020800AE01A48006895
S31508002D60FDF792FD3800FFF743FFFDF7CBFA002089
S31508002D702080F1BD10B582B0FDF7FBFE00AA002148
S31508002D801248FFF729FA0400114800780C21114A65
S31508002D9001FB0020FDF7A6FD0F480068401E0E49FE
S31508002DA008600D480068002808D10C4800680A49E0
S31508002DB0086000AA00210A48FFF70EFA13BD0000B2
S31508002DC0F42B0020F92B0020E02B0020742700208C
S31508002DD0F62B002054200020DC2B0020D82B0020C6
S31508002DE02828002080B5022000F096FA102000F06E
S31508002DF09FFA00F0AFFA5FF46011002000F0DAFAEB
S31508002E00012000F0E2FA022000F0E3FA002000F0C8
S31508002E10EAFA4FF4806000F0F0FA002000F0F7FAC2
S31508002E20392000F083FB0028FAD0012000F0FAFAD6
S31508002E30612000F07BFB0028FAD00121042000F075
S31508002E4055FB0121082000F051FB0121102000F05C
S31508002E504DFB0121012000F049FB01214FF4804080
S31508002E6000F044FB01215FF4003000F04FFB012124
S31508002E705FF4802000F04AFB01214FF4804000F007
S31508002E8045FB00F007F800F091F900F003F900F0AF
S31508002E90C3F901BDE0B54FF6FF70ADF8000010208C
S31508002EA08DF8030003208DF8020000A9DFF8D0038F
S31508002EB000F07CFB00A9DFF8CC0300F077FB4FF6A7
S31508002EC0FF71DFF8BC0300F0E3FB4FF6FF71DFF894
S31508002ED0B40300F0DDFB4FF48060ADF80000042079
S31508002EE08DF8030000A9E64800F060FB4FF4007077
S31508002EF0ADF8000003208DF8020018208DF80300B5
S31508002F0000A9DF4800F052FB0820ADF800000420B5
S31508002F108DF8030000A9DA4800F048FB0420ADF854
S31508002F20000003208DF8020018208DF8030000A980
S31508002F30D34800F03BFB4FF40060ADF800000420D6
S31508002F408DF8030000A9CF4800F030FB4FF48060ED
S31508002F50ADF8000003208DF8020018208DF8030054
S31508002F6000A9C84800F022FB4FF40050ADF8000055
S31508002F7018208DF8030003208DF8020000A9C14827
S31508002F8000F014FB4FF48040ADF8000048208DF89F
S31508002F90030003208DF8020000A9BA4800F006FBDA
S31508002FA04FF40040ADF8000018208DF80300032008
S31508002FB08DF8020000A9B34800F0F8FA4FF48050E3
S31508002FC0ADF8000010208DF8030003208DF80200EC
S31508002FD000A9AC4800F0EAFA48F2F210ADF8000091
S31508002FE010208DF8030003208DF8020000A9A448DC
S31508002FF000F0DCFA0121A44800F04DFB4021A0486E
S3150800300000F046FB48F282119D4800F041FB40F271
S31508003010E720ADF8000010208DF8030003208DF896
S31508003020020000A9974800F0C1FA4FF43871954894
S3150800303000F02BFB4FF40050ADF8000010208DF87F
S31508003040030003208DF8020000A9904800F0AEFAAC
S315080030504FF400518D4800F01BFB0120ADF800002D
S3150800306048208DF8030000A9854800F09FFA002142
S31508003070002000F04FFB0120019000208DF8080089
S315080030800C208DF8090001208DF80A0001A800F02F
S315080030906FFB07BD00B585B04FF4166000904FF47E
S315080030A08050ADF804004FF48060ADF808000020A9
S315080030B0ADF806000C20ADF80A000020ADF80C00AB
S315080030C000A9734800F0B8FB0121714800F016FC0E
S315080030D0002240F226616E4800F01EFC002240F2F3
S315080030E027716B4800F018FC012240F22551684808
S315080030F000F012FC4FF4166000904FF48050ADF8C3
S3150800310004004FF48060ADF808000020ADF8060012
S315080031100C20ADF80A000020ADF80C0000A95D48A7
S3150800312000F08AFB01215B4800F0E8FB002240F230
S315080031302661584800F0F0FB002240F227715548F6
S3150800314000F0EAFB012240F22551524800F0E4FB68
S315080031505FF4E13000900020ADF804000020ADF8DF
S3150800316008000020ADF806000C20ADF80A00002083
S31508003170ADF80C0000A9484800F05EFB012146485E
S3150800318000F0BCFB002240F22661434800F0C4FB75
S31508003190002240F22771404800F0BEFB012240F2AF
S315080031A025513D4800F0B8FB05B000BD80B54FF489
S315080031B0E06000F001FC25208DF8000000208DF865
S315080031C0020001208DF8030000A800F0FAFB272072
S315080031D08DF8000001208DF8020001208DF803000B
S315080031E000A800F0EEFB26208DF8000002208DF8DE
S315080031F0020001208DF8030000A800F0E2FB06207B
S315080032008DF8000003208DF8020001208DF80300D8
S3150800321000A800F0D6FB01BD00B585B00820ADF8C2
S315080032200C000120ADF808000220ADF806000020C9
S31508003230ADF804000020ADF800000020ADF80E003F
S315080032404FF40070ADF80A004FF48270ADF8020032
S315080032500720ADF8100000A9104800F0EDFB002289
S3150800326071210E4800F016FC002260210B4800F080
S3150800327011FC0121094800F0FFFB05B000BD000064
S3150800328000080140000C0140000230000010014017
S315080032900038014000440040004800400038004023
S315080032A080B545F2555000F00BFC032000F00CFCED
S315080032B000F00EFC00F011FC01BD00B585B000A8B9
S315080032C000F0B4F8019805B000BD640080B500F0C0
S315080032D017F800F011F801BD10B50024FFF784FCBB
S315080032E0040010210A4800F001FC2000FFF780FCCA
S315080032F010BD08490860704780B5FFF7EDFF01BDAE
S3150800330080B5002003490860FFF7C6FC01BD000030
S31508003310782B0020942B00200021DFF83420126837
S31508003320110011F038010143DFF8240001607047ED
S31508003330DFF81C10096831F01001DFF8142011605D
S31508003340DFF80C1009680843DFF8041008607047B6
S3150800335000200240DFF81802006850F00100DFF88C
S3150800336010120860DFF80C020068DFF80C1208403B
S31508003370DFF800120860DFF8F8010068DFF8FC11D2
S315080033800840DFF8EC110860DFF8E401006830F463
S315080033908020DFF8DC110860DFF8D801006830F417
S315080033A0FE00DFF8D01108605FF41F00DFF8D011C7
S315080033B00860704700226F4B1B681A0032F47C12B3
S315080033C0084302436B4802607047C0B26D49086003
S315080033D070470021674A126811008908890001436D
S315080033E06448016070470021624A1268110031F092
S315080033F0F00101435F480160704700215D4A126889
S31508003400110031F4E06101435A4801607047002118
S31508003410584A1268110031F4605151EAC001554802
S3150800342001607047C0B259490860704730B400223D
S315080034300021002300244F4D2D6815F00C052A00A5
S31508003440002A04D0042A05D0082A06D021E05049CB
S31508003450016020E04E4901601DE04649096811F403
S315080034607011444A126812F48033890C891C002BA7
S3150800347003D1484A514301600AE03E4A1268920362
S3150800348003D5444A5143016002E0414A5143016071
S3150800349001E03F4901603749096811F0F002120955
S315080034A03D49545C0168E14041603249096811F4BC
S315080034B0E062120A3849545C4168E14081602D494E
S315080034C0096811F46052D20A3349545C4168E140F4
S315080034D0C1602849096811F44042920B2F49545C8F
S315080034E0C168B1FBF4F1016130BC7047C9B200296B
S315080034F005D02B49096808432949086005E0284989
S31508003500096831EA0000264908607047C9B20029EF
S3150800351005D02449096808432249086005E021497D
S31508003520096831EA00001F490860704710B4002294
S3150800353000230021C0B24409E4B22200012A02D1C4
S315080035400B490B6806E0022A02D10F490B6801E015
S3150800355015490B68C0B210F01F0233FA02F0C00713
S3150800356001D5012100E000210800C0B210BC704757
S3150800357000100240041002400000FFF8FFFFF6FEAC
S315080035800810024060004242201002408004424275
S3150800359000127A0000093D000000002010000020FB
S315080035A0181002401C10024024100240F0B40022F9
S315080035B00026002400250023002791F803C01CF0EC
S315080035C00F0C624691F803C05FEACC6C01D58B7884
S315080035D01A430B781B0621D00368002406E0CD7831
S315080035E0482D02D10125A5400561641C082C14D27A
S315080035F00125A5400E882E40AE42F6D1A5000F261D
S3150800360016FA05F7BB4312FA05F52B43CD78282D94
S31508003610E5D10125A5404561E7E703600B88FF2B47
S3150800362026DD4368002420E0012514F10806B5408C
S315080036300E882E40AE4217D1A5000F2616FA05F7BA
S31508003640BB4312FA05F52B43CD78282D04D1012565
S3150800365014F10806B5404561CD78482D04D10125F9
S3150800366014F10806B5400561641C082CDCD34360D8
S31508003670F0BC70470022806889B2084201D0012256
S3150800368000E000221000C0B2704789B2016170479D
S3150800369089B24161704770B40022002400230025D6
S315080036A0002802D52F4A136801E02F4A1368C0F391
S315080036B0034582B210F44014B4F5401F08D133F024
S315080036C07063294C246834F07064274D2C600FE031
S315080036D0C40205D50324AC40A34353F0706307E046
S315080036E0440DE4B2240112FA04F4A34353F07063C0
S315080036F0C9B2002905D0410DC9B2090112FA01F172
S315080037000B43002802D51748036001E016480360FA
S3150800371070BC704710B400220F2311F00304E4B202
S31508003720A400A3401A00C9B28B10104C54F82330D9
S3150800373033EA0202C9B28B100C4C44F82320C9B2F2
S315080037408A100A4B53F82220C0B211F00303DBB2E9
S315080037509B0098401043C9B28910044A42F82100D8
S3150800376010BC70471C0001400400014008000140DD
S3150800377000212C4A11008279002A35D0294A12687C
S3150800378003689A43274B1A60274A126803689A43C4
S31508003790254B1A60027951180A6803681A430A60A9
S315080037A02249096802689143204A1160204909683C
S315080037B0026891431E4A1160417910290CD11B49B0
S315080037C0096802681143194A1160194909680068AD
S315080037D00843174908600EE01249427951180A68E9
S315080037E000681043086006E0027951180A68006804
S315080037F032EA00000860704700210022094B1B6866
S3150800380003401A000B4B1B68034203D0002A01D061
S31508003810012100E000210800C0B270470549086090
S3150800382070470000000401400404014008040140F8
S315080038300C04014014040140F0B585B004000D00E5
S3150800384000200021002200230026AF89002F260031
S31508003850208A4CF6FF710840E98808432082A0892F
S315080038604EF6F3110840A9882A8911436A8911433B
S315080038700843A081A08A4FF6FF410840A98908435A
S31508003880A08200A8FFF7D2FD1B48864201D1039902
S3150800389000E00299A089000407D5192000FB01F071
S315080038A029684900B0FBF1F206E0192000FB01F097
S315080038B029688900B0FBF1F26420B2FBF0F0000140
S315080038C00109642303FB1123A189090408D5D9003A
S315080038D032316422B1FBF2F111F00701084307E027
S315080038E0190132316422B1FBF2F111F00F010843DC
S315080038F0208105B0F0BD000000380140C9B200299A
S3150800390004D0818951F40051818104E081894DF602
S31508003910FF72114081817047F0B40023002400250E
S31508003920002689B240F66A17B94206000800C0B2F6
S315080039304309DBB289B211F01F04012010FA04F51D
S31508003940012B01D10C3604E0022B01D1103600E020
S315080039501436D2B2002A03D030682843306002E019
S315080039603068A8433060F0BC7047C905C90D81802E
S3150800397070478088C005C00D7047002289B2B1F52E
S31508003980007F0088084201D0012200E000221000D2
S31508003990C0B2704710B40022002389B240F66A14F8
S315080039A0A14289B20A0A012111FA02F39BB2D9434C
S315080039B0018010BC704711001A4908431A4908606B
S315080039C0704710B4002100220F23C478002C1DD0A4
S315080039D01549096811F4E061D1F5E061090AD1F1E8
S315080039E00402CB404178914082781A40114309017C
S315080039F002780E4BD1540121027812F01F02914031
S31508003A00007840110A4A42F8201009E0012102789C
S31508003A1012F01F02914000784011064A42F8201021
S31508003A2010BC70470000FA050CED00E000E400E069
S31508003A3000E100E080E100E010B4002203881A00EB
S31508003A4012F441520B884C8823438C882343CC8834
S31508003A5023430C8923434C8923438C892343CC89EC
S31508003A6023431A430280828B4FF2FF731A408283E4
S31508003A70098A018210BC7047C9B2002904D001889E
S31508003A8051F04001018004E001884FF6BF721140F1
S31508003A900180704710B400230024C9B20909C9B2CD
S31508003AA00B00012199400C00D2B2002A03D081886C
S31508003AB02143818002E08188A143818010BC704740
S31508003AC080B2084908607047C0B207490860704765
S31508003AD04AF6AA200349086070474CF6CC400149CB
S31508003AE008607047003000400430004080B50A0086
S31508003AF0002100F001F801BD30B4002A27D00028C3
S31508003B0025D00023002403E01B02C9B20B43641C22
S31508003B10042CF9D30425B0FBF5F404FB1504E4B230
S31508003B20002C08D003E00170401C521E641C002AB9
S31508003B3001D0042CF7D302E00360001D121F042AEB
S31508003B40FAD202E00170401C521E002AFAD130BC9B
S31508003B50704711002DE9F04385B000275FF0000893
S31508003B600026002506E0FFB2012F03D12600002714
S31508003B705FF0000802A8019003A800900DF10A035F
S31508003B800022C821DFF84003FDF7FAFD0100BDF861
S31508003B90080047F2D9229042E5D091F8009002AA8F
S31508003BA0DFF82803FDF773FC002E11D102A9DFF810
S31508003BB02003FDF749FC0600BDF80800002800D0E0
S31508003BC000BF34004FF4807200212000FFF794FFF5
S31508003BD0FFB2002F0BD15FFA89F9B9F1680F35D119
S31508003BE086F80090761C5FF0000801272EE086F81C
S31508003BF00090761C301B0B2802D1A07A10F10D0814
S31508003C005FFA88F8B8F1000F20D0301B5FFA88F801
S31508003C1040451BDB16F8010C162813D15FFA88F805
S31508003C20B8F1020189B2200000F021F816F8021C4A
S31508003C30C0B281420AD101250024002600275FF080
S31508003C40000803E0260000275FF00008EDB2012D0A
S31508003C5090D102A8009000235FFA88F8424692B2F3
S31508003C602100DFF87002FDF76AFE002582E710B42E
S31508003C700022002303E09BB21C5CA2185B1C9BB2CB
S31508003C8089B28B42F7D31000C0B210BC704700004F
S31508003C902DE9F04385B000275FF0000800260025CF
S31508003CA006E0FFB2012F03D1260000275FF00008C7
S31508003CB002A8019003A800900DF10A030022C8216A
S31508003CC0DFF81402FDF75CFD0100BDF8080047F2B5
S31508003CD0D9229042E5D091F8009002AADFF8EC01CB
S31508003CE0FDF7D5FB002E11D102A9DFF8E401FDF797
S31508003CF0ABFB0600BDF80800002800D000BF340062
S31508003D004FF4807200212000FFF7F6FEFFB2002F65
S31508003D100BD15FFA89F9B9F1680F35D186F80090A9
S31508003D20761C5FF0000801272EE086F80090761CC6
S31508003D30301B0B2802D1A07A10F10D085FFA88F81B
S31508003D40B8F1000F20D0301B5FFA88F840451BDB1E
S31508003D5016F8010C162813D15FFA88F8B8F1020193
S31508003D6089B22000FFF783FF16F8021CC0B2814211
S31508003D700AD101250024002600275FF0000803E089
S31508003D80260000275FF00008EDB2012D90D15FF004
S31508003D9000088DE71FB50DF10A00019003A80090F1
S31508003DA002AB002200214B48FDF7EAFC0400BDF8EF
S31508003DB00810200000F057F90DF10A0221004448C6
S31508003DC0FDF765FBE7E71FB50DF10A00019003A8AB
S31508003DD0009002AB002200214348FDF7D1FC040005
S31508003DE0BDF80810200000F0EEF80DF10A022100D7
S31508003DF03748FDF74CFBE7E780B513E04021394823
S31508003E00FFF743FC00AA00214FF47A70FEF762FF21
S31508003E1040213448FFF73CFC00AA00214FF47A7091
S31508003E20FEF758FF314800780028E7D040212D4892
S31508003E30FFF72BFC00AA00214FF49670FEF74AFF05
S31508003E4040212848FFF724FC00AA00214FF4967069
S31508003E50FEF740FFE6E700B585B002A8019003A883
S31508003E6000904FF48473002201212148FCF74BFF90
S31508003E7002AA00214FF4FA70FEF72CFF0121184818
S31508003E80FFF7F8FB0028E8D14FF400411448FFF784
S31508003E90FCFB4FF400511148FFF7FAFB4FF4007191
S31508003EA01048FFF7F2FB02AA00216420FEF712FF72
S31508003EB04FF400710B48FFF7EBFB02AA00216420C0
S31508003EC0FEF708FFEAE70000642A0020602B0020BE
S31508003ED0482B0020D02A0020882A00200010014004
S31508003EE000080140000C0140AC2A0020FC2B0020F1
S31508003EF02C2B0020704700001CB520218A48FFF7AC
S31508003F003CFD002815D08848FFF733FD040001A9B9
S31508003F108648FDF799FA01000C7001A80090002365
S31508003F2001228348FDF70BFDBDF80400002800D0E8
S31508003F3000BF40217C48FFF720FD00280ED040F244
S31508003F4026617948FFF726FD01AA00217948FDF781
S31508003F5088FEBDF80400002800D000BF13BD00008D
S31508003F601CB520217448FFF708FD002815D07248B3
S31508003F70FFF7FFFC040001A96C48FDF765FA01008C
S31508003F800C7001A80090002301226C48FDF7D7FCAD
S31508003F90BDF80400002800D000BF40216648FFF79E
S31508003FA0ECFC00280ED040F226616348FFF7F2FCCD
S31508003FB001AA00216248FDF754FEBDF80400002856
S31508003FC000D000BF13BD70B584B004000D001021E9
S31508003FD05C48FFF75AFB012240F226615648FFF774
S31508003FE09BFC002610E00020ADF8040001A8009014
S31508003FF002AB00224FF4FA715148FDF778FDFE2115
S315080040004D48FFF7B2FC761CB6B2042EEBDB002651
S3150800401012E00020ADF8040001A8009002AB0022CF
S315080040204FF4FA714648FDF762FDB6B2315D89B2C2
S315080040304148FFF79AFC761CB6B2ADB2AE42E8D359
S31508004040002240F226613C48FFF766FC40213A48C8
S31508004050FFF793FC0028F9D010213A48FFF718FB20
S31508004060012004B070BD70B584B004000D000421B1
S315080040703548FFF70AFB012240F226612A48FFF776
S315080040804BFC002610E00020ADF8040001A80090C3
S3150800409002AB00224FF4FA712948FDF728FDFE21EC
S315080040A02548FFF762FC761CB6B2042EEBDB002629
S315080040B012E00020ADF8040001A8009002AB00222F
S315080040C04FF4FA711B48FDF712FDB6B2315D89B29D
S315080040D01548FFF74AFC761CB6B2ADB2AE42E8D335
S315080040E0002240F226611048FFF716FC40210E48D0
S315080040F0FFF743FC0028F9D004211348FFF7C8FA54
S31508004100012004B070BD80B50120FFF775FB0028BB
S3150800411008D000AB002201210C48FCF7FAFF012069
S31508004120FFF77CFB01BD000000480040602B002023
S31508004130882A0020F42A002000440040642A00202F
S31508004140102B002000080140000C01402C2B0020F9
S3150800415000B58BB0FEF744FD09A8FBF7C7FF09A811
S315080041600890032007900020069000200590002064
S315080041700490802003900C2002909A480190032016
S31508004180009000230FF2150297499848FDF70EFE96
S3150800419009A8FCF763F900200BB000BD80B5FEF74F
S315080041A021FEFFF793F8FFF788F84FF47A71B0FB12
S315080041B0F1F0FCF7F9FC00F01BF800F0ADF8FFF79A
S315080041C06FF8FFF785FC80218948FFF75EFA00AA99
S315080041D000214FF47A70FEF77DFD80218448FFF7B1
S315080041E057FA00AA00214FF47A70FEF773FDE8E744
S315080041F000B58BB009A80890032007900020069008
S315080042000020059000200490802003900C20029046
S3150800421078480190042000900023774A6FA17748D8
S31508004220FDF7C4FD09A80890032007900020069012
S315080042300020059000200490802003900C20029016
S315080042406F4801900520009000236E4A6E496F481A
S31508004250FDF7ACFD09A808900320079000200690FA
S315080042600020059000200490802003900C200290E6
S3150800427067480190072000900023664A58A16648BF
S31508004280FDF794FD09A808900320079000200690E2
S315080042900020059000200490802003900C200290B6
S315080042A05E4801900820009000235D4A4CA15D48B5
S315080042B0FDF77CFD09A808900320079000200690CA
S315080042C00020059000200490802003900C20029086
S315080042D0554801900B2000900023544A54495548EC
S315080042E0FDF764FD09A808900320079000200690B2
S315080042F00020059000200490802003900C20029056
S315080043004D4801900C20009000234C4A4C494D48DA
S31508004310FDF74CFD0BB000BDE0B502A801904FF4C7
S31508004320807000900423484A2DA14848FDF724F8D8
S31508004330BDF8080000284FD102A80190042000907B
S315080043401E23434A26A14348FDF716F8BDF8080080
S31508004350002841D102AB002221A13F48FDF794FB7A
S31508004360BDF80800002837D102AB00221CA13B4843
S31508004370FDF78AFBBDF8080000282DD102AB0522FF
S3150800438037493848FDF7BEF9BDF80800002823D19B
S3150800439002AB052234493548FDF7B4F9BDF80800E3
S315080043A0002819D102AB05220DA13148FDF7AAF95B
S315080043B0BDF8080000280FD102AB052208A12D4838
S315080043C0FDF7A0F9BDF80800002805D102AB0022C8
S315080043D003A12948FCF764FC07BD0000553200001C
S315080043E000000000540A002018460008D4210020C6
S315080043F0000C014054100020553B0008F023002013
S31508004400540E0020913C0008204600083C2300205A
S3150800441054120020953D0008A424002054140020BE
S31508004420C73D000858250020540C0020F93D000817
S31508004430284600088822002054160020573E000807
S31508004440004600080C26002054060020482B0020B1
S31508004450EC290020602B0020102B0020F42A0020D5
S3150800446030460008642A002038460008882A0020BA
S31508004470AC2A0020D02A00202C2B002080B5144816
S31508004480006850F001001249086012480068124995
S315080044900840104908600E480068104908400C4951
S315080044A008600B48006830F480200949086009480C
S315080044B0006830F4FE00074908605FF41F000849E9
S315080044C0086000F011F85FF000600649086001BD59
S315080044D000100240041002400000FFF8FFFFF6FE3D
S315080044E00810024008ED00E070477047FEE7FEE757
S315080044F0FEE7FEE77047704780B5FCF743FB01BD52
S3150800450080B5FFF7F7FC01BD80B5FFF729FD01BDB2
S3150800451080B5FFF7F1FC01BD80B5FFF7F4FD01BDDD
S3150800452010B5074979441831064C7C44163404E022
S315080045300A68081D511888470146A142F8D110BDDE
S31508004540080000002800000043D8FFFFEC2B0000FD
S315080045501400002000000000F3CDFFFF1400000047
S31508004560E0010000000000200000000000F00BF849
S31508004570002801D0FFF7D4FF0020C046C046FFF749
S31508004580E7FD00F002F80120704700F001B80610B8
S315080045900746384600F002F8FBE7000080B5C0463B
S315080045A0C046024A11001820ABBEFBE726000200EF
S315080045B075432F4F532D4949492054696D6572201B
S315080045C05461736B0000000075432F4F532D494902
S315080045D0492049646C65205461736B0075432F4FFD
S315080045E0532D494949205469636B205461736B0004
S315080045F001488047014800477D4400080D460008E9
S315080046004F7665724C6F616400000000C046C04674
S31508004610C046C046FFF7AAFF535441525400000053
S3150800462055315F33000000004C454431000000005E
S31508004630736C6176650000007265616400000000B5
S315080046403F5461736B000000541800200C000000F2
S315080046508000000000020000541A002080000000BC
S315080046600002000040060000140000204000000080
S31508004670E8030000541C00200C0000008000000025
S3150800468000020000880000000A000000541E0020F6
S315080046900C000000800000000002000088000000F6
S315080046A0500F0000FFF7FEBFFFF7FEBFFFF7FEBF84
S315080046B0FFF7FEBFFFF7FEBFFFF7FEBFFFF7FEBF20
S315080046C0FFF7FEBFFFF7FEBFFFF7FEBFFFF7FEBF10
S315080046D0FFF7FEBFFFF7FEBFFFF7FEBFFFF7FEBF00
S315080046E0FFF7FEBFFFF7FEBFFFF7FEBFFFF7FEBFF0
S315080046F0FFF7FEBFFFF7FEBFFFF7FEBFFFF7FEBFE0
S31508004700FFF7FEBFFFF7FEBFFFF7FEBFFFF7FEBFCF
S31508004710FFF7FEBFFFF7FEBFFFF7FEBFFFF7FEBFBF
S31508004720FFF7FEBFFFF7FEBFFFF7FEBFFFF7FEBFAF
S31508004730FFF7FEBFFFF7FEBFFFF7FEBFFFF7FEBF9F
S315080047400000000001020304010203040607080929
S309080047500204060843
S7050800460D9F
