S00C0000546573742E7372656378
S31508000000402E0020B94C0008B34B0008B54B000839
S31508000010B74B0008B94B0008BB4B000800000000AE
S31508000020000000000000000000000000BD4B0008B2
S31508000030BF4B000800000000872E0008C14B0008CF
S315080000406D4D0008714D0008754D0008794D000882
S315080000507D4D0008814D0008854D0008894D000832
S315080000608D4D0008914D0008954D0008994D0008E2
S315080000709D4D0008A14D0008A54D0008A94D000892
S31508000080AD4D0008B14D0008B54D0008B94D000842
S31508000090BD4D0008C14D0008C54D0008C94D0008F2
S315080000A0CD4D0008D14D0008D54D0008D94D0008A2
S315080000B0DD4D0008E14D0008E54D0008E94D000852
S315080000C0ED4D0008F14D0008F54D0008F94D000802
S315080000D0FD4D0008C94B0008D14B0008D94B000854
S315080000E0E14B0008014E0008054E000810B5040053
S315080000F000F0AFFC0020DFF8781808700020DFF861
S31508000100741808700020DFF8701808700020DFF8EF
S315080001106C1808600020DFF8681808600020DFF80F
S31508000120641808700020DFF8601808700020DFF8EF
S315080001305C1808700020DFF858180870DFF85408B3
S3150800014000680A21B0FBF1F0DFF84C180860DFF808
S315080001504C08006800280ED0DFF84408006800281C
S3150800016009D0DFF83818096803E0491E0022026042
S31508000170001D0029F9D10020DFF8281808600020A2
S31508000180DFF8241808600020DFF82018086000202F
S31508000190DFF81C1808600020DFF81818086000202F
S315080001A0DFF8141808600020DFF81018086000202F
S315080001B0DFF80C18087000F02FFD00F0E6FA2000B2
S315080001C000F0E9FF2088002837D1200001F087F9E0
S315080001D02088002831D1200001F08EF920880028D7
S315080001E02BD1200001F086FA2088002825D120008E
S315080001F001F0E7FB208800281FD1200001F061FDEF
S315080002002088002819D1200002F000F8208800284C
S3150800021013D1200000F066F9208800280DD12000AF
S3150800022002F022F92088002807D1200002F039FCC4
S315080002302088002801D102F0A7FD10BD10B50024C2
S31508000240DFF83007007801285BD102F0F7FD0400DB
S31508000250DFF81C070078002803D1200002F0F2FD21
S315080002604FE0DFF80C070078401EDFF80417087027
S31508000270DFF8FC060078002803D0200002F0E2FD33
S315080002803FE0DFF8F4060078002803D0200002F0EB
S31508000290D9FD36E000F0CAFCDFF8EC160870DFF886
S315080002A0E80600780C21DFF81C2701FB002000680F
S315080002B0DFF8CC160860DFF8C8060068DFF8BC1659
S315080002C00968884203D1200002F0BCFD19E0DFF876
S315080002D0B0060068D0F89000401CDFF8A41609683C
S315080002E0C1F89000DFF8E0060068401CDFF8D81671
S315080002F008605FF08050DFF8D4160860200002F02E
S31508000300A1FD10BD10B50024DFF8640600780028AA
S315080003103ED1DFF864060078002839D102F08EFD58
S31508000320040000F083FCDFF860160870DFF8580652
S3150800033000780C21DFF88C2601FB00200068DFF826
S3150800034040160860DFF838060068DFF830160968D6
S31508000350884203D1200002F075FD19E0DFF8200677
S315080003600068D0F89000401CDFF814160968C1F838
S315080003709000DFF854060068401CDFF84C16086049
S315080003805FF08050DFF844160860200002F05AFD3E
S3150800039010BD10B504000020DFF8D415097800292F
S315080003A003D046F6625020801EE0DFF8C8050078C4
S315080003B0012803D045F68960208015E0DFF8B805E6
S315080003C00078FA2803DB45F2092020800CE002F0C9
S315080003D035FDDFF8A4150978491CDFF89C2511704E
S315080003E002F030FD0020208010BD10B5040000206A
S315080003F0DFF87C150978002903D046F66550208079
S315080004002BE0DFF870050078012803D045F68960EF
S31508000410208022E0DFF860050078002803D146F640
S315080004206450208019E002F009FDDFF84C150978C0
S31508000430491EDFF844251170DFF83C1509780029B4
S3150800044005D002F0FFFC46F66350208005E002F076
S31508000450F9FCFFF757FF0020208010BD10B50400F7
S31508000460DFF810050078002826D100F0DFFBDFF85A
S3150800047018150870DFF810050078DFF808150870F9
S31508000480DFF8040500780C21DFF8382501FB002089
S315080004900068DFF8EC140860DFF8E4040068DFF8A9
S315080004A0DC1408600120DFF8CC14087002F0DCFCCC
S315080004B043F69920208002E045F68A60208010BD28
S315080004C080B5002102F0BAFC0100DFF804050068D7
S315080004D0401CDFF8FC241060080002F0B3FC00F0B2
S315080004E0AFFAEFE700B589B00021DFF8E424116020
S315080004F008900B2007900020069000200590002009
S315080005000490DFF8D00400680390DFF8CC04006894
S315080005100290DFF8C804006801901F2000900023AD
S31508000520DFF8BC24DFF8BC14DFF8BC0401F03EFC9D
S3150800053009B000BD70B504000D001900DFF83C04D1
S31508000540006880F834200020DFF83024126882F82A
S315080005503500DFF82804006800F048FA002D0ED0B0
S3150800056015F10806E56001222100DFF8100400688D
S3150800057000F010F82100300000F02DF809E0002006
S31508000580DFF8F8130968C8870020DFF8F013096850
S31508000590086370BD10B4C287016300230EE000240F
S315080005A04C6000240C6000240C6100244C6100247B
S315080005B00C830024CC61886020315B1C9BB292B20C
S315080005C09342ECD310BC70470021016000214160C2
S315080005D000210181704710B48A6892F83720038990
S315080005E0002B08D10122028100224A6000220A60FB
S315080005F00160416024E003895B1C0381046800E014
S315080006006468002C05D0A36893F83730D2B29A42B2
S31508000610F6D2002C06D100224A6042680A60516070
S3150800062041600DE02268002A05D1216000220A6097
S315080006304C60016004E022680A604C6051602160E9
S3150800064010BC704770B50400266BE58F06E0F068AD
S315080006500830310000F00AF820366D1EADB2002DC4
S31508000660F5D10020E0870020206370BD0289012AA9
S3150800067004D1002202600022426013E00A68002AC0
S3150800068004D14B6800221A6003600BE04A68002A0E
S3150800069004D10A6800235360426003E00A684B6885
S315080006A053601A600289521E0281002048600020A9
S315080006B00860704738B505000C00049894F83610A1
S315080006C000290BD002290AD008D3042906D006D35C
S315080006D0062925D002D3072922D042E041E094F822
S315080006E03410032906D100909BB22100280000F09F
S315080006F039F803E0E265A4F860302064002D02D0E2
S315080007002000FFF79FFF200000F08DF9002084F8F5
S315080007103600002084F83500002084F8340020E0F4
S3150800072094F83410032906D100909BB221002800C2
S3150800073000F018F803E0E265A4F8603020642000B1
S3150800074001F084FF002D02D02000FFF77BFF042074
S3150800075084F83600002084F83500002084F8340038
S31508000760FFE731BD30B40C6BC98F01E02034491E58
S3150800077089B2002907D0E568A842F7D120616261ED
S3150800078023830298E06130BC704700200BE0C0B2BA
S315080007900C218C4A01FB002100220A8100220A60F2
S315080007A000224A60401CC0B22028F0D3704710B51A
S315080007B0040094F8370000F049FA94F837007149B4
S315080007C00978884203D1200000F022F802E02000D0
S315080007D000F001F810BD90F837100C22794B02FB97
S315080007E001310A89002A08D101220A810022C26041
S315080007F0002202610860486009E00A89521C0A81E1
S315080008000A68C260002202610A68106108607047BF
S3150800081090F837100C226B4B02FB01310A89002A2B
S3150800082008D101220A810022C26000220261086002
S31508000830486008E00A89521C0A810022C2604A6898
S315080008400261D0604860704710B40189002902D05F
S31508000850022901D00BD215E0016842680A6100231B
S31508000860CB6000231361D160026041600AE0016831
S315080008704268CB6800241C610024CC600A61D16000
S315080008800360416010BC704710B5040094F8370047
S315080008900C214C4A01FB00202169E268002913D18A
S315080008A0002A0AD10021018100210160002141604E
S315080008B094F8370000F0DDF90FE00189491E01813F
S315080008C000211161026008E003895B1E0381CA608A
S315080008D0002A01D1416000E011610020206100205A
S315080008E0E06010BD38B504000025294800780128C5
S315080008F03CD102F0A3FA05002068002803D128009D
S3150800090002F0A0FA32E03849884203D1280002F002
S3150800091099FA2BE0816D002902D0816D491E816507
S31508000920806D002803D0280002F08CFA1EE020898A
S31508000930022803DA280002F085FA17E00E48007844
S31508000940002803D0280002F07DFA0FE02000FFF708
S315080009507BFF2068416D002903D10F49096881652D
S3150800096001E0416D8165280002F06CFA31BD000096
S31508000970322C0020332C0020372C00201C2C002081
S31508000980202C0020342C0020352C0020362C00206A
S31508000990382C0020384D0008FC2B0020244D000878
S315080009A0204D0008DC2B0020E02B0020E42B002043
S315080009B0E82B0020EC2B0020F02B0020F42B002045
S315080009C0392C002064200020002C002004ED00E0D3
S315080009D0F82B0020184D0008144D0008104D00088B
S315080009E0C1040008904C0008D026002010B582B03B
S315080009F00400002910D000AB0222200001F098FD67
S31508000A00BDF80000002803D1032084F8360006E06C
S31508000A10022084F8360002E0022084F8360020001E
S31508000A20FFF732FF13BD10B50400200001F00EFEDB
S31508000A3094F83600400702D42000FFF7B8FE10BD30
S31508000A4080B565480068002802D06348006880477A
S31508000A5001BD624800686249096811EB8000001F01
S31508000A6060490860704780B55F490968002902D067
S31508000A705D490968884701BD80B55C490968002950
S31508000A8002D05A490968884701BD80B5584909689E
S31508000A90002902D056490968884701BD10B40400E8
S31508000AA0019812EB8000001F5FF080720260001F41
S31508000AB00460001F4F4A0260001F5FF01232026096
S31508000AC0001F5FF003320260001F5FF0023202600F
S31508000AD0001F0360001F0160001F5FF011310160F5
S31508000AE0001F5FF010310160001F5FF009310160DF
S31508000AF0001F5FF008310160001F5FF007310160D9
S31508000B00001F5FF006310160001F5FF005310160CC
S31508000B10001F5FF00431016010BC704780B536488D
S31508000B200068002802D034480068804702F0F3F9CC
S31508000B3032490968324A1268914215D02F49096824
S31508000B40D1F89810411A2D4A1268C2F894102B4908
S31508000B500968D1F89C10294A1268D2F894205118CD
S31508000B60264A1268C2F89C1025490968C1F89800F7
S31508000B7001BD80B523480068002802D021480068D6
S31508000B80804701BD10B5002402F058F904001E483C
S31508000B900078401C1C490870200002F053F902F046
S31508000BA013FAFFF74BFB10BD401E1849086018489A
S31508000BB000680002000A164908601648006850F0E6
S31508000BC00500144908601348006850F002001149EE
S31508000BD00860704700000000E82B0020244D00083C
S31508000BE0204D0008D42B0020DC2B0020E02B002011
S31508000BF0E42B002035230008F02B00201C2C0020B5
S31508000C00202C0020F42B0020322C002014E000E0D9
S31508000C1020ED00E010E000E0002004E000211F4A7B
S31508000C2042F82010401C0028F8D0704710B5002460
S31508000C301A4801E02034001D01680029FAD000682E
S31508000C4002F007F904192000C0B210BDC0B242096B
S31508000C50C0B210F01F010120D1F11F018840D2B2A5
S31508000C600E4951F822100843D2B20C4941F8220025
S31508000C707047C0B24209C0B210F01F010120D1F17D
S31508000C801F018840D2B2054951F8221031EA000006
S31508000C90D2B2024941F8220070470000D82B002042
S31508000CA02DE9F04105000F0090461C000026DFF8EC
S31508000CB0F4040078002803D042F6E160208020E0A2
S31508000CC0002D03D145F6C35020801AE002F0B6F88D
S31508000CD00600DFF8D40428606F60C5F81480002089
S31508000CE0A86115F10800FFF76FFCDFF8C00400885B
S31508000CF0401CDFF8B8140880300002F0A3F8002082
S31508000D002080BDE8F0812DE9F44F8AB004000D007B
S31508000D101E005FF0000A159FDFF888040078002897
S31508000D2004D046F2AE1038800020E2E1002C04D14F
S31508000D3045F6C35038800020DBE1B6B23000401ECD
S31508000D4001281AD9C01E18D0001F16D0F938012854
S31508000D5013D9C01E11D0001F0FD047F6F961401AEB
S31508000D6001280AD9C01E08D0001F06D0F938012864
S31508000D7003D9C01E01D0001F09D12068DFF8281446
S31508000D80884209D1F0050CD55FF001080BE045F65D
S31508000D90256038800020ACE145F6C4503880002034
S31508000DA0A7E15FF00008DDF85090B9F1000F02D016
S31508000DB00020C9F8000016F00F00ADF8040002F094
S31508000DC03DF88246BDF80400012800F0B1800228EB
S31508000DD000F0F180042802D0082864D02EE160696A
S31508000DE015EA000BAB451AD15FFA88F8B8F1010F7E
S31508000DF003D1606930EA0B006061DFF8B40300686C
S31508000E00C0F884B0B9F1000F02D0A069C9F8000093
S31508000E10504602F017F800203880584669E1300439
S31508000E2007D5504602F00EF846F2B010388000207A
S31508000E305FE1DFF880030078002807D0504602F00B
S31508000E4001F846F663503880002052E10A9800906F
S31508000E5033009BB22A00210002A800F089F9504607
S31508000E6001F0F0FFFFF74EFA01F0E8FF8246DFF8DF
S31508000E704003006890F83500002808D0022800F0E2
S31508000E800181C0F0E380032800F0EF8009E1B9F1A1
S31508000E90000F05D0DFF818030068006CC9F80000D9
S31508000EA00020388003E1606915EA000BBBF1000FEA
S31508000EB01AD05FFA88F8B8F1010F03D1606930EAF1
S31508000EC00B006061DFF8E8020068C0F884B0B9F189
S31508000ED0000F02D0A069C9F80000504601F0B2FF21
S31508000EE000203880584604E1300407D5504601F002
S31508000EF0A9FF46F2B01038800020FAE0DFF8B40205
S31508000F000078002807D0504601F09CFF46F663504B
S31508000F1038800020EDE00A98009033009BB22A0042
S31508000F20210002A800F024F9504601F08BFF99E74A
S31508000F30606935EA000BAB451AD15FFA88F8B8F153
S31508000F40010F03D160695BEA00006061DFF86002A7
S31508000F500068C0F884B0B9F1000F02D0A069C9F8DA
S31508000F600000504601F06EFF002038805846C0E069
S31508000F70300407D5504601F065FF46F2B0103880B8
S31508000F800020B6E08B480078002807D0504601F0CC
S31508000F9059FF46F6635038800020AAE00A98009068
S31508000FA033009BB22A00210002A800F0E1F850465F
S31508000FB001F048FF56E7606935EA000BBBF1000F00
S31508000FC019D05FFA88F8B8F1010F03D160695BEAB6
S31508000FD00000606176480068C0F884B0B9F1000F77
S31508000FE002D0A069C9F80000504601F02BFF002086
S31508000FF0388058467DE0300407D5504601F022FF78
S3150800100046F2B0103880002073E06A48007800285D
S3150800101007D0504601F016FF46F663503880002088
S3150800102067E00A98009033009BB22A00210002A8C4
S3150800103000F09EF8504601F005FF13E7504601F010
S3150800104001FF45F625603880002052E0B9F1000F0F
S3150800105004D057480068006CC9F80000504601F0F3
S31508001060F1FE46F2A910388021E0B9F1000F02D04E
S315080010700020C9F80000504601F0E4FE47F2D920E6
S31508001080388014E0B9F1000F04D049480068006CB4
S31508001090C9F80000504601F0D5FE45F6C250388022
S315080010A005E0504601F0CEFE46F62E6038803888B8
S315080010B0002801D000201CE03D480068D0F884B024
S315080010C05FFA88F8B8F1010F0DD1BDF804000128C0
S315080010D012D0022810D0042801D0082811D160693E
S315080010E030EA0B006061504601F0ACFE0020388003
S315080010F058460BB0BDE8F08F60695BEA0000606196
S31508001100F1E7504601F09EFE45F62560388000203E
S31508001110EFE7F8B505000E0017001C00002D04D1F6
S3150800112045F6C3502080002017E0BFB238000028DB
S31508001130012804D94FF40041401A01280ED828681E
S31508001140194988420FD101F0E6FE030000943A00DF
S3150800115092B23100280000F02FF8F2BD45F625605E
S3150800116020800020F9E745F6C45020800020F4E7E7
S3150800117010B50F4C2468C4F880200D4A1268A2F8EE
S31508001180883000220A4B1B68C3F88420029B012280
S31508001190FFF7D0F910BD0021044A11800021018013
S315080011A070470000322C0020464C4147242C002072
S315080011B01C2C0020372C00202DE9F8430600894610
S315080011C017009846002501F039FE0500089CBFB2B5
S315080011D03800002809D0012819D0B0F5004F04D0EE
S315080011E048F20101884212D016E0706959EA0000F7
S315080011F07061C6F8188016F108000189002913D114
S31508001200280001F01FFE00202080706970E07069D8
S3150800121030EA09007061ECE7280001F013FE45F694
S3150800122025602080002063E0D0F80090D9F80800F7
S3150800123001E0D9F80800002849D0D9F8049090F8B8
S31508001240881011F00F0189B2012920D002292BD06C
S31508001250042902D0082910D031E07169D0F880201D
S315080012601140D0F88020914202D1424600F042F85F
S31508001270B9F1000FDDD10020DDE77169D0F88020D3
S315080012801140002902D0424600F034F8F0E77169AF
S31508001290D0F8802032EA0101D0F88020914202D1AC
S315080012A0424600F027F8E3E77169D0F8802032EA71
S315080012B00101002902D0424600F01CF8D8E72800B0
S315080012C001F0C0FD43F6FF202080002010E0280032
S315080012D001F0B8FD380401D4FFF714F801F0AEFDAB
S315080012E005007669280001F0ADFD00202080300059
S315080012F0BDE8F28310B50400C4F88410002084F811
S315080013003500002084F83400226494F8360000285A
S315080013100BD002280AD008D3042806D006D30628FC
S315080013200BD002D3072808D00BE00AE02000FFF70D
S315080013307AFB002084F8360003E0042084F836009F
S31508001340FFE72000FFF77EF910BD10B450F8041B24
S3150800135081B102681218001D50F8043BDC0744BF2F
S31508001360A9F10104E31852F8044B43F8044B091F8A
S31508001370F9D1EBE710BC70472DE9F84305000E00DC
S31508001380170098460020DDF8249058490978002966
S3150800139004D045F2B960A9F8000053E0002F04D143
S315080013A045F2BB60A9F800004CE01FFA88F8B8F1CE
S315080013B0020F04DA45F2BC60A9F8000042E0089C76
S315080013C0A4B2042C04D245F2C160A9F8000039E0A1
S315080013D0032000280FD0074204D045F2BB60A9F8C5
S315080013E000002FE0210089B2014204D045F2C16015
S315080013F0A9F8000026E03B003A00B8F101010020F8
S3150800140004E0A4B2A2181A601300401C80B289B284
S315080014108842F6D30020186001F010FD344929608F
S31508001420AE606F60EF60A5F81480A5F812802C8274
S3150800143030490988491C2F4A118001F003FD002014
S31508001440A9F80000BDE8F18370B505000C0000207E
S31508001450002D04D145F2BF602080002016E001F07F
S31508001460EDFCA98A002906D101F0ECFC45F2C26020
S31508001470208000200AE0EE683168E960A98A491EE2
S31508001480A98201F0DFFC00202080300070BD70B515
S3150800149005000E0014000020002D03D145F2BF60A0
S315080014A020801BE0002E03D145F2BE60208015E0A7
S315080014B001F0C4FCA98A6A8A914205D301F0C2FCEC
S315080014C045F2BA60208009E0E9683160EE60A98AD1
S315080014D0491CA98201F0B6FC0020208070BD0021BD
S315080014E0044A11800021018070470000322C002038
S315080014F04D454D20262C002030B47B49096800292B
S3150800150003D145F21E71018037E078490988002920
S3150800151003D145F21D7101802FE073490968724AAB
S3150800152012681032714B1B885C1E002309E00A60A2
S3150800153000254D6000250D810025CD601031103243
S315080015405B1C9BB2A4B2A342F1D300220A6000221C
S315080015504A6000220A810022CA6063490968644A0F
S31508001560116062490988624A91800021604AD180E7
S3150800157000215F4A11810021018030BC70474189F2
S315080015804289002A1AD00268594B1B6813604268C0
S31508001590574B1A60564AD2884389D21A544BDA8076
S315080015A0534A928843899A18514B9A80002242815D
S315080015B0002282810022026000224260080080B276
S315080015C0704701810021418100218181002101604C
S315080015D000214160704770B44489002C0AD100206C
S315080015E00880002A01D00020106046F29250188028
S315080015F0002026E045686C682E890E80002A01D0F6
S31508001600E9681160296841604168002904D1002110
S3150800161001600021418102E04189491E4181344827
S31508001620006828603248056031488088401C304987
S3150800163088802F48C088401E2D49C8800020188001
S31508001640200070BC7047F0B4059C45890689B542F0
S3150800165003D346F29350208044E0254DAD88002DF3
S3150800166003D145F21D7020803CE0214D2D682E687F
S315080016701F4F3E601E4EB688761E1D4FBE801C4EFE
S31508001680F688761C1A4FFE80194E3689184FFF8841
S31508001690BE4203D2164EF688154F3E814689002E65
S315080016A006D1056045600123438100232B600DE0C8
S315080016B0DB0605D403681D60056000232B6002E085
S315080016C043682B60456043895B1C4381838946894F
S315080016D0B34201D24389838169602A810498E8600C
S315080016E000202080F0BC7047304D00080E340008FA
S315080016F0C42B00200021024A118000210180704776
S31508001700282C00202DE9F04106000F0090461C0009
S315080017100025DFF8BC020078002803D042F6E16015
S3150800172020802BE0002E03D145F6C350208025E00B
S315080017301FFA88F8B8F1000F03D146F294502080BA
S315080017401CE001F07BFB0500DFF88802306077605B
S31508001750414689B216F11400FFF733FF16F1080067
S31508001760FEF732FFDFF870020088401CDFF86812C7
S315080017700880280001F066FB00202080BDE8F08183
S315080017802DE9F04F89B004000D0016001F005FF028
S315080017900008DDF84C908E480078002805D046F2FF
S315080017A0AE10A9F800000020C6E0002C05D145F6C9
S315080017B0C350A9F800000020BEE0002F05D146F26C
S315080017C0D520A9F800000020B6E0B6B230000028FF
S315080017D002D0B0F5004F1FD120687E49884221D13A
S315080017E0DDF848A0BAF1000F02D00020CAF80000C0
S315080017F001F024FB80464B465246390014F114008A
S31508001800FFF7E9FE8346B9F80000002810D14046E4
S3150800181001F018FB58468FE045F62560A9F8000048
S31508001820002089E045F6C450A9F80000002083E0AE
S31508001830300408D5404601F005FB46F2B010A9F879
S315080018400000002078E065480078002808D0404667
S3150800185001F0F8FA46F66350A9F8000000206BE09C
S315080018602B000522210000A8FEF764FE404601F081
S31508001870E9FAFEF747FD01F0E1FA804658480068A4
S3150800188090F83500002805D0022838D017D3032849
S3150800189026D045E052480068D0F85CB05048006849
S315080018A0B0F860003880BAF1000F04D04C480068E0
S315080018B0006CCAF800000020A9F8000038E05FF0C4
S315080018C0000B00203880BAF1000F04D044480068A5
S315080018D0006CCAF8000046F2A910A9F8000027E033
S315080018E05FF0000B00203880BAF1000F02D000200C
S315080018F0CAF8000047F2D920A9F8000018E05FF0FE
S31508001900000B00203880BAF1000F04D03448006874
S31508001910006CCAF8000045F6C250A9F8000007E0B6
S315080019205FF0000B0020388046F62E60A9F800000C
S31508001930404601F087FA584609B0BDE8F08F2DE910
S31508001940FC4105000E0017009846089C002D03D19F
S3150800195045F6C35020802AE01FFA88F8404600283A
S3150800196015D0102813D0B0F5007F10D0B0F5047F3D
S315080019700DD0B0F5004F0AD048F21001884206D0C3
S31508001980B0F5024F03D048F21021884211D12868D9
S315080019901049884211D101F0BEFA019400904346DD
S315080019A09BB23A0092B23100280000F01BF8BDE85D
S315080019B0F38145F625602080F9E745F6C450208076
S315080019C0F5E70021044A11800021018070470000D4
S315080019D0322C0020515545552A2C0020372C002042
S315080019E01C2C00202DE9F04F83B004000D001600D2
S315080019F01F005FF0000A01F021FA824614F1080080
S31508001A00DDF83080DDF834900189002914D1F80614
S31508001A1001D4002300E01023CDF80490CDF800800F
S31508001A209BB2320092B2290014F11400FFF70BFEA4
S31508001A30504601F007FA25E0B90502D5B0F808B016
S31508001A4001E05FF0010B00680DE0816840680190D5
S31508001A50CDF8008033009BB22A002000FEF72AFE4C
S31508001A600198BBF1010B1FFA8BFBBBF1000FECD100
S31508001A70504601F0E7F9380401D4FEF743FC00208C
S31508001A80A9F80000BDE8F78F2DE9F04105000E0022
S31508001A9090461C000027DFF838020078002803D09B
S31508001AA042F6E160208020E0002D03D145F6C350C0
S31508001AB020801AE001F0C2F90700DFF81802286052
S31508001AC0C5F814800020A8616E6015F10800FEF7BD
S31508001AD07BFDDFF804020088401CDFF8FC11088053
S31508001AE0380001F0AFF900202080BDE8F0812DE92B
S31508001AF0F04389B006000F00914698460024109DD1
S31508001B0073480078002804D046F2AE1028800020DA
S31508001B107AE0002E04D145F6C3502880002073E0F1
S31508001B201FFA89F94846002802D0B0F5004F20D19F
S31508001B3030686849884221D1B8F1000F02D00020E8
S31508001B40C8F8000001F07AF90400706900281AD074
S31508001B507069401E7061B8F1000F02D0B069C8F80C
S31508001B6000007669200001F06DF900202880300019
S31508001B704AE045F625602880002045E045F6C45031
S31508001B802880002040E05FEA094008D576692000F1
S31508001B9001F058F946F2B0102880300034E04F487A
S31508001BA00078002807D0200001F04CF946F663506B
S31508001BB02880002028E03B000622310000A8FEF716
S31508001BC0B9FC200001F03EF9FEF79CFB01F036F95E
S31508001BD004004348006890F83500002805D002281C
S31508001BE02BD014D303281ED033E0B8F1000F04D04D
S31508001BF03B480068006CC8F8000000202880766919
S31508001C00200001F01FF9300009B0BDE8F083B8F1F3
S31508001C10000F04D032480068006CC8F8000046F28D
S31508001C20A9102880EBE7B8F1000F02D00020C8F809
S31508001C30000047F2D9202880E1E7B8F1000F04D068
S31508001C4027480068006CC8F8000045F6C25028808E
S31508001C50D5E746F62E602880200001F0F3F800202C
S31508001C60D2E770B505000E001400002D04D145F624
S31508001C70C3502080002019E0B6B23000002808D0F2
S31508001C80B0F5007F05D0B0F5004F02D0B0F5024F91
S31508001C900DD128680F4988420ED101F03CF902009F
S31508001CA02300310089B2280000F01CF870BD45F603
S31508001CB0256020800020F9E745F6C45020800020E2
S31508001CC0F4E70021044A11800021018070470000D2
S31508001CD0322C002053454D412C2C0020372C002057
S31508001CE01C2C00202DE9F04782B004000D001600D8
S31508001CF01F005FF0000801F0A1F8804614F1080003
S31508001D000189002918D1606910F1010F07D14046F1
S31508001D1001F098F846F6C5503880002033E060692F
S31508001D20401C6061D4F81490A661404601F08AF818
S31508001D3000203880484626E0A90502D5B0F8089064
S31508001D4001E05FF00109D0F800A00BE0DAF808100E
S31508001D50DAF804A00096002300222000FEF7AAFC69
S31508001D60B9F101091FFA89F9B9F1000FEED1D4F8D2
S31508001D701490404601F066F8280401D4FEF7C2FA2A
S31508001D80002038804846BDE8F68750F8041B61B144
S31508001D9050F8042BD30744BFA9F101039A1800236E
S31508001DA042F8043B091FFAD1EFE770472DE9F24FD5
S31508001DB082B00600170098460024149DDFF86C05CB
S31508001DC00078002803D047F24A102880A7E0002EA2
S31508001DD003D147F2AD102880A1E03800002803D1CE
S31508001DE047F24F1028809AE0DDF83490B9F1000FD9
S31508001DF003D146F62F60288091E0DDF83CA0DFF895
S31508001E0048050068824503D246F63060288086E099
S31508001E10DDF838B0D34503D346F6316028807EE036
S31508001E200C9CE4B2202C03D346F27320288076E07B
S31508001E30E4B21F2C07D1DFF81405864203D046F218
S31508001E40732028806BE0300000F0EBF90020288032
S31508001E50139DE8070AD5A80708D54846002103E0D8
S31508001E6000220260001D491C5145F9D319EB8B0B62
S31508001E70ADB20195CDF800A05B464A46414638000A
S31508001E80FEF70CFEB762C6F82C800299316286F816
S31508001E9037403060C6F808B011987065002804D13C
S31508001EA0DFF8AC040068B06500E0B06512987060B1
S31508001EB0C6F82490C6F838A0B587002005E00021AA
S31508001EC0C0B216EB8002D167401CC0B20028F6D01B
S31508001ED0109916F16400FFF774FB3000FEF7C3FD96
S31508001EE000F0ACFF040096F83700FEF7AFFE3000AE
S31508001EF0FEF78EFCDFF830050088401CDFF8281551
S31508001F000880DFF828050078012803D0200000F0B3
S31508001F1099FF04E0200000F095FFFEF7F3F9BDE80D
S31508001F20F78FF8B505000C000026DFF800040078E6
S31508001F30002803D047F24E10208044E0DFF80C0456
S31508001F40854203D147F24C1020803CE0002D08D191
S31508001F5000F074FF0600DFF8D8030568300000F0CB
S31508001F6071FF00F06BFF060095F8360000280BD0CD
S31508001F7002282ED029D3042826D02AD3062828D0EA
S31508001F8023D3072825D03AE02800FEF77DFC15F173
S31508001F906400FFF7F4FA07002800FEF76DFDDFF886
S31508001FA088040088401EDFF880140880280000F0A6
S31508001FB038F9FF2085F83600300000F043FF00208E
S31508001FC02080FEF79FF9F1BDE1E7280000F03EFB0F
S31508001FD0DDE7280000F03AFB95F83400002808D021
S31508001FE0401E07D0401E04D0401E032802D9001FF9
S31508001FF004D103E02800FEF725FBFFE7C7E730001A
S3150800200000F020FF46F62D602080DCE72DE9F04140
S315080020100700884616001C000025DFF81003007824
S31508002020002804D046F2AE1020800020D2E01FFA25
S3150800203088F84046002802D0B0F5004F49D1002E56
S3150800204001D00020306000F0F9FE0500DFF8E0035B
S315080020500068406C002841D0DFF8D4030068406C63
S31508002060401EDFF8CC1309684864DFF8C40300682B
S31508002070476C002E04D0DFF8B8030068006C3060A7
S3150800208000F049FFDFF8A8130968096C401ADFF861
S31508002090A0130968C1F8A400DFF894030068D0F813
S315080020A0A800DFF88C130968D1F8A410884209D271
S315080020B0DFF87C030068D0F8A400DFF87413096819
S315080020C0C1F8A800280000F0BDFE002020803800D6
S315080020D080E045F62560208000207BE05FEA084026
S315080020E007D5280000F0AEFE46F2B010208000208A
S315080020F070E0DFF840030078002807D0280000F0D9
S31508002100A1FE46F663502080002063E03B000722CC
S3150800211000210020FEF70EFA280000F093FEFEF7D5
S31508002120F1F800F08BFE0500DFF80403006890F86C
S315080021303500002804D001282ED0032837D03EE0E9
S31508002140002E26D0DFF8E8020068006C306000F048
S31508002150E2FEDFF8DC120968096C401ADFF8D012D3
S315080021600968C1F8A400DFF8C8020068D0F8A8001A
S31508002170DFF8BC120968D1F8A410884209D2DFF842
S31508002180B0020068D0F8A400DFF8A4120968C1F804
S31508002190A8000020208015E0002E04D0DFF8900269
S315080021A00068006C306046F2A91020800AE0002E14
S315080021B001D00020306047F2D920208002E046F6A0
S315080021C02E602080DFF868020068476C280000F05F
S315080021D039FE3800BDE8F08170B504000D00160020
S315080021E0ADB22800002802D0B0F5004F09D100F0A2
S315080021F092FE02003300290089B2200000F0AAF8F6
S3150800220003E045F625603080002070BD0021DFF828
S31508002210182211800021DFF8202211600021018098
S31508002220704710B50400002020600020A060002040
S3150800223060600020E06000202061002060610020CE
S31508002240A0610020E061DFF8F401206200206062EE
S315080022500020A0620020E062002020630020E087C2
S31508002260002020640020E0650020A4F8600000211A
S3150800227014F16400FFF7A5F9002060670020A06745
S315080022800020C4F880000020A4F888000020C4F8C4
S315080022908400002005E00021C0B214EB8002D1675B
S315080022A0401CC0B20028F6D0002060640020C4F8A4
S315080022B0A4000020C4F8A8000020A063002084F829
S315080022C08A000020C4F8B0000020C4F8AC00002042
S315080022D0A0875FF00040A0640020E064002020652D
S315080022E0002060650020A0650020A4F88C0000206E
S315080022F0A4F88E000020C4F890000020C4F89400CA
S3150800230000F009FEC4F898000020C4F89C000020DC
S3150800231084F83400002084F83500002084F836005C
S31508002320202084F8370010BD00000000322C002061
S315080023301C2C002080B53E480068FEF7A6FB00A9C5
S315080023400020FFF7EEFD01BD344D0008D026002021
S31508002350FC2B00202DE9F04182B007000C009046C6
S315080023601E00002500F06AFD0500002F01D1304847
S315080023700768C7F840800020308097F836000028A4
S315080023800BD002281DD008D3042806D019D3062856
S3150800239017D002D3072814D03CE0786C10F1010F4F
S315080023A007D1280000F04EFD46F6C55030800020C3
S315080023B038E0786C401C78647E6C280000F042FD9A
S315080023C02FE097F83400072810D1CDF800800023B5
S315080023D0002239000020FEF76DF97E6C280000F017
S315080023E031FD200415D4FDF78DFF12E0786C10F14D
S315080023F0010F07D1280000F025FD46F6C5503080AC
S3150800240000200FE0786C401C78647E6C280000F091
S3150800241019FD06E0280000F015FD46F62D6030800F
S3150800242000263000BDE8F6812E2C0020332C002033
S315080024301C2C0020372C0020002C0020084D0008FA
S3150800244000B583B000AB01AA00210020FFF7DEFD2E
S31508002450BDF800100029F5D1DFF8C403007801287B
S31508002460F0D100F014F9EDE710B58AB004000020A9
S31508002470DFF8B01308600020DFF8AC13086000F03E
S3150800248042F8DFF8A8030068002803D147F21220B3
S31508002490208036E0DFF898030068DFF898130968AB
S315080024A0884203D247F2132020802AE0DFF8880307
S315080024B000781F2803D347F21120208021E00894D2
S315080024C00B2007900020069000200590002004901D
S315080024D0DFF85C0300680390DFF860030068029089
S315080024E0DFF8480300680190DFF84C030078009095
S315080024F00023DFF84C23DFF84C13DFF84C03FFF713
S3150800250055FC0AB010BD00200BE080B2DFF83C1382
S3150800251011EBC00100220A6000228A800022CA80CC
S31508002520401CDFF82C13098880B28842EDD3704727
S3150800253030B492B2042A29D1BA4A12688A1A521EAB
S31508002540C44CA24209D30021C164002101650021BF
S31508002550C16147F27E20188076E0C164511C01658E
S31508002560C16CBB4A1288B1FBF2F402FB141189B2A2
S31508002570B64A12EBC1018A88002A32D1002242618A
S3150800258000228261086001228A8054E000291ED058
S3150800259092B2082A15D1826C8C18A24A1268A21A1D
S315080025A0521E8A4201D2C46403E09E4A1268891800
S315080025B0C164C16C9B4A1268891A0165C16C816441
S315080025C0CEE7984A12688A18C2640165C8E70021EE
S315080025D0C164002101650021C16147F27E2018808F
S315080025E032E00A6805E0946984614261606190613D
S315080025F00022002A1CD0D46C8A4D2D68641B1465F1
S31508002600146D056DAC420AD25469002C01D052698A
S31508002610EFE700244461826150610022E9E794698A
S31508002620002CE0D100248461426190610860DFE7F4
S315080026308A88521C8A80CA888C88A24201D28A88D3
S31508002640CA80C1610020188030BC7047C169002962
S315080026501CD0002202650A68824206D142690A60D5
S31508002660002A08D00023936105E082694369536113
S31508002670002B00D09A61002242610022826100226A
S31508002680C2610022C2648888401E888070472DE98E
S31508002690F041002400F0D2FB040000F03CFC0500E9
S315080026A060480068401C5F4908605E4800686849E1
S315080026B00988B0FBF1F201FB120080B2634911EB05
S315080026C0C000D0F80080002600E0B846F6B2002E1A
S315080026D040F09780B8F1000F00F09180D8F8147098
S315080026E098F8360000280BD0022809D009D3042808
S315080026F006D01CD3062803D042D3072856D0E4E7D1
S31508002700E3E7D8F84C0047490968401AC8F850006A
S3150800271044480068D8F84C10884206D1002088F84A
S3150800272036004046FEF77FF900E00126CDE7D8F8E7
S315080027304C003C490968401AC8F8500039480068F6
S31508002740D8F84C10884219D10020C8F85C0000203F
S31508002750A8F8600000F0DFFBC8F840004046FDF727
S3150800276071FF4046FEF75FF9002088F8360003201F
S3150800277088F83500002088F8340000E00126A4E730
S31508002780D8F84C0027490968401AC8F85000254867
S315080027900068D8F84C10884206D1042088F836001C
S315080027A04046FFF753FF00E001268EE7D8F84C00B5
S315080027B01C490968401AC8F850001A480068D8F831
S315080027C04C10884219D10020C8F85C000020A8F8EF
S315080027D0600000F0A0FBC8F840004046FDF732FF55
S315080027E04046FFF733FF042088F83600032088F8B0
S315080027F03500002088F8340000E0012665E7012648
S3150800280064E700F088FB401B07490968814201D24A
S3150800281005490860200000F015FBBDE8F0810000BE
S31508002820332C0020042C0020082C00203C4D0008E6
S31508002830444D0008344D0008624C0008404D00081D
S3150800284041240008A44C000884270020EC28002016
S315080028503E3C00080100FFFF2DE9F84306000F0083
S315080028609046994600200B9DDFF8D4140978002974
S3150800287003D047F24330288038E0002E03D145F6CE
S31508002880C350288032E0089CA4B2200001282FD02B
S31508002890022835D1B9F1000F03D147F2403028801C
S315080028A024E000F0CBFA012186F82A10DFF8941408
S315080028B031607760C6F820800021B1610021F1619E
S315080028C0C6F8249034850999B1600A99F160002107
S315080028D0316100217161DFF870140988491CDFF83D
S315080028E06824118000F0AEFA00202880BDE8F18344
S315080028F0B8F1000F03D147F23F302880F6E7D0E75A
S3150800290045F625602880F1E738B505000C00DFF8A4
S3150800291030040078002804D047F243302080002095
S3150800292046E0002D04D147F24230208000203FE0E7
S315080029302868DFF81014884204D045F6C450208071
S31508002940002035E000A8FDF724FD95F82A000028A8
S315080029501ED0022803D010D303280ED020E028006A
S3150800296000F071F90021280000F005F900A8FDF72C
S315080029703CFD00202080012019E00021280000F0FD
S31508002980FAF800A8FDF731FD0020208001200EE0AE
S3150800299000A8FDF72AFD47F23D302080002006E01A
S315080029A000A8FDF722FD47F2413020800020C0B282
S315080029B032BDF8B505000F0016001C00DFF88003CD
S315080029C00078002804D047F243302080002067E0D2
S315080029D0002D04D147F242302080002060E02868AC
S315080029E0DFF86013884204D045F6C45020800020E2
S315080029F056E000A8FDF7CDFC95F82A0000283FD040
S31508002A00022803D034D3032832D041E0280000F04E
S31508002A101AF900202080BFB2002F20D0032F02D041
S31508002A20042F10D01CE0AA681000002803D0E9681B
S31508002A302800904702E047F24430208000A8FDF7BE
S31508002A40D4FC01202BE0AA681000002803D031002E
S31508002A502800904702E047F244302080EEE7EDE791
S31508002A6000A8FDF7C2FC45F625602080002017E087
S31508002A7000A8FDF7BAFC47F24930208001200EE095
S31508002A8000A8FDF7B2FC47F23D302080002006E0A2
S31508002A9000A8FDF7AAFC47F2413020800020C0B20A
S31508002AA0F2BD00B589B0AA490968002908D0A94924
S31508002AB00968A74A1268B1FBF2F1A74A116006E055
S31508002AC0A44909680A22B1FBF2F1A34A1160A24996
S31508002AD00968A24A116000219C4A11600021A04A97
S31508002AE0116000210AE089B29E4A12EBC102002356
S31508002AF093800023D38000231360491C9A4A1288C6
S31508002B0089B29142EFD399490968002903D147F25E
S31508002B10473101802DE096490968964A1268914224
S31508002B2003D247F24831018023E0934909781F29E7
S31508002B3003D347F2463101801BE008900B2007902B
S31508002B400020069000200590002004908848006820
S31508002B5003908A4800680290844800680190864875
S31508002B600078009000230FF22D1285498548FFF75B
S31508002B701DF909B000BD10B4022280F82A2089B2D6
S31508002B80012905D1416A714A1268511881610DE01F
S31508002B90016A002905D1416A6C4A12685118816197
S31508002BA004E0016A694A12685118816181696E4AAE
S31508002BB01288B1FBF2F302FB131189B2694A12EBD0
S31508002BC0C1010A68002A07D1002202610022426177
S31508002BD00860012088802EE082695C4B1B68D21A47
S31508002BE0C2610B6805E05A69426103611061586168
S31508002BF00023002B1CD09A69544C2468121BDA61F6
S31508002C00DA69C469A2420AD21A69002A01D01B6984
S31508002C10EFE700220261436118610023E9E75A6978
S31508002C20002AE0D100224261036158610860DFE7AB
S31508002C308888401C8880C8888A88904201D28888FB
S31508002C40C88010BC70478169474A1288B1FBF2F305
S31508002C5002FB131189B2434A12EBC1010A68824288
S31508002C6006D102690A60002A08D00023536105E0EC
S31508002C70426903691361002B00D05A61012280F86A
S31508002C802A2000220261002242618888401E88802C
S31508002C9070470000F0B583B00BE000F03CF9041B68
S31508002CA000A8FDF7A2FB2E480068A04201D22C48D6
S31508002CB0046000AB01AA00210020FFF7A7F9050070
S31508002CC000A8FDF766FB00F026F904001F48006817
S31508002CD0401C1E4908601D48006823490988B0FB46
S31508002CE0F1F201FB120080B21E4911EBC000066822
S31508002CF0002700E00127FFB2002FCED1002EF9D021
S31508002D00356912480068B169884216D13000FFF764
S31508002D109AFF308D022804D101213000FFF72BFFDE
S31508002D2002E0032086F82A00B2681000002802D0C4
S31508002D30F168300090472E00DDE70127DBE7000049
S31508002D40322C0020544D5220302C0020102C00200C
S31508002D50504D0008384D0008142C0020182C00206F
S31508002D600C2C002074290020564C0008544D0008ED
S31508002D705C4D0008344D0008634C0008584D0008A7
S31508002D80784C0008382800200E480F480F4810488D
S31508002D901048114811481248124813481348144855
S31508002DA01448154815481648164817481748184825
S31508002DB01848194819481A481A481B481B481C48F5
S31508002DC0704700BF684D0008104D0008144D0008F4
S31508002DD0184D00081C4D0008204D0008244D000819
S31508002DE0284D00080E3400082C4D0008304D000808
S31508002DF0344D0008384D0008624C00083C4D000868
S31508002E00404D0008444D0008484D00083E3C000867
S31508002E104C4D0008634C0008504D0008544D0008FE
S31508002E20584D00085C4D0008604D0008564C0008D7
S31508002E30644D000872B6704762B67047EFF31080AB
S31508002E4072B6704780F31088704730BF704720BF4E
S31508002E507047B0FA80F0704790FAA0F0B0FA80F0A8
S31508002E60704790FAA0F070471748FF2101700020BC
S31508002E7080F309881548016881F3088814481549BC
S31508002E80016062B6FEE772B6EFF3098028B1203812
S31508002E9080E8F00F10490968086000B50F488047B8
S31508002EA05DF804EB0E480F490A7802700A480E4985
S31508002EB00A680260106890E8F00F203080F30988ED
S31508002EC04EF0040E62B6704722ED00E0D42B0020C7
S31508002ED004ED00E0000000101C2C00201D0B00086B
S31508002EE0342C0020352C0020202C002080B50B48DF
S31508002EF0006850F080700949086000200849086099
S31508002F000848006850F001000649086000F077FAA2
S31508002F1000F091FA01BD024800687047FCED00E038
S31508002F20041000E0001000E0F8B505000E001400DB
S31508002F300027DFF8E0000078002803D047F2752064
S31508002F40208040E0DFF8D0000078002803D046F65D
S31508002F506350208037E0B6B23000002805D002283A
S31508002F6003D004281FD008281ED1002D03D147F20C
S31508002F707E20208027E0FFF761FF07000120DFF8A9
S31508002F809C10096881F836002300320092B22900A5
S31508002F9022480068FFF7CCFA2088002808D03800B5
S31508002FA0FFF750FF0FE0E6E745F6256020800AE0C8
S31508002FB01A480068FDF768FC3800FFF743FFFDF77D
S31508002FC0A1F900202080F1BD10B582B0FDF7D1FD32
S31508002FD000AA00211248FFF7FFF8040011480078FC
S31508002FE00C21114A01FB0020FDF77CFC0F48006804
S31508002FF0401E0E4908600D480068002808D10C4894
S3150800300000680A49086000AA00210A48FFF7E4F8A0
S3150800301013BD0000322C0020372C00201C2C002069
S3150800302084270020342C002064200020182C00203F
S31508003030142C00203828002080B5022000F00EFA53
S31508003040102000F017FA00F0C9FA5FF460110020AA
S3150800305000F0F4FA012000F0FCFA022000F0FDFA74
S31508003060002000F004FB4FF4806000F00AFB00200B
S3150800307000F011FB392000F09DFB0028FAD0012052
S3150800308000F014FB612000F095FB0028FAD001211E
S31508003090042000F06FFB0121082000F06BFB0121E2
S315080030A0102000F067FB0121012000F063FB0121DD
S315080030B04FF4804000F05EFB01215FF4003000F021
S315080030C069FB01215FF4802000F064FB00F005F83D
S315080030D000F052F900F0B6F801BDE0B54FF6FF7002
S315080030E0ADF8000010208DF8030003208DF80200CB
S315080030F000A99B4800F09EFB00A99A4800F09AFB9D
S315080031004FF6FF71964800F007FC4FF6FF71954899
S3150800311000F002FC4FF48060ADF8000004208DF842
S31508003120030000A98E4800F085FB4FF40070ADF847
S31508003130000003208DF8020018208DF8030000A96E
S31508003140874800F077FB0820ADF8000004208DF8CA
S31508003150030000A9824800F06DFB0420ADF80000CA
S3150800316003208DF8020018208DF8030000A97C487A
S3150800317000F060FB4FF40060ADF8000004208DF805
S31508003180030000A9774800F055FB4FF48060ADF8BE
S31508003190000003208DF8020018208DF8030000A90E
S315080031A0704800F047FB48F2F300ADF80000102025
S315080031B08DF8030003208DF8020000A9684800F086
S315080031C039FB0121684800F0AAFB48F2130164485C
S315080031D000F0A2FBE021624800F09BFB3F20ADF81F
S315080031E0000010208DF8030003208DF8020000A9C6
S315080031F05C4800F01FFB3E215A4800F08DFB012178
S31508003200584800F086FB4FF48050ADF8000048207F
S315080032108DF8030000A9524800F00CFB0C21002091
S3150800322000F0BCFB4FF48050019000208DF8080098
S315080032300C208DF8090001208DF80A0001A800F07D
S31508003240DBFB07BD00B585B04FF4166000904FF460
S315080032508050ADF804004FF48060ADF808000020F7
S31508003260ADF806000C20ADF80A000020ADF80C00F9
S3150800327000A93E4800F024FC01213C4800F082FCED
S31508003280002240F22661394800F08AFC002240F20A
S315080032902771364800F084FC012240F22551334854
S315080032A000F07EFC4FF4166000904FF48050ADF8A5
S315080032B004004FF48060ADF808000020ADF8060061
S315080032C00C20ADF80A000020ADF80C0000A928482B
S315080032D000F0F6FB0121264800F054FC002240F2DB
S315080032E02661234800F05CFC002240F22771204842
S315080032F000F056FC012240F225511D4800F050FC12
S315080033004FF4166000904FF48050ADF804004FF467
S315080033108060ADF808000020ADF806000C20ADF876
S315080033200A000020ADF80C0000A9124800F0C8FBFE
S315080033300121104800F026FC002240F226610D48C3
S3150800334000F02EFC002240F227710A4800F028FC03
S31508003350012240F22551074800F022FC05B000BDC5
S3150800336000080140000C014000023000003801400E
S31508003370004400400048004080B54FF4E06000F08B
S315080033805FFC25208DF8000000208DF80200012042
S315080033908DF8030000A800F058FC27208DF80000DF
S315080033A001208DF8020001208DF8030000A800F026
S315080033B04CFC26208DF8000002208DF80200012022
S315080033C08DF8030000A800F040FC28208DF80000C6
S315080033D003208DF8020001208DF8030000A800F0F4
S315080033E034FC01BD80B545F2555000F069FC032058
S315080033F000F06AFC00F06CFC00F06FFC01BD00B543
S3150800340085B000A800F056F9019805B000BD640023
S3150800341080B500F017F800F011F801BD10B50024CA
S31508003420FFF70CFD040010210A4800F05FFC20009D
S31508003430FFF708FD10BD08490860704780B5FFF71B
S31508003440EDFF01BD80B5002003490860FFF74EFD7A
S3150800345001BD0000B42B0020D02B00200021DFF88E
S3150800346034211268110011F038010143DFF82401F4
S3150800347001607047DFF81C11096831F01001DFF8A8
S3150800348014211160DFF80C1109680843DFF80411EC
S3150800349008607047DFF80001DFF800110860DFF800
S315080034A00001DFF8F81008607047DFF8F8000068D8
S315080034B050F08000DFF8EC100860704738B504005B
S315080034C004255FF4302000F073F80500EDB2042DF2
S315080034D020D1DFF8D000006850F00200DFF8C410F1
S315080034E00860DFF8C4000460DFF8B800006850F030
S315080034F04000DFF8B01008605FF4302000F058F89C
S315080035000500DFF8A000006841F6FD710840DFF805
S31508003510941008602800C0B232BD70B504000D00D2
S3150800352004264FF4005000F043F80600F6B2042EC5
S3150800353016D1DFF87000006850F00100DFF864105B
S31508003540086025804FF4005000F032F80600DFF8D6
S315080035505400006841F6FE710840DFF8481008601C
S315080035603000C0B270BD042010490968C90701D5EA
S3150800357001200CE00D480068400701D5022006E04E
S315080035800A480068C00601D5032000E00420C0B23E
S3150800359070470000002002402301674504200240CE
S315080035A0AB89EFCD10200240142002400C200240C7
S315080035B038B504000425FFF7D6FF050003E0FFF73A
S315080035C0D2FF0500641EEDB2012D01D1002CF6D103
S315080035D0002C00D105252800C0B232BDDFF818023C
S315080035E0006850F00100DFF810120860DFF80C02DE
S315080035F00068DFF80C120840DFF800120860DFF8F0
S31508003600F8010068DFF8FC110840DFF8EC110860E3
S31508003610DFF8E401006830F48020DFF8DC11086088
S31508003620DFF8D801006830F4FE00DFF8D011086032
S315080036305FF41F00DFF8D0110860704700226F4B57
S315080036401B681A0032F47C12084302436B48026076
S315080036507047C0B26D49086070470021674A126812
S3150800366011008908890001436448016070470021F8
S31508003670624A1268110031F0F00101435F480160A7
S31508003680704700215D4A1268110031F4E061014378
S315080036905A48016070470021584A1268110031F4EF
S315080036A0605151EAC001554801607047C0B2594996
S315080036B00860704730B400220021002300244F4DD3
S315080036C02D6815F00C052A00002A04D0042A05D016
S315080036D0082A06D021E05049016020E04E490160E1
S315080036E01DE04649096811F47011444A126812F43B
S315080036F08033890C891C002B03D1484A5143016049
S315080037000AE03E4A1268920303D5444A51430160CF
S3150800371002E0414A5143016001E03F4901603749EF
S31508003720096811F0F00212093D49545C0168E1404C
S3150800373041603249096811F4E062120A3849545C5A
S315080037404168E14081602D49096811F46052D20A46
S315080037503349545C4168E140C1602849096811F45D
S315080037604042920B2F49545CC168B1FBF4F10161E8
S3150800377030BC7047C9B2002905D02B4909680843EF
S315080037802949086005E02849096831EA0000264900
S3150800379008607047C9B2002905D02449096808435A
S315080037A02249086005E02149096831EA00001F49F5
S315080037B00860704710B4002200230021C0B24409F3
S315080037C0E4B22200012A02D10B490B6806E0022A5C
S315080037D002D10F490B6801E015490B68C0B210F019
S315080037E01F0233FA02F0C00701D5012100E00021CB
S315080037F00800C0B210BC7047001002400410024016
S315080038000000FFF8FFFFF6FE081002406000424283
S31508003810201002408004424200127A0000093D004E
S315080038200000002020000020181002401C10024052
S3150800383024100240F0B400220026002400250023AC
S31508003840002791F803C01CF00F0C624691F803C0DC
S315080038505FEACC6C01D58B781A430B781B0621D00E
S315080038600368002406E0CD78482D02D10125A5403D
S315080038700561641C082C14D20125A5400E882E402B
S31508003880AE42F6D1A5000F2616FA05F7BB4312FA83
S3150800389005F52B43CD78282DE5D10125A5404561B1
S315080038A0E7E703600B88FF2B26DD4368002420E04A
S315080038B0012514F10806B5400E882E40AE4217D1F0
S315080038C0A5000F2616FA05F7BB4312FA05F52B4392
S315080038D0CD78282D04D1012514F10806B540456197
S315080038E0CD78482D04D1012514F10806B5400561A7
S315080038F0641C082CDCD34360F0BC70470022806847
S3150800390089B2084201D0012200E000221000C0B2AC
S31508003910704789B20161704789B24161704770B4D6
S315080039200022002400230025002802D52F4A136808
S3150800393001E02F4A1368C0F3034582B210F440141D
S31508003940B4F5401F08D133F07063294C246834F06D
S315080039507064274D2C600FE0C40205D50324AC40E3
S31508003960A34353F0706307E0440DE4B2240112FA4E
S3150800397004F4A34353F07063C9B2002905D0410D7E
S31508003980C9B2090112FA01F10B43002802D51748FA
S31508003990036001E01648036070BC704710B400224B
S315080039A00F2311F00304E4B2A400A3401A00C9B21D
S315080039B08B10104C54F8233033EA0202C9B28B102C
S315080039C00C4C44F82320C9B28A100A4B53F822201B
S315080039D0C0B211F00303DBB29B0098401043C9B292
S315080039E08910044A42F8210010BC70471C000140A7
S315080039F0040001400800014000212C4A1100827988
S31508003A00002A35D0294A126803689A43274B1A6058
S31508003A10274A126803689A43254B1A600279511897
S31508003A200A6803681A430A602249096802689143CA
S31508003A30204A116020490968026891431E4A1160AC
S31508003A40417910290CD11B49096802681143194AA2
S31508003A5011601949096800680843174908600EE0AB
S31508003A601249427951180A6800681043086006E04E
S31508003A70027951180A68006832EA0000086070473F
S31508003A8000210022094B1B6803401A000B4B1B68D8
S31508003A90034203D0002A01D0012100E000210800DA
S31508003AA0C0B270470549086070470000000401402D
S31508003AB004040140080401400C04014014040140B8
S31508003AC0F0B585B004000D00002000210022002377
S31508003AD00026AF89002F2600208A4CF6FF71084081
S31508003AE0E98808432082A0894EF6F3110840A98880
S31508003AF02A8911436A8911430843A081A08A4FF68F
S31508003B00FF410840A9890843A08200A8FFF7D2FD13
S31508003B101B48864201D1039900E00299A089000456
S31508003B2007D5192000FB01F029684900B0FBF1F21E
S31508003B3006E0192000FB01F029688900B0FBF1F2C4
S31508003B406420B2FBF0F000010109642303FB112392
S31508003B50A189090408D5D90032316422B1FBF2F1F2
S31508003B6011F00701084307E0190132316422B1FB5D
S31508003B70F2F111F00F010843208105B0F0BD0000F5
S31508003B8000380140C9B2002904D0818951F4005196
S31508003B90818104E081894DF6FF7211408181704769
S31508003BA0F0B4002300240025002689B240F66A17DF
S31508003BB0B94206000800C0B24309DBB289B211F067
S31508003BC01F04012010FA04F5012B01D10C3604E07C
S31508003BD0022B01D1103600E01436D2B2002A03D0E7
S31508003BE030682843306002E03068A8433060F0BC93
S31508003BF07047C905C90D818070478088C005C00D0A
S31508003C007047002289B2B1F5007F0088084201D0CA
S31508003C10012200E000221000C0B2704710B4002252
S31508003C20002389B240F66A14A14289B20A0A012120
S31508003C3011FA02F39BB2D943018010BC70471100F8
S31508003C401A4908431A490860704710B4002100222F
S31508003C500F23C478002C1DD01549096811F4E061BA
S31508003C60D1F5E061090AD1F10402CB4041789140CF
S31508003C7082781A401143090102780E4BD15401216A
S31508003C80027812F01F029140007840110A4A42F861
S31508003C90201009E00121027812F01F0291400078F5
S31508003CA04011064A42F8201010BC70470000FA0579
S31508003CB00CED00E000E400E000E100E080E100E057
S31508003CC080B2084908607047C0B207490860704763
S31508003CD04AF6AA200349086070474CF6CC400149C9
S31508003CE008607047003000400430004080B50A0084
S31508003CF0002100F001F801BD30B4002A27D00028C1
S31508003D0025D00023002403E01B02C9B20B43641C20
S31508003D10042CF9D30425B0FBF5F404FB1504E4B22E
S31508003D20002C08D003E00170401C521E641C002AB7
S31508003D3001D0042CF7D302E00360001D121F042AE9
S31508003D40FAD202E00170401C521E002AFAD130BC99
S31508003D50704770B41300002B01D1012052E00028EF
S31508003D6001D100204EE0002901D100204AE00122BD
S31508003D70181859180425B0FBF5F404FB1504E4B229
S31508003D800426B1FBF6F505FB1615EDB2AC4201D1DA
S31508003D90012500E00025EDB2012D2CD1002C10D014
S31508003DA008E0401E491E05780E78B54200D000226C
S31508003DB05B1E641ED2B2012A03D1002B01D0002C4F
S31508003DC0EFD1D2B2012A16D107E0001F091F0468F5
S31508003DD00D68AC4200D000221B1FD2B2012A01D1C5
S31508003DE0042BF2D207E0401E491E04780D78AC4237
S31508003DF000D000225B1ED2B2012A01D1002BF2D1DB
S31508003E001000C0B270BC70472DE9F04385B000279A
S31508003E105FF000080026002506E0FFB2012F03D157
S31508003E20260000275FF0000802A8019003A800906A
S31508003E300DF10A030022C821DFF8E406FDF7A0FC0D
S31508003E400100BDF8080047F2D9229042E5D091F862
S31508003E50009002AADFF8CC06FDF719FB002E11D157
S31508003E6002A9DFF8C406FDF7EFFA0600BDF8080058
S31508003E70002800D000BF34004FF4807200212000D3
S31508003E80FFF73AFFFFB2002F0BD15FFA89F9B9F1B4
S31508003E90680F35D186F80090761C5FF00008012778
S31508003EA02EE086F80090761C301B0B2802D1A07AEB
S31508003EB010F10D085FFA88F8B8F1000F20D0301B12
S31508003EC05FFA88F840451BDB16F8010C162813D153
S31508003ED05FFA88F8B8F1020189B2200000F026F8E6
S31508003EE016F8021CC0B2814201D1012508E026005D
S31508003EF000275FF0000803E0260000275FF00008AF
S31508003F00EDB2012D90D102A8009000235FFA88F83F
S31508003F10424692B22100DFF81406FDF710FD00258F
S31508003F200024002600275FF000087DE710B4002271
S31508003F30002303E09BB21C5CA2185B1C9BB289B2EF
S31508003F408B42F7D31000C0B210BC70472DE9F0437E
S31508003F5085B000275FF000080026002506E0FFB2BE
S31508003F60012F03D1260000275FF0000802A8019060
S31508003F7003A800900DF10A030022C821DFF8B00556
S31508003F80FDF7FEFB0100BDF8080047F2D922904272
S31508003F90E5D091F8009002AADFF88805FDF777FAD0
S31508003FA0002E11D102A9DFF88005FDF74DFA0600AB
S31508003FB0BDF80800002800D000BF34004FF4807216
S31508003FC000212000FFF798FEFFB2002F0BD15FFA01
S31508003FD089F9B9F1680F35D186F80090761C5FF03B
S31508003FE0000801272EE086F80090761C301B0B2867
S31508003FF002D1A07A10F10D085FFA88F8B8F1000F1F
S3150800400020D0301B5FFA88F840451BDB16F8010CF8
S31508004010162813D15FFA88F8B8F1020189B2200090
S31508004020FFF784FF16F8021CC0B2814201D10125B0
S3150800403008E0260000275FF0000803E026000027B6
S315080040405FF00008EDB2012D90D1607810281BD1E1
S31508004050DFF8E0040078012811D102A800900023B7
S315080040605FFA88F8424692B22100DFF8CC04FDF7E1
S3150800407066FC0026002400275FF0000848E02600BA
S3150800408000275FF0000843E06078A0283CD10622AC
S31508004090A11CDFF8A804FFF75CFE002807D106225A
S315080040A0A11CDFF89C04FFF754FE002827D0607A8D
S315080040B0032804D0042814D0152809D01AE02000B3
S315080040C000F07BF80026002400275FF000081FE0B8
S315080040D0200000F01FF80026002400275FF00008E3
S315080040E016E0200000F097F80026002400275FF06D
S315080040F000080DE0260000275FF0000808E026000B
S3150800410000275FF0000803E0260000275FF000089C
S3150800411000252BE71CB504000020E17A182945D1B3
S31508004120207BA02842D1FFF7B5F9DFF81804FFF77E
S31508004130C5F9E189DFF80C04FFF7EFF9218ADFF802
S315080041400804FFF7EAF9618ADFF80004FFF7E5F9E2
S31508004150FFF7ABF900200FE0C0B2DFF8E813095CFF
S31508004160C0B2DFF8DC238154C0B2DFF8D813095C8B
S31508004170C0B202199170401CC0B20628ECDB0020C0
S315080041802072952060720320A0720E212000FFF78E
S31508004190CDFEA0731620E07301A80090002310221C
S315080041A02100DFF88803FDF7CAFB05E001AA210014
S315080041B0DFF87403FDF76BF913BD1CB50400002086
S315080041C0E17A0A2921D1207B81281ED183206072B9
S315080041D0002007E0C0B2DFF86813415CC0B20219DC
S315080041E09170401CC0B20628F4DB0E212000FFF7B0
S315080041F09DFEA0731620E07301A8009000231022EC
S315080042002100CA48FDF79BFB04E001AA2100C64825
S31508004210FDF73DF913BD1CB504000020E17A172906
S315080042202BD1207BA02828D1A07B552808D1012096
S3150800423000F029F8A07800F098F80020A07306E0AE
S31508004240002000F020F800F0B7F80220A0738420C0
S3150800425060720520A0720020E07310212000FFF78D
S3150800426065FE20741620607401A8009000231222AF
S315080042702100AE48FDF763FB04E001AA2100AA4825
S31508004280FDF705F913BD80B5C0B200280ED001218F
S31508004290AF48FFF73EFB0221AE48FFF73AFB00AAFC
S315080042A000214FF47A70FEF73FFE07E00121A84887
S315080042B0FFF732FB0221A748FFF72EFB02BD80B5A8
S315080042C0C0B200280BD04FF40041A148FFF721FBEC
S315080042D000AA002140F6B830FEF726FE04E04FF4A7
S315080042E000419B48FFF718FB012002BD80B5C0B20C
S315080042F000280AD008219748FFF70BFB00AA0021DF
S3150800430040F6B830FEF710FE03E008219148FFF7A3
S3150800431003FB012002BD80B5C0B200280AD01021D7
S315080043208C48FFF7F6FA00AA002140F6B830FEF7E7
S31508004330FBFD03E010218748FFF7EEFA012002BDD6
S3150800434080B5C0B200280AD020218248FFF7E1FADA
S3150800435000AA002140F6B830FEF7E6FD03E020216A
S315080043607C48FFF7D9FA012002BD10B582B00400D7
S3150800437000F022F8E4B2012C06D014D3032C0BD09B
S3150800438006D3042C0CD00EE00120FFF798FF0AE0B4
S315080043900120FFF7ABFF06E00120FFF7BCFF02E0B4
S315080043A00120FFF7CDFF01206249087000A96A487D
S315080043B0FEF7AAFA012016BD80B50020FFF77FFF99
S315080043C00020FFF793FF0020FFF7A5FF0020FFF767
S315080043D0B7FF00205749087000AB002200215E484D
S315080043E0FEF7E7FA012002BD80B50020FFF74BFF74
S315080043F0FFF7E2FF01BD1FB50DF10A00019003A802
S31508004400009002AB002200214848FDF7B9F90400E4
S31508004410BDF80810200000F05CF90DF10A02210031
S315080044204148FDF734F8E7E71FB50DF10A0001909A
S3150800443003A8009002AB002200213F48FDF7A0F92F
S315080044400400BDF80810200000F0F3F80DF10A0288
S3150800445021003548FDF71BF8E7E780B513E0802112
S315080044603B48FFF756FA00AA00214FF47A70FEF788
S315080044705BFD80213648FFF74FFA00AA00214FF46A
S315080044807A70FEF751FD2B4800780028E7D0802186
S315080044902F48FFF73EFA00AA00214FF49670FEF760
S315080044A043FD80212A48FFF737FA00AA00214FF476
S315080044B09670FEF739FDE6E700B585B002A80190CB
S315080044C003A800904FF48473002201212348FCF7C7
S315080044D01AFC02AA0021C820FEF726FD4FF48051D7
S315080044E01B48FFF70BFA0028E8D102211848FFF706
S315080044F010FA0020FFF7C7FE40211548FFF709FA12
S3150800450002AA00216420FEF70FFD40211048FFF79C
S3150800451003FA02AA00216420FEF706FDECE7000074
S31508004520A02A00209C2B0020842B00200C2B002086
S31508004530C42A00203A2C0020E82A0020180000206F
S315080045401000002000FC000802FC000804FC00081B
S3150800455000080140000C0140742A0020682B002046
S31508004560704700001CB520218B48FFF74AFB00283E
S3150800457015D08948FFF741FB040001A98748FCF7D5
S3150800458063FF01000C7001A80090002301228448F3
S31508004590FDF7D5F9BDF80400002800D000BF40217A
S315080045A07D48FFF72EFB00280ED040F226617A4898
S315080045B0FFF734FB01AA00217A48FDF752FBBDF844
S315080045C00400002800D000BF13BD00001CB5202140
S315080045D07548FFF716FB002815D07348FFF70DFB43
S315080045E0040001A96D48FCF72FFF01000C7001A813
S315080045F00090002301226D48FDF7A1F9BDF80400DB
S31508004600002800D000BF40216748FFF7FAFA0028C3
S315080046100ED040F226616448FFF700FB01AA00218C
S315080046206348FDF71EFBBDF80400002800D000BF54
S3150800463013BD70B584B004000D0010215D48FFF766
S3150800464068F9012240F226615748FFF7A9FA0026C1
S3150800465010E00020ADF8040001A8009002AB00228B
S315080046604FF4FA715248FDF742FAFE214E48FFF719
S31508004670C0FA761CB6B2042EEBDB002612E0002048
S31508004680ADF8040001A8009002AB00224FF4FA71BD
S315080046904748FDF72CFAB6B2315D89B24248FFF7B2
S315080046A0A8FA761CB6B2ADB2AE42E8D3002240F202
S315080046B026613D48FFF774FA40213B48FFF7A1FA07
S315080046C00028F9D010213B48FFF726F9012004B04D
S315080046D070BD70B584B004000D0004213648FFF79C
S315080046E018F9012240F226612B48FFF759FA0026ED
S315080046F010E00020ADF8040001A8009002AB0022EB
S315080047004FF4FA712748FDF7F2F9FE212248FFF720
S3150800471070FA761CB6B2042EEBDB002612E00020F7
S31508004720ADF8040001A8009002AB00224FF4FA711C
S315080047301C48FDF7DCF9B6B2315D89B21648FFF7B9
S3150800474058FA761CB6B2ADB2AE42E8D3002240F2B1
S3150800475026611148FFF724FA40210F48FFF751FA5E
S315080047600028F9D004211448FFF7D6F8012004B030
S3150800477070BD80B54FF48050FFF782F9002809D044
S3150800478000AB002201210D48FCF7C3FC4FF4805012
S31508004790FFF788F901BD0000004800409C2B002067
S315080047A0C42A0020302B002000440040A02A002004
S315080047B04C2B002000080140000C0140682B00200B
S315080047C000B58BB0FEF736FB09A8FBF78FFC09A8E6
S315080047D008900320079000200690002005900020EE
S315080047E00490802003900C200290AC48019003208E
S315080047F0009000230FF21502A949AA48FDF7D6FA38
S3150800480009A8FBF72BFE00200BB000BD10B582B03F
S315080048100024FEF711FCFEF7FBFDFEF7F0FD4FF452
S315080048207A71B0FBF1F0FCF7BFF900F02CF800F054
S31508004830BEF89D480078C0B2FF280BD0002406E0D9
S31508004840E4B29948005DE4B298496054641CE4B245
S31508004850062CF5DBFEF7C6FDFFF73AFA0121944868
S31508004860FFF757F800AA00214FF47A70FEF75CFBB1
S3150800487001218F48FFF750F800AA00214FF47A70FB
S31508004880FEF752FBE8E700B58BB009A808900320AD
S3150800489007900020069000200590002004908020B4
S315080048A003900C2002908348019004200090002376
S315080048B0814A78A18148FDF779FA09A8089003206A
S315080048C00790002006900020059000200490802084
S315080048D003900C2002907A4801900520009000234E
S315080048E0784A79497948FDF761FA09A808900320BA
S315080048F00790002006900020059000200490802054
S3150800490003900C2002907248019007200090002323
S31508004910704A61A17048FDF749FA09A80890032072
S315080049200790002006900020059000200490802023
S3150800493003900C20029069480190082000900023FB
S31508004940674A55A16748FDF731FA09A80890032078
S3150800495007900020069000200590002004908020F3
S3150800496003900C200290604801900B2000900023D1
S315080049705E4A5F495F48FDF719FA09A808900320BF
S3150800498007900020069000200590002004908020C3
S3150800499003900C200290584801900C2000900023A8
S315080049A0564A57495748FDF701FA0BB000BD00B5FE
S315080049B085B004A801904FF4807000900423524AF1
S315080049C035A15248FCF7D8FCBDF8100000285ED186
S315080049D004A80190042000901E234D4A2EA14D489C
S315080049E0FCF7CAFCBDF81000002850D104AB002221
S315080049F029A14948FDF748F8BDF81000002846D116
S31508004A0004AB002224A14548FDF73EF8BDF8100086
S31508004A1000283CD104AB052241494248FCF772FE06
S31508004A20BDF81000002832D104AB05223E493F48A4
S31508004A30FCF768FEBDF81000002828D104AB052253
S31508004A4015A13B48FCF75EFEBDF8100000281ED1F4
S31508004A5004AB052210A13748FCF754FEBDF8100038
S31508004A60002814D104AB00220BA13348FCF718F92F
S31508004A7004A803900020029030480190012000907D
S31508004A80002341F2707204A12D48FDF7E5FE05B03A
S31508004A9000BD00005532000000000000640A002036
S31508004AA0E04C0008E421002000FC0008100000206B
S31508004AB0000C014064100020093E00080024002074
S31508004AC0640E00204D3F0008E84C00084C230020E7
S31508004AD064120020F7430008B42400206414002060
S31508004AE02944000868250020640C00205B4400085F
S31508004AF0F04C00089822002064160020B9440008EB
S31508004B00C84C00081C26002064060020842B0020C0
S31508004B10FC2900209C2B00204C2B0020302B002049
S31508004B20F84C0008A02A0020004D0008C42A0020DE
S31508004B30E82A00200C2B0020682B0020E9430008F7
S31508004B40742A002080B51448006850F00100124904
S31508004B5008601248006812490840104908600E4863
S31508004B600068104908400C4908600B48006830F492
S31508004B708020094908600948006830F4FE000749A2
S31508004B8008605FF41F000849086000F011F85FF03C
S31508004B9000600649086001BD00100240041002408A
S31508004BA00000FFF8FFFFF6FE0810024008ED00E0DF
S31508004BB070477047FEE7FEE7FEE7FEE77047704777
S31508004BC080B5FBF7DFFF01BD80B5FFF7C9FC01BD66
S31508004BD080B5FFF7FBFC01BD80B5FFF7C3FC01BD3F
S31508004BE080B5FFF7C6FD01BD10B5074979441831F0
S31508004BF0064C7C44163404E00A68081D5118884798
S31508004C000146A142F8D110BD0800000028000000A6
S31508004C107BD1FFFF182C00002400002000000000B4
S31508004C202BC7FFFF24000000E00100000000002061
S31508004C300000000000F00BF8002801D0FFF7D4FFB1
S31508004C400020C046C046FFF7BBFD00F002F8012071
S31508004C50704700F001B811000746384600F002F820
S31508004C60FBE7061080B5C046C046024A1100182068
S31508004C70ABBEFBE72600020075432F4F532D49496B
S31508004C80492054696D6572205461736B00000000F9
S31508004C9075432F4F532D4949492049646C65205463
S31508004CA061736B0075432F4F532D49494920546949
S31508004CB0636B205461736B000148804701480047C5
S31508004CC0454B0008D54C00084F7665724C6F6164F9
S31508004CD000000000C046C046C046C046FFF7AAFF0F
S31508004CE0535441525400000055315F330000000010
S31508004CF04C45443100000000736C61766500000085
S31508004D0072656164000000003F5461736B00000027
S31508004D10641800200C00000080000000000200005B
S31508004D20641A00208000000000020000400600000F
S31508004D302400002040000000E8030000641C002056
S31508004D400C0000008000000000020000880000003F
S31508004D500A000000641E00200C000000800000000D
S31508004D600002000088000000500F0000FFF7FEBF99
S31508004D70FFF7FEBFFFF7FEBFFFF7FEBFFFF7FEBF59
S31508004D80FFF7FEBFFFF7FEBFFFF7FEBFFFF7FEBF49
S31508004D90FFF7FEBFFFF7FEBFFFF7FEBFFFF7FEBF39
S31508004DA0FFF7FEBFFFF7FEBFFFF7FEBFFFF7FEBF29
S31508004DB0FFF7FEBFFFF7FEBFFFF7FEBFFFF7FEBF19
S31508004DC0FFF7FEBFFFF7FEBFFFF7FEBFFFF7FEBF09
S31508004DD0FFF7FEBFFFF7FEBFFFF7FEBFFFF7FEBFF9
S31508004DE0FFF7FEBFFFF7FEBFFFF7FEBFFFF7FEBFE9
S31508004DF0FFF7FEBFFFF7FEBFFFF7FEBFFFF7FEBFD9
S31508004E00FFF7FEBFFFF7FEBF000000000102030424
S31508004E10010203040607080901000000000000005B
S31108004E20AAAAAAAAAAAA00000204060868
S70508004CD5D1
